:400000000010002011000000C1100000C110000008B501F06FF8C04638B5174C23688025ED022B432360302001F0A4FA134A144B1A601022134B1A601032134B1A601032E7
:40004000124B1A6082221206114B1A602560114A114B1A60114A124B1A60124A124B1A600920124901F02CFA092001F0FFF900220F4B1A6038BDC04600010B40060000808C
:4000800004010B401C020240340202403C02024008010B4002000080000002403801008040000240DF2E008080000240851700000C020B4038B572B60122404B1A70002490
:4000C00010E03F4863001A195200821891881B195B001A5AC31858880004104301F06CF80134E4B2012CECD9002412E0344DA3001A195200AA189189D08900040843131C55
:40010000128A598A09041143802201F05BF80134E4B2002CEAD02A49081C1830383101F031F8A0221201274B1A800122264B1A70264A274B1A60EE221202264B1A60264A0C
:40014000264B1A6080229204254B1A60254A264B1A6099231B04254A1360254A1360254A13600F22244B1A60093A244B1A60244B1978043A0A431A70224802783C218A432E
:4001800028390A430270197816220A431A7021221D4B1A601D4A1E4B1A6080221D4B1A60F1231D4A13601D4A1360D82212011C4B1A60FFF731FF01F019F838BD1C700F40DE
:4001C0000442000000600F4002600F4003003000000001400C0001400404390000500F4004500F400200000408500F4010500F4020500F4030500F402000004000800F40FC
:4002000000700F4001700F400000044036100300080004401801044000020440180204400803044010B5064C2378002B07D1054B002B02D0044800E000BF0123237010BDA5
:400240005001002000000000483F000008B5084B002B03D00748084900E000BF07480368002B00D108BD064B002BFBD09847F9E700000000483F000054010020C8000020D4
:400280000000000008B562B6074801F0FBFA01F089F801F097F805480549064A00F0EEFD00F032FEFCE7C046F5020000743F0000803F00008C3F000010B500F0D3F900F0CE
:4002C00039FA00F079F800F09BF900F007F900F073F8074C208000F0C5F960803223E38000F08EF9208100F0F9F8A08010BDC046D803002038B52A4B1C78312C09D8002027
:4003000001F06AF86400274BE052254A137801331370234B5C78312C09D8032001F05CF86400214BE0521E4A5378013353701C4B9C78072C0DD8022001F04EF8011C022072
:4003400001F060F86400194BE052154A937801339370134BDC78072C0DD8012001F03CF8011C022001F04EF86400114BE0520C4AD3780133D3700A4B1B79072B0ED8084CB4
:40038000E578042001F028F8011C022001F03AF86D00084BE85223790133237138BDC0466C0100205C040020E4030020B4030020C40300204804002038B53A4B1B78322B50
:4003C0006CD1394B1888041C01230EE05A003649525A15B201B28D4203DB21B2A94202DB02E0101C00E0141C0133312BEEDD24B200B2201A2D4C6043FA21890001F0F0FC4B
:4004000080B202B22A4B9A4215DD101C03F04EF80022284B02F03CF9274A284B02F076FD274A284B01F00CFE0022274B02F06EFD041C0D1C14E000B203F038F800221D4BBD
:4004400002F026F9214A224B02F060FD214A224B01F0F6FD00221C4B02F058FD041C0D1C201C291C0022002301F0C2FD002808D1201C291C0022144B01F0CEFD002803D13E
:4004800004E00024002501E000240F4D201C291C02F0D6FF034B00221A70D880014B0620185E38BD6C0100205C040020260300005C04000000408F407DCEDDAE97A6CCBFF4
:4004C00098C0ADBB79AAE23F00005940D8BB3FDEAB56F1BFC39E76F86BB2F83F38B53A4B5B78322B6CD1394B1888041C01230EE05A003649525A15B201B28D4203DB21B227
:40050000A94202DB02E0101C00E0141C0133312BEEDD24B200B2201A2D4C6043FA21890001F05EFC80B202B22A4B9A4215DD101C02F0BCFF0022284B02F0AAF8274A284B9E
:4005400002F0E4FC274A284B01F07AFD0022274B02F0DCFC041C0D1C14E000B202F0A6FF00221D4B02F094F8214A224B02F0CEFC214A224B01F064FD00221C4B02F0C6FC76
:40058000041C0D1C201C291C0022002301F030FD002808D1201C291C0022144B01F03CFD002803D104E00024002501E000240F4D201C291C02F044FF034B00225A701881CE
:4005C000014B0820185E38BD6C010020E4030020260300005C04000000408F407DCEDDAE97A6CCBF98C0ADBB79AAE23F00005940D8BB3FDEAB56F1BFC39E76F86BB2F83F31
:4006000008B5144B9B78082B08D000201FE050001149415ACB189BB2013201E000220023072AF4DD18B2C3103B3BFF3B181C02F03DFF0A4A0A4B02F069FC02F001FF031CD1
:400640000021044A917080B21B0400D5002000B208BDC0466C010020B40300207FFB3A70CE88A23F284BDB78082B08D0002048E050002649415ACB189BB2013201E00122AE
:400680000023072AF4DD1BB2DB10214A944663449AB220498B421EDC13B21F498B421CDC1E498B421BDC3C398B421ADC1C498B4219DC1C498B4218DC1B498B4217DC3C39BA
:4006C0008B4216DC19498B4215DC1A1E184B9A4213DD0A2012E0642010E05A200EE050200CE046200AE03C2008E0322006E0282004E01E2002E0142000E005200022024BA0
:40070000DA7000B27047C0466C010020C4030020B2070000E40C0000A80C00006C0C0000F40B0000B80B00007C0B0000040B0000C80A00000D4B1B79082B08D0002013E083
:4007400050000B49415ACB189BB2013201E001220023072AF4DD1BB2D817400FC318DB100021024A117198B200B270476C0100204804002038B5144B1B78002B22D101F054
:4007800067F9051C00241AE001F0F8F8002807D00A2805D00D2803D00C4B1B78FF2B08D10A4A1378D31800221A710132064B1A7008E0064AD11808710133137001346B1C2C
:4007C000A342E1DC38BDC046C00400207801002008B5FFF7CFFF08BD10B5114B1B78002B1CD0041CFFF7C6FF002307E00D4AD2181179E154002111710133DBB2094A1278A8
:400800009342F3D3A21800231370064A1370044A1370201C02F014FFC0B200E0002010BDC00400207801002070B5051C02F008FFC6B2002408E02B5D834204D10134E4B26C
:40084000B44201D305E0002401F0C6F80028F2D100E0012070BDC04600B5C1B0021C0B1C68460B4902F0C0FE684601F053F9094800F05EFE0848FFF7D7FF002804D0642096
:4008800000F056FE012000E0002041B000BDC0469C3F000088130000B43F000000B5C1B0021C68460D490E4B02F09EFEFA20400000F03EFE684601F02DF9FA20800000F0B2
:4008C00037FE0848FFF7B0FF002804D0642000F02FFE012000E0002041B000BDB83F0000B8220000B43F000010B5C0B0041C02F0A7FE0204120C6846164902F075FE68466E
:4009000001F008F9642000F013FE1348FFF78CFF002817D09620400000F00AFE0F48FFF7BDFF002814D00E48FFF77EFF0028FAD1684601F0EFF8642000F0FAFD201C01F078
:40094000E9F805E0642000F0F3FD201C01F0E2F840B010BDD43F0000E43F00008C3F0000B43F000070B584B0051C0E1CFFF734FF1D4B1A6802921A7902AB1A71002306E076
:4009800002AAD15CEA5C914228D10133DBB2032BF6D9002403E001AA13550134E4B2631DEB5C3A2BF7D101A80023035502F0D8FDC1B2002914D00634E4B2002304E01A1940
:4009C000AA5CF2540133DBB28B42F8D3FF2318402418361900233370081C02E0002000E0002004B070BDC046EC3F0000F0B583B0002303E0C15C01AAD1540133022BF9DD4D
:400A0000002304E0C218D2786946CA540133022BF8DD01A80023C3706A46D37002F0A0FD051CC4B2684602F09BFD061CC7B20A3C5A2C02D8074B1D7002E0074801F06AF894
:400A4000642F02D8054B1E7002E0054801F062F803B0F0BDB0030020F43F0000580400202840000010B5C2B0041C201C02A9FFF779FF0028F9D0002305E09A1C02A98A5C7B
:400A80006946CA540133022BF7DD002306E0DA1CD91D02A8415C684681540133022BF6DD00236A4693713222034B1A706846FFF79DFF42B010BDC046CC000020F0B5B9B03F
:400AC00084460F1C161C1D1C3EAB1C78632807D95A4B1A7814A85A49634602F085FD14E0031C0A3B592B07D8544B1A7814A85549634602F079FD08E0092806D84F4B1A7881
:400B000014A85149634602F06FFD632F07D94B4B1A7810A84D493B1C02F066FD14E03B1C0A3B592B07D8454B1A7810A848493B1C02F05AFD08E0092F06D8404B1A7810A8F3
:400B400044493B1C02F050FD632E07D93B4B1A780CA84149331C02F047FD14E0331C0A3B592B07D8354B1A780CA83C49331C02F03BFD08E0092E06D8304B1A780CA8384918
:400B8000331C02F031FD632D07D92C4B1A7808A834492B1C02F028FD14E02B1C0A3B592B07D8264B1A7808A82F492B1C02F01CFD08E0092D06D8214B1A7808A82B492B1CFD
:400BC00002F012FD632C07D91C4B1A7804A82849231C02F009FD14E0231C0A3B592B07D8164B1A7804A82349231C02F0FDFC08E0092C06D8114B1A7804A81F49231C02F0FA
:400C0000F3FC0CAB009304AB019308AB029318A81A4914AA10AB02F0E7FC18A8FFF764FE17480430FFF71EFFFA20400000F080FC144800F06FFF39B0F0BDC046CC000020B9
:400C40005C400000644000006C400000744000007C400000844000008C400000944000009C400000A4400000AC400000B4400000BC400000C4400000CC400000D4400000F4
:400C800078020020E040000000B5BDB005900691079283B21AB2632A07DD654A12781BB218A8644902F0A0FC16E099B20A1C0A3A92B2592A07D85E4A12781BB218A85E4969
:400CC00002F092FC08E0092906D8594A12781BB218A85A4902F088FC05AB9B881AB2632A07DD534A12781BB214A8554902F07CFC16E099B20A1C0A3A92B2592A07D84C4AFA
:400D000012781BB214A84F4902F06EFC08E0092906D8474A12781BB214A84B4902F064FC05ABDB881AB2632A07DD414A12781BB210A8464902F058FC16E099B20A1C0A3AC0
:400D400092B2592A07D83A4A12781BB210A8404902F04AFC08E0092906D8354A12781BB210A83C4902F040FC05AB5B881AB2632A07DD2F4A12781BB20CA8374902F034FC4A
:400D800016E099B20A1C0A3A92B2592A07D8284A12781BB20CA8314902F026FC08E0092906D8234A12781BB20CA82D4902F01CFC05AB1B891AB2632A07DD1D4A12781BB298
:400DC00008A8284902F010FC16E099B20A1C0A3A92B2592A07D8164A12781BB208A8224902F002FC08E0092906D8114A12781BB208A81E4902F0F8FB10AB009308AB019386
:400E00000CAB02931CA81A4918AA14AB02F0ECFB1CA8FFF769FD17480430FFF723FEFA20C00000F085FB144800F074FE3DB000BDCC0000205C400000644000006C40000091
:400E4000744000007C400000844000008C400000944000009C400000A4400000AC400000B4400000BC400000C4400000CC400000D440000078020020E0400000F8B5071C54
:400E80000D1C161C62B61B4800F0EEFE00F066FD194800F03FFEFA246400201C00F048FB164800F037FE164800F042FB154800F031FE201C00F03CFB002406E0381C291C1E
:400EC000FFF7CAFC002802D10134022CF6DD642000F02EFB002405E0301CFFF7DFFC002802D10134012CF7DDFA20800000F020FBF8BDC046D1070000E0400000F040000089
:400F0000B80B0000FC40000070B5A8B05B480430FFF762FC002800D1AEE058480430584902F084FB002803D1564800F0F3FDA3E052480430544902F079FB00281AD1534920
:400F40008D884C880889524B00229A56514B1B785BB20026895F009129B2019121B2029101B2039108A84C4902F03EFB08A800F0D1FD81E041480430484902F057FB00285A
:400F800011D1FFF799F9C82000F0D2FA3F4B1A885888000410439A88D988090411431A89FFF772FE68E0354804303D4902F03EFB002808D1322300933230322146222833C8
:400FC000FFF77CFD58E02D480430364902F02EFB002808D11E2300934130142132225A33FFF76CFD48E0254804302F4902F01EFB002802D1FFF760F93EE0204804302B4988
:4010000002F014FB002804D11C480430FFF72AFD32E01A480430264902F008FB00282BD1244800F077FD012000F0FEFBFA20800000F07EFAFFF740F9144D1F4C0223EA5E89
:4010400004A8211C02F0D0FA04A800F063FDFA20400000F06DFAFFF72FF90223EA5E04A8211C02F0C1FA04A800F054FD002000F0DBFB124800F04EFD28B070BD78020020F6
:401080000C410000104100001C410000D8030020B00300205804002028410000704100008041000090410000A0410000B0410000C0410000CC410000E0410000EC41000011
:4010C000FEE7C04608B5031C084A1068C318084A9A1A802A02DC054A136005E002F046FA0C2303600120404208BDC046D0000020E806002070B50F4E0F4D13E029686B68EA
:40110000AC68002202E001C901C30432A242FAD1E868002202E0002102C304328242FAD11035013E002EE9D102F026FAFFF7AAF8FEE7C046010000008C47000008B5002370
:401140000AE0032B03D89A000A49505800E00A4899000A4A885001332F2BF2D9FEF7AAFF0022074B1A608022D205116801230B43136008BD00000000C1100000000000207E
:40118000C0000020F0B50025002711E0BB00C658F3B2FF22964308E06A008A181478A419527822700135013BDBB2002BF4D10137072FEBD9F0BDC04608B50A1C002102F092
:4011C0000AFA08BD08B502F0FDF908BD064B1B68002803D080221206134301E05B005B08014A13607047C04680031A4008B5F123034A1360034A13600120FFF7E7FF08BDD3
:4012000000031A4040031A4010B50E20032100F069F90E203F4900F053F91F223E4B1A603E4B1B68002B01DA3D4900E03D493E4A13680B4313603D4A3D4B1A603D4A3E4BBA
:401240001A6000233D4A13603D4A3E490A603E490A603E4A13603E4A136001223D4B1A6001323D4B1A603D4A11683D4B0B40C02189040B431360002449E03A49A200505802
:40128000DC239B0103400919097D0B4336498C4662441360C30708D52C49086880225202131CA3401B0C03430B60A3002D4A9B589B0708D52649086880225202131CA34011
:4012C0001B0C03430B60A300264A9B589A0502D58020C00001E080204001DB0506D443085B429BB262002149535203E0630000211E4A99521E4B58431E4B9C4660441E4904
:4013000000F06EFD00B2A2001C4BD0500134042CB3D910BD6114000020001A4080031A40E02E1010E02E001000001A408D00008004001A400000FF0718001A401C001A40EE
:401340000200020010001A4014001A4028021A4038021A4018021A40000F1A4030001A40FFFFFFDF6445000080001A40C40400201027000072060000E40C0000D004002038
:4013800008B5074B1B68002B08DB054A1368802109060B4313600A2000F0E2F808BDC04600001A4008B5064B1B78002B04D1FFF72BFF0122024B1A70FFF7E2FF08BDC046DC
:4013C0007C030020034A1368802149020B4313607047C04604001A4010B5041E042C02D9002000F06BF8042C07D8A400044B9C46644420680004000C00E0002000B210BDB6
:4014000080011A4038B5041C0D1C042802D9002000F054F863000F4A995A691A09B20E48021C4A43002906DDA3000C495B58D80FC018431006E0A30008495B58D80FC31832
:401440005B105B42D018A400044BE15800F0C8FC00B238BDC404002010270000D0040020014B1A681A60704710021A401F2318401E3B8340181C014B1860704700E100E051
:401480001F2318401E3B8340181C014B1860704780E100E01F2318401E3B8340181C014B1860704700E200E01F2318401E3B8340181C014B1860704780E200E001BE704742
:4014C00038B5041C0D1C1F2802D90020FFF7F6FFA400034B9C4664442068256038BDC0464000002070B5041C0E1E032E02D90020FFF7E4FF1F2C02D90020FFF7DFFF0325ED
:401500002540ED00063500F0D1FBA408A400074B9C46644423680322AA409343AE40351C1D43256000F0C6FB70BDC04600E400E010B5041C06E0084B186800F0ADFB074B72
:401540009C46644480231B029C42F4D8024B5868604300F0A1FB10BDD40000200080FFFF08B5034B1B7A584300F096FB08BDC046D4000020F0B557464E46C0B483B0041CE4
:4015800000F094FB0190E71E2D2F74D83F4B1B78DBB2A34208D33E4B1B78DBB29A463D4B1B78DBB2994631E03B4B1B78DBB2A34208D33A4B1B78DBB29A46394B1B78DBB254
:4015C000994623E0374B1B78DBB2A34208D3364B1B78DBB29A46354B1B78DBB2994615E0334B1B78DBB2A34208D3324B1B78DBB29A46314B1B78DBB2994607E02F4B1B7868
:40160000DBB29A462E4B1B78DBB299462D4BDE5D2F2E09D92A2C07D919222B4B1A60052000F03AFB192503E0274B1D683F231D40AE4206D2234BDA5D234B1A60052000F0E7
:401640002BFB1F4B9C4664442378DBB21F4A13601F4B52461A601F4B4A461A600520FFF77FFFAE420AD9174BDA5D174B1A60052000F012FB02E00020FFF720FF019800F0B9
:4016800019FB03B00CBC91469A46F0BDC0F1FF0FC1F1FF0FC2F1FF0FC3F1FF0FC4F1FF0FC5F1FF0FC6F1FF0FC7F1FF0FC8F1FF0FC9F1FF0FCAF1FF0FCBF1FF0FCCF1FF0F36
:4016C000CDF1FF0F804500002CFF0B4028FF0B401CFF0B4020FF0B40034B1868C0231B02184000D00120704700010B4008B500F0DDFA044A1368C02109020B43136000F09D
:40170000D9FA08BD00010B4010B500F0CFFA08490A68084B1A408024E40122430A600A6813408022120213430B6000F0C3FA10BD00010B40FF3FFFFF70B5061C00F0B6FA5A
:40174000041CFFF7C9FF002803D0FFF7DDFF012500E000250848331C0340084A106808490840184310601368012D01D1FFF7BEFF201C00F09FFA70BD0404040010020B40FA
:40178000FBFBFBFF10B5244B1B685B0715D5234B1B685B070ED5224B9969042001401F4C22688A4322609A6982439A61DB68002B00D098470420FFF7BFFF174B1B685B05EB
:4017C00018D5164B1B685B0510D5154B99698022D2001140114802688A4302609969114A0A409A611B69002B00D098478020C000FFF7A2FF084B1B685B030CD5074B1B68D9
:401800005B0304D5064B5B69002B00D098478020C002FFF791FF10BD10020B40E400002080030020FFFBFFFF04490A68FD231A404000FB3B18401043086070470000044014
:40184000014BD8647047C0460000002010B5041C00F02CFA044A13689B009B08A4071C43146000F027FA10BD00E400E00822014B1A60704700E100E00822014B1A607047D2
:4018800080E100E010B5041CFFF7F6FF201CFFF7D7FF0020FFF7DAFFFFF7E8FF10BDC04608B500201049FFF70BFE00200321FFF719FE00220D4B1A7076320D4B1A70563ACC
:4018C0000C4B1A7002200C49FFF7FAFD02200321FFF708FE0E22094B1A708132084B1A708D3A084B1A7008BD3D1B00009C03002083000F4080000F40C91B000022000F404D
:4019000032000F4081000F4038B500F0CFF9051C0F4A117820230B4313700E4A137810242343DBB213700020FFF7A0FD0A4B1A781443E4B21C700220FFF7B6FD0220FFF717
:4019400095FD00F09FF9281C00F0B4F938BDC04693000F4090000F4091000F4008B5064B5B78002B04D1FFF79BFF0122024B5A70FFF7CAFF08BDC0469C03002010B50020F7
:40198000FFF77EFD114A9378DBB2D178C9B21279002A01D18B4210D00D4AD45CE4B20133DBB2FF2B00D10023084A93701379002B06D00022054B1A7102E0064B1C78E4B293
:4019C0000020FFF753FD201C10BDC0469C030020E404002040000F4010B50020FFF750FD174A9378DBB2D178C9B21279002A01D18B4210D0134AD45CE4B20133DBB2FF2BF5
:401A000000D100230E4A93701379002B12D000220B4B1A710EE00C4B1B78DBB29A0606D50A4A1478E4B21E221A4202D102E0002400E000240020FFF719FD201C10BDC046B1
:401A40009C030020E404002060000F4040000F4010B50020FFF714FD124A9378D278DBB2934205D10F4B1B79002B14D0FF2413E00C4A9378D278DBB2934205D2094AD378F7
:401A800094781C1BE4B207E0064AD37894781C1B013CE4B200E000240020FFF7E7FC201C10BDC0469C03002010B5164BD9799A79D2B2914205D2531ECB1A5C426341DBB20C
:401AC00004E08B1AFE3B5C426341DBB2002BECD18A4206D10C4B1B785B0702D40B4B18700EE0FF2900D10021094B58540131054BD971054B1B789B0702D50220FFF7CAFCBC
:401B000010BDC0469C03002061000F4041000F40E405002038B5084B5B78002B05D109E0FFF7C2FF0134A4B201E0051C0024285D0028F5D138BDC0469C0300201A4B1B7840
:401B4000DBB21E221A4204D018481A4001780A4302702022134024D0154A1178C9B2154A1278D2B214488154144A1278002A02D00121134A11700F490A780132D2B20A70FD
:401B80000A78D2B2FF2A02D100210A4A1170094A12780C490978D2B28A4202D10121074A1170002BCAD1704760000F409C03002040000F409F030020E4040020A00300205C
:401BC000A10300209E03002013E0104B1B78DBB2FF2B02D100220D4B1A700C4A1378DBB20B49CB5CDBB20B490B7013780133DBB21370064B1B78DBB2074A1278934203D0E9
:401C0000064B1B785B07E0D57047C046A2030020E405002041000F40A303002061000F40014B58647047C0460000002010B5041C00F03CF8044A1168044B0B40A4031C43C3
:401C4000146000F037F810BD00E400E0FF3FFFFF0222014B1A60704700E100E00222014B1A60704780E100E010B5041CFFF7F6FF201CFFF7D5FF0120FFF7D8FFFFF7E8FF1F
:401C800010BDC046034A1368802109060B4313607047C046400002400230800804D0C0460138FDD1C046C046C0467047EFF3108072B6704780F310887047C046C046C04650
:401CC000002243088B4274D303098B425FD3030A8B4244D3030B8B4228D3030C8B420DD3FF22090212BA030C8B4202D31212090265D0030B8B4219D300E0090AC30B8B4273
:401D000001D3CB03C01A5241830B8B4201D38B03C01A5241430B8B4201D34B03C01A5241030B8B4201D30B03C01A5241C30A8B4201D3CB02C01A5241830A8B4201D38B0233
:401D4000C01A5241430A8B4201D34B02C01A5241030A8B4201D30B02C01A5241CDD2C3098B4201D3CB01C01A524183098B4201D38B01C01A524143098B4201D34B01C01AA8
:401D8000524103098B4201D30B01C01A5241C3088B4201D3CB00C01A524183088B4201D38B00C01A524143088B4201D34B00C01A5241411A00D20146524110467047FFE704
:401DC00001B5002000F0FCF802BDC0460029F7D003B5FFF775FF0EBC4243891A1847C04603460B437FD4002243088B4274D303098B425FD3030A8B4244D3030B8B4228D3BE
:401E0000030C8B420DD3FF22090212BA030C8B4202D31212090265D0030B8B4219D300E0090AC30B8B4201D3CB03C01A5241830B8B4201D38B03C01A5241430B8B4201D35C
:401E40004B03C01A5241030B8B4201D30B03C01A5241C30A8B4201D3CB02C01A5241830A8B4201D38B02C01A5241430A8B4201D34B02C01A5241030A8B4201D30B02C01A70
:401E80005241CDD2C3098B4201D3CB01C01A524183098B4201D38B01C01A524143098B4201D34B01C01A524103098B4201D30B01C01A5241C3088B4201D3CB00C01A5241B4
:401EC00083088B4201D38B00C01A524143088B4201D34B00C01A5241411A00D201465241104670475DE0CA0F00D04942031000D34042534000229C4603098B422DD3030AB0
:401F00008B4212D3FC22890112BA030A8B420CD3890192118B4208D3890192118B4204D389013AD0921100E08909C3098B4201D3CB01C01A524183098B4201D38B01C01A3A
:401F4000524143098B4201D34B01C01A524103098B4201D30B01C01A5241C3088B4201D3CB00C01A524183088B4201D38B00C01A5241D9D243088B4201D34B00C01A5241EB
:401F8000411A00D20146634652415B10104601D34042002B00D54942704763465B1000D3404201B5002000F00BF802BD0029F8D003B5FFF715FF0EBC4243891A1847C0461D
:401FC0007047C0468446101C62468C46191C634600E0C0461FB500F033FF002801D40021C8421FBD10B500F077FE4042013010BD10B500F025FF002801DB002010BD012061
:4020000010BDC04610B500F01BFF002801DD002010BD012010BDC04610B500F0A1FE002801DC002010BD012010BDC04610B500F097FE002801DA002010BD012010BDC046AF
:40204000F0B5454657464E4694464C000A03C90FE0B488460E1C1903470FC500480A6146490F01436046520A1743C0005A00640D520DDB0F8446984500D1A7E0A01A00288B
:4020800000DC01E1002A3DD163460B4300D0D4E06B0700D188E00F232B40042B00D183E02A1DAA42AD4180236D427F191B043B404646151C002B00D17CE0CC4B01349C4220
:4020C00000D1FDE03A1CCA4BED081A405007640552020543120B640D002112030B0D1B056405120B1A436308C24CF60714401C43640064083443281C211C1CBC90469946BF
:40210000A246F0BDB94B9C42C2D080231B041943382800DDECE01F2800DD21E120220E1C6346121A9640C340334366469640321C561EB24113430A1CC240EB1A9D42B64129
:402140001D1CBA1A7642971B3B0200D497E07A02560A002E00D1B6E0301C01F0E3F9031C083B1F2B00DDB7E09E40371C28262A1C361AF240161C9D403E439C4200DDB2E092
:402180001C1B621C1F2A00DDD8E01F23291C1C1B331CA540A340D1406C1EA541D64019430D43371C002473E780231B043B40464600D082E78D4BED0878070543FA089C422D
:4021C00032D012036405120B640D85E7A31A002B00DC94E0002A3CD0844A944200D157E7802212041143382B00DC05E163461943481E81410022C8B24019A8429B41051C0A
:40220000D2195B42D7183B0239D5784B01349C4200D14CE10120764A6B083A4028401843D5070543570833E72B1C134348D080231B031A431203120B4EE70138002878D1F6
:402240006346EE1AB5429B417A1A5B42D71A351C7AE7021C0A4300D11AE7013B002B00D0F2E04019A8429B41CA195B42D718051CC9E7131C334300D118E1171C351C4646E2
:402280006B0700D007E795E700287AD1621C5205520D012A00DCFBE06246AA1A9542B6419146781A7242861A320200D493E06246551BAC458041CF1B40423E1A984648E7DC
:4022C0000022002508E7281C01F02CF92030031C083B1F2B00DC47E7283885402E1C00259C4200DC4CE7424AE41A1640371CCFE6634619434B1E99410022CBB21DE7002BC9
:4023000000D0F2E0601C43055B0D012B00DCA4E0364B984200D121E163465C19AC429B41CF195B42FA186408D50725435708041CAEE62E4B9C4200D0EAE6A9E6211C331CC1
:402340001F39CB40191C202A00D182E03F231C1BA64035436E1EB54100270D4300248EE7031C0E1C203BDE40202874D040231B1A99400B1C62461343591E8B410022334300
:40238000DBE6002C50D0194CA24200D1A8E08024240440422743382800DDD9E01F2800DD39E120243E1C241AA640B0462E1CA146C640444626434C46A5406C1EA541C740B2
:4023C00035436046451BCF1BAC45894149427F1A141C9846B8E64B464D46334300D0B8E60026002700240025E4E6C046FF070000FFFF7FFFFFFF0F801F2B5BDC2022081C86
:40240000D21A9040814660469246D8404A4610438146524660469040021C501E8241484610430A1CDA40E7E63C1C2C4358D0C043002851D16046451BAC458041CF1B40422E
:402440003F1A141C98467FE68F4A944200D0CAE61EE600267DE700238CE73B1C2B43002C00D0BDE0002B00D1F5E063460B4300D10EE663465B19AB428041CA1940421718F3
:402480003A0200D4FCE0814A1D1C17400134FFE53A1C2A43002C51D1002A00D085E062460A4303D00F1C65469846F1E50026002700257FE6181C0A1C2038C240202B00D153
:4024C000A7E04020C01A8140081C63461843411E8841104300228FE66B4CA24200D05AE70F1C6546141C9846D2E5002C3AD1381C284371D0DB43002B18D0634882426BD0C7
:40250000382B00DD9DE01F2B00DDA7E020203C1CC01A8440A1462C1C8246DC404846044350468540681E8541DF402543654465459B417F185B42FF18141C64E6002A19D1DC
:4025400062460A4377D00F1C654698464E4C9FE53D436F1EBD410027EDB232E7041C0027002527E64848824236D0802000045B420743C5E762460A4349D08024ED08780733
:40258000FA0824032843224209D0CE08264206D162464F07381CD20810439846321CD200470F1743C500384C72E562460A4300D16EE56246AE1AB5429241781A5242821A53
:4025C000100200D455E66246551BAC458041CA1B4042171A98465BE50F1C6546141C57E5002B34D063460B4311D08024ED087807FA08240328432242D1D0CB082342CED169
:4026000062464F07381CD20810431A1CC7E71E4C3EE5002059E7041C3E1C203CE640341C20282BD04026301A87403D436F1EBD4100272543C5E680270026FF03124C0025AD
:40264000B8E53D436F1EBD410027EDB26EE70F1C65460D4C1CE50F1C654619E51C1C381C203CE040041C202B0CD04020C31A9F403D436F1EBD410027254357E70027D4E76E
:402680001D1CFCE50027F3E7FF070000FFFF7FFFF0B55F4656464D464446F0B40F0387B098464D003B0BCC0F061C924681469B466D0D01946BD0664B9D4235D080275B4678
:4026C0007F031F43F3009946624BFF00400F9C4607430023BB46002665440093424617035000D20F53463F0B400D904600D172E0574A904267D080235B031F435346554A36
:402700005B0FFF001F43944653460021DB0060444246624092462D1A0E430F2E00D9A1E04D48B600805987465B461E4300D076E000239B469946023308260093CEE7994604
:402740004346BB4601930091009B022B6BD1019B9A46002153460122002789461A403C4B00213F030C0D24053F0B27433B4C1B0527401F437F00D2077F0817434846391C91
:4027800007B03CBC90469946A246AB46F0BD03433ED05B46002B00D19CE1584600F0C2FE2823311C1B1A021C5F46D940083A97400B1C96403B439B46B1460023284D0026A0
:4027C0002D1A00938AE7524603213A43A0D10027002302219CE752463A4315D0002F00D185E1381C00F09EFE021C28215046891A131CC8405146083B99409F400B1C0743DA
:4028000017480021801A83E70027002301217FE700239B4699460133042600935EE703230C2600935AE7032B00D13CE2012B00D0BFE11A1C019B1A400021002300278946DE
:402840008EE700238027994600223F03004B87E7FF07000001FCFFFFB0450000FFFF0F800DFCFFFFBB4500D951E100D14CE14A46039200225C469046013D180E3F023843AB
:402880001B020193030C994603041B0C4946061C201C1F1C0093FFF713FA021C7A4302904946201C171CFFF791FA039B09041B0C19438F420CD9029B8919013B8E4200D999
:4028C00052E18F4200D84FE1029B8919023B0293CC1B201C4946FFF7F3F9009F834647434946201CFFF772FA039A0B041404240C23439F420DD95A469B19013A9E4200D99F
:4029000030E19F4200D82DE10222524294469B19E344029ADB1B17045A463A439346019C170C220C101C04925A4611042204120C141C090C7C4305924A4341434743611857
:40294000100C09188C4203D980204002844667440C0C12040804120C3C198118A34200D2E5E000D1DFE01F1B43465C1AA04592415242BF1AB74200D10EE1381C4946FFF7D7
:402980009FF9009B029043434946381C9846FFF71DFA230C0F041F43B8450CD9029BBF19013BBE4200D9FBE0B84500D8F8E0029BBF19023B02934346FF1A4946381CFFF7A4
:4029C0007FF9009B039043434946381C9846FFF7FDF924040904240C214388450CD9039B8919013B8E4200D9DCE0884500D8D9E0039B8919023B03934346C91A029B039A8B
:402A00001B04059C1A43100C13049146221C049F1B0C5A4344437B437843E318170CDB199C4203D980246402A44660441C0C12041B04120C00199B18814200D296E000D143
:402A4000FCE04A4601231A4391469B4BEB18002B00DC99E04A4652070AD00F2249460A40042A05D00431494592418946524293445A46D20106D55A46904B1A4080239346EA
:402A8000DB00EB188E4A934200DD62E64A465946D208490711435A4689465702514601225B053F0B5B0D0A405AE680205A460003024208D0074206D107433F0399463F0B67
:402AC0004246804B4CE65F4607433F033F0B221C7C4B45E600F026FD031C2030272800DC5EE6083B9E400023B346994665E6504600F018FD021C2032272A00DC75E657461E
:402B00000838874000237BE6994500D2AFE65A46594654084A46C8075208024303924A46D2079046A9E60027884500D31CE7019F5A46BC46E044B845BF417F42BF19FF18EC
:402B4000013ABE4206D2BC425FD800D19FE03F1B934609E7B742FAD1019B4345F3D9371B934601E79346D4E60293B1E64A468919013A8E4218D99146814200D061E7019A99
:402B80009A4200D05DE760E74F4F7F1B382F13DD012253461A404FE601235B42994654E7029308E7039327E788423CD874D0914647E7019B9A4648E71F2F44DC434B4A46A3
:402BC0009C465B466544FA40AB4013434A46AA40151C6A1E95415A46FA402B43171C5A0709D00F221A40042A05D01A1D9A429B415B42FF18131C3A023ED5534601220021E4
:402C00001A40002701238946AAE502235B429C46019AE3449446E04490459B415B429B19DF193F1BA0E6019F4A467C00BC42BF417F42BF19023AC91901949CE7002B95D149
:402C4000002201929BE75A46214B5B1BDA40202F27D0204B9C465B466544AB4049460B43591E8B411343072200271A4007D00F2200271A40042AB8D17A077F023F0BDB082A
:402C800013439946012253461A40002368E54145BBD89346002767E6019C9C42C3D391466DE70023DAE780275B463F031F433F033F0B019A034B53E5FF030000FFFFFFFE3D
:402CC000FE070000FF07000002FCFFFF1E040000E2FBFFFF3E040000F0B55F464D4644465646F0B41F035C00DB0F99461B4B0E034D00C90F8446360B6D0D8B4690463F0B8E
:402D0000640D9D420CD0154B9C4210D00123A54214D0181C3CBC90469946A246AB46F0BD311C01230143F4D10C4B9C42EED13A430123002AEDD10123A542EAD1BE42E8D17D
:402D4000C445E6D1CB4506D0002DE2D13043031C581E8341DDE70023DBE7C046FF070000F0B5574645464E46E0B40F034E00C90F8A4632491D035C0084463F0B760D9046EB
:402D80002D0B640DDB0F8E420FD08C4239D0002E10D13843414241418946002C27D12A4325D1002000290ED108E0391C01432ED1B44226D0002C0BD09A450DD0534659428A
:402DC00001231943081C1CBC90469946A246F0BD2A43F3D09A45F1D1A642EFDC1ADA504641424841012341421943081CEBE74A46002AE1D058425841012241421143081C3E
:402E0000E1E7291C114302D1002EC2D0D4E702204042D8E7AF42D1D809D00020AF42D2D2504641424841012340421843CBE7C445C4D80020C445F3D3C5E7C046FF070000B7
:402E4000F0B55F464D46444656468046F0B4061C0803000B84462C484C001F035D00C90F640D8B4691463F0B6D0DDB0F844212D0854225D0002C14D161460E43704246415F
:402E8000002D35D0002E21D058425841012143420B43181C0EE06146022031430AD1A5420ED0002D12D13A4310D15B46594201231943081C3CBC90469946A246AB46F0BD19
:402EC000391C02201143F5D1002CD5D09B45ECD1AC42EADC05DBBC45E7D80FD00020BC45E8D2584641424841414201200843E1E73A43C7D10020002EDCD1D6E7C845D4D8DE
:402F00000020C845EDD3D5E7FF070000F0B55F4656464D464446F0B4051C061C080387B099464F00030BCC0F92469B467F0D019467D06C4B9F4236D080205B464003184311
:402F4000C0006B0F1843684B83469C4600239846EE00674400934B4649461D03C90F5B0052462D0B5B0D894600D16EE05D498B4264D080205C4940038C4600210543ED0041
:402F8000500F0543D20063444846FF187B1C9A46009B604002900B430F2B00D9ACE053489B00C3589F465B461D4300D082E00823009300239B46023300269846CBE7029B68
:402FC00001934346022B59D1012400250026019B1C40444B00212D030A0D12052D0B1543434A1B0515401D436D00E4076D082543301C291C07B03CBC90469946A246AB46F2
:40300000F0BD2B434ED05B46002B00D185E1584600F088FA021C2823291C9B1A161C5846D940083EB0400B1CB54003439B462E1C0023304F0093BF1A98468CE751462943D3
:403040002ED10025002202219EE75146294323D0002D00D154E1281C00F064FA031C28215046C91A1A1CC8405146083A914095400A1C05431F480021C31A85E7032B00D1CB
:40308000C2E1012B00D06DE14446019B00251C40E4B2002300269DE700250022012173E7032171E70423009300239B4601330026984650E70C230093093B98464BE78025F2
:4030C00000242D030026074B84E74B46AB46161C0193884675E7029BAB46161C019388466FE7C046FF07000001FCFFFFF0450000FFFF0F800DFCFFFF330C3604360C9C4642
:40310000331C140C1204120C53439846634653439946634663430193331C41466343090C4B445B18994505D9802040028146019949440191190C039141460904090C1B0445
:403140005B1804932B0C9846331C2D04290C4B43604600934346654658435E43009B4D431B0C9946AE194E448446B54203D980235B029946CC44350C2B1C0398634484469A
:403180000593009B36041B041B0CF3189C446046039058460504060C280C84465043351C81466046654344434846000C8346724314195C44A24203D98022520293465D44EC
:4031C000220CAD184A461204120C24044046A41862464A437143464360460096464670438046100C84468844E044414505D9802149028C4600996144009101980399844635
:40320000614499429B415B4299460598434684461204120C1B049B1863449C46AB4683429B4140460A19CC44A2428941E344CC45B6415C46000C8046494276425B4264183F
:40324000334398448C428941AB459B4149425B4219430D1C009B4544EE187602E50D2E43B346049B56021E43731E9E415B46D20D324366021643DB010AD50123334076089F
:403280001E435B46DB071E435B465B089B465746634BFB18002B5ADD720709D00F223240042A05D0321DB242B6417642B344161C5A46D20106D55A465A4B1A4080239346A8
:4032C000DB00FB18584A934234DD0124029B00251C400026554B7DE680205B460003034208D0054206D105432D032D0B4C46161C4E4B6FE65D4605432D032D0B4B4B69E6D3
:40330000504600F00FF9031C2033272B00DCA6E65546083885400022ACE6281C00F002F9021C2032272A00DC75E6083885400026AB467DE65A46F608520716435A460124C4
:403340005502029A5B052D0B5B0D144042E6384DED1B382D0ADD0124029B00251C400026002337E6019B5746029391E71F2D25DC304B321C9C466744BE405B46BB40371C86
:40338000EA407E1EB74113433B431E1C5B46EB401D1C730709D00F233340042B05D0331DB342B6417642AD191E1C2B0220D50124029B00251C40002601230BE65A461E4BA3
:4033C000DB1BDA40131C202D1CD01C4A94465A466744BA40171C3E43721E96411E4307230025334007D00F2300253340042BD6D16B076D022D0B0124F6081E43029B1C4085
:403400000023E7E50027E6E780255B4601242D031D43019B2D0323401C1C2D0B034BD9E5FF030000FFFFFFFEFE070000FF07000002FCFFFF1E040000E2FBFFFF3E040000C0
:403440000B0330B5134C1A0B4B00051C5B0DC90F0020A34210DD104883420EDC80200F4C40030243E41A1F2C0ADD0D48C31ADA40131C48424340581830BD0A4BC818FBE781
:40348000281CE040084CA44663449A40131C0343EFE7C046FE0300001D0400003304000013040000FFFFFF7FEDFBFFFF38B5041E16D0C50F00D04442201C00F033F8174BEE
:4034C0001B1A0A2821DC021C211C153291400A1C0B21081AC4405B052403240B5B0D03E000250023002400220021101C24030A0D1205240B14430A4A1B0514401C4364003B
:40350000ED0764082C43211C38BD0B3884405B052403240B5B0D0022E6E7C0461E040000FFFF0F801C2101231B04984201D3000C10391B0A984201D3000A08391B09984222
:4035400001D30009043902A2105C40187047C0460403020201010101000000000000000008B500210A2200F003F908BD014B18687047C046480100200E4B70B500251E1C73
:403580000D4CE41AA410A54204D0AB00F35898470135F8E701F0E8F8084B00251E1C084CE41AA410A54204D0AB00F35898470135F8E770BD744700007447000074470000CF
:4035C0007C470000002310B5934203D0CC5CC4540133F9E710BD031C8218934202D019700133FAE7704700000EB410B59DB002A9029008610B4882248860486101204042FB
:403600001FABC881084804CBA400006801938C8100F01CF90023029A13701DB010BC08BC03B01847FFFFFF7F4801002002780B78002A03D0013001319A42F7D0D01A70476F
:403640000023C25C0133002AFBD1581E70470000F0B51E1C444B87B01B68059002930B1C039101921C78029A5D1C121950780822104001D02B1CF5E72D2C04D19D1C5C784D
:403680000123009304E000902B2C01D15C789D1C002E02D0102E0AD160E0302C5CD120222B789343582B52D110266C780235009F311C7B1E9F412D4BFF18381CFEF786FBD7
:4036C000381C0491311CFEF7FBFA0022071C131C029909194978480701D5303C07E00320084017D03721012800D02031641AB44210DA511C0BD0BB4207D802D1049A944283
:4037000003DC73430122E31801E0012252422C780135DDE7181C511C0BD10098059A431E9841124BC01822231360019B002B0AD117E00099002900D05842019B002B10D059
:40374000039B002A00D06B1E019A136009E03024002EACD10826AAE70A26A8E7302CA6D19DE707B0F0BDC0464C010020FFFFFF7F38B5051C0C1C131C034A291C1068221C5D
:40378000FFF766FF38BDC04648010020F0B58E6885B0071C0C1C03920193B34245D390238A89DB001A423DD003250969236801985B1A029363695D43EB0F5D19029B6D1031
:4037C00001331B189D4200D21D1C381C53050FD5291C00F01DFB061E13D0029A2169FFF7F1FEA289184B134080221343A38111E02A1C00F065FB061E0CD1381C216900F036
:40380000C1FA0C23402201203B60A38940421343A38117E0029B2661F61826606561019EED1AA560019BB34200D2019E321C2068039900F092FA0020A3689B1BA3602368D9
:403840009E19266005B0F0BD7FFBFFFFF0B59FB0029005938B890E1C171C1B0610D50B69002B0DD1402100F0D3FA30603061002804D10C23029A01381360D0E04023736185
:40388000002306AD6B6120336B761033AB763C1C2378002B03D1E31B049312D003E0252BF9D00134F4E7049B0298311C3A1CFFF76DFF431C00D1ACE06A69049B944663446C
:4038C0006B612378002B00D1A3E00122002352426A6002A95432521801342B60EB60AB601370AB654F4F2178381C052200F02AFA002808D0C01B01278740381C2B6801344E
:4039000018432860EEE72B68DA0604D55322202102A8121811701A0704D553222B2102A81218117022782A2A01D0099B0EE0059A111D12680591002A01DB099204E0524221
:40394000EA60022213432B60013409E02278303A092A04D80A214B4301349B18F6E7099323782E2B18D163782A2B09D1059B02341A1D1B680592002B0DDA01235B420AE0E2
:40398000002301342278303A092A04D80A214B4301349B18F6E70793234F2178381C032200F0D0F9002807D0C01B40278740381C2B6801341843286021781C480622671C98
:4039C000297600F0BFF9002812D0194B002B06D10722059B073393430833059314E005AB00930298291C321C124B00E000BF07E005AB00930298291C321C0E4B00F08AF8E2
:403A00000390039B013304D06B69039A9B186B613DE7B3890B985B0601D5012040421FB0F0BDC04633470000394700003D470000000000008D370000F7B5171C01930A69D6
:403A40008B6800900C1C934200DA131C221C3B6043321278002A01D001333B6023689B0602D53B6802333B60062523681D401ED0231C43331B785A1E9341226892061CD5FD
:403A80003020E1184031C870211C5A1C45310978A21840320233D1700FE0221C0123009801991932089EB047431C0ED00135E3683A689B1A9D42F0DBDAE7221C009801996D
:403AC0004332089DA847431C02D10120404220E006232068E1683A6803400025042B03D18D1AEB43DB171D40A3682269934201DD9B1AED180027AF420ADA221C01230098C4
:403B000001991A32089EB047431CDED00137F2E70020FEBDF0B58BB006920A1C43320793059004920A7E0C1C109B6E2A00D1A8E011D8632A22D009D8002A00D1B2E0582A8D
:403B400000D0C2E045310A707C4A4FE0642A1DD0692A1BD0B9E0732A00D1A7E009D86F2A29D0702A00D0B0E0202209680A43226037E0752A1FD0782A33D0A6E00E1C1A68FC
:403B80004236111D196013683370A1E021681A68080606D4490604D5111D19600023D55E02E0111D19601568002D3BDA2D23049A6D42137036E021681A68080606D449066F
:403BC00004D51568111D1960ADB202E0111D196015685A4B227E03930A276F2A1DD108271BE0221C782145321170554A19680392081D226818600D68100602D4500600D56F
:403C0000ADB2D30702D520231A4322601027002D03D1202322689A432260231C002243331A7002E00A27454B03936368A360002B03DB0422216891432160002D02D1049ED7
:403C4000002B0ED0049E281C391CFEF7BFF8039B013E5B5C281C3370391CFEF731F8051EF1D1082F09D12368DB0706D563682269934202DC3023013E3370049B9B1B236111
:403C80002BE009681A68080607D4490605D5111D19601368A28A1A8004E0111D1960136862691A600023049E236116E01A68111D196016680021301C626800F043F8002851
:403CC00001D0801B6060636803E0261C42363270012323610023049A1370079B05980093211C069B09AAFFF7A7FE431C02D10120404221E0236905980699321C079DA84725
:403D0000431CF4D023689B0705D4099BE068984212DA181C10E00025E368099A9B1A9D42F3DA221C0123059806991932079EB047431CDCD00135EFE70BB0F0BD4447000081
:403D400055470000C9B28218904204D003788B4202D00130F8E70020704710B5814208D28B18984205D29B1A013A09D3995C8154FAE70023934203D0CC5CC4540133F9E79F
:403D800010BD000030B500293ED004390B68002B00DAC9181D4A1368141C002B02D14B60116031E099420DD208680A189A4203D11368C3180B6053684B60216024E08A42D3
:403DC00003D8131C5A68002AF9D11D685C198C420BD10968691858181960904214D110685268091819605A600EE08C4202D90C23036009E008680C18944203D114685268C1
:403E0000001908604A60596030BDC046AC030020032370B5CC1C9C430834051C0C2C01D20C2405E0002C03DA0C2300202B6042E08C42F9D3204A1368101C191C002913D05C
:403E40000A68121B0DD40B2A02D90A608B181FE08B4202D15A6802601BE04A685A600B1C17E00B1C4968E9E7144E3368002B03D1281C00F04BF83060281C211C00F046F803
:403E8000031C421CD0D00322C61C964386420AD11C60181C07210B301A1D8843821A0AD05142995007E0311A281C00F02FF8431CBAD0331CECE770BDAC030020A8030020FC
:403EC000F8B5061C0C1C151C002904D1111CFFF79FFF041C18E0002A03D1FFF753FF2C1C12E000F025F8A8420ED2301C291CFFF78FFF071E07D0211C2A1CFFF763FB301C38
:403F0000211CFFF73FFF3C1C201CF8BD38B50023064C051C081C2360FDF7D4F8431C03D12368002B00D02B6038BDC046E40600200B1F1A68101F002A04DA891804390B6860
:403F4000D0180438704700001000000000000000017A5200027C0E011B0C0D001000000018000000C8F6FFFF1400000000000000000000004C656D6F6E61646500000000AB
:403F80004553506973424553540000003139322E3136382E34332E313235000041542B43574A41503D222573222C222573220D0A000000004F4B000041542B434950535401
:403FC0004152543D22544350222C222573222C25640D0A0041542B43495053454E443D25640D0A006C696E6B000000002B4950440000000056616C7565206F757473696490
:4040000065207065726D697474656420706C616E7420736574206461746120666F72204D6F6973740D0A000056616C7565206F757473696465207065726D697474656420F6
:40404000706C616E7420736574206461746120666F7220526F746174650D0A004D256325640000004D256330256400004D25633030256400572563256400000057256330CD
:404080002564000057256330302564004C256325640000004C256330256400004C25633030256400422563256400000042256330256400004225633030256400542563257E
:4040C000640000005425633025640000542563303025640025732573257325732573000041542B434950434C4F53450D0A00000041542B5253540D0A0000000041542B430E
:40410000574D4F44453D330D0A00000047470000576F726B732E2E2E000000005072696E7420616C6C0000004D6F6973743A256420526F746174653A2564204375724D6FC1
:404140006973743A25642043757257617465723A256420437572426174746572793A25642043757254656D703A25640D0A0000005072696E742073656E736F723100000082
:404180005072696E742073656E736F72320000005072696E742073656E736F72330000005570646174652073656E736F720000005265636569766520646174610000000072
:4041C000546573742050756D7000000050756D70206973207374617274696E670D0A00004261743A25640D0A0000000050756D7020697320646F6E652070756D70696E67A7
:404200000D0A000080300F40800300400F40000400300F40E44400008000000003000F403B300F404A310F4069320F4050330F400B400F4005410F4002600F408038810F71
:4042400083768110849285148625884889098A258B10911C93029403954096FC970398E3990C9A1C9B119C259EDAA01FA2E0A4E3A520A61CA910AB0CACE0AE1CB2FFB31F81
:40428000B520B740BE04BF50C063C102C50BC6E0C7C0C829C9FFCAFFCBFFCEF0CF44D00CD401D604D804D904DA04DB04DC10DD11DF01E6C0EA40EB02000801880420050827
:4042C000084009010A180B0A0C440D080E040F041128120214801581170418011A181B101E2021A12208254026042708288429042C202E082F04314032203384360637211F
:40430000382039803B053E103F0A400143284514472049444A084F28522054205501570259015C405D205F0A6002612062016602780279028E01C065C2EFC4B7CA67CCEEF4
:40434000CEEFD06ED22CD6F1D88DE640003D02C00308040D06F007A308CD09E10A300B160C550EA8115C1201138315E11602170E18A81A541CC01E3024CD26302B1C2F8028
:4043800030033180336034FC351A370F39083A083BA03F054002454049FF4A0F4BFF4C404D204EF04F055008580459045A045C115D015F01604061A86240632082F3841C65
:4043C000851086E3880F89088AF08C418D4090C39140931895A7960C97189882993C9B829F04A0F3A20CA303A408A53CA781A804A9BFACFFAD04B0C0B120B22CB360B40F77
:40440000B51FB61CB780B988BA28BB20BF01D602D713D804D904DB04DC11DD10DF01018202640580076409280A400D600E6012801354150819051A081BA01C081D201E40CE
:404440001F0921082231232124402510271929862A042B082E102F023180321637093A803B143F2A47104F02550457045A0269896A046B44728073148A808B688D088E02EF
:404480009210944095819604970399809A409D019F05A180A210A312A404A51CA7A9A810A9A1AA02AE08AF02B140B248C0FFC2FEC42FCA3FCCCFCEEED020D601EE200A40D5
:4044C0002F8066806F9071108F10C210CA80D680DA80DC60A910AA40B280E820EE20100A1101000000000002000480080000001000048008030004000004080813000C0283
:4045000000004001000C000020000501130404080A0014000001300C0F02C010080020000000401126030500010CE00009FFFFFF62A0F0410C0000001800040004040404A4
:40454000111100010000000000004002001030100010101200000000000000000000000000000000000000000000000000000000000000000000000000070406050000003E
:40458000030405060708090A0B0C0E0F101112131415161718191B1C1D1E1F2021222325262728292A2B2E2F30313233343500006428000052270000382800003E27000041
:4045C0003828000042280000382800003E2700005227000052270000422800003E270000482700004827000048270000AA2A0000F8300000D6300000D6300000CA3000001C
:40460000BE2F0000BE2F0000BE300000CA300000BE2F0000BE300000BE2F0000CA300000C22F0000C22F0000C22F0000D83200004300002020202020202020202828282816
:404640002820202020202020202020202020202020202088101010101010101010101010101010040404040404040404041010101010101041414141414101010101010136
:404680000101010101010101010101010101101010101010424242424242020202020202020202020202020202020202020210101010200000000000000000000000000078
:4046C00000000000000000000000000000000000000000000000000000000000000000000000000000000000000000000000000000000000000000000000000000000000BA
:40470000000000000000000000000000000000000000000000000000000000000000000000000000000000000000000000000000000000232D302B2000686C4C006566675C
:4047400045464700303132333435363738394142434445460030313233343536373839616263646566000000F8B5C046F8BC08BC9E4670474D0200003D110000F8B5C0464D
:40478000F8BC08BC9E46704725020000A0470000C80000208800000098050000000000000000000032000000E80600200000C05D80BB000030000000006CDC0204040400AD
:4047C0000000000000000000000000000000000000000000000000000000000000000000304600000000000000000000000000000000000000000000000000000000000043
:404800000000000000000000000000000000000000000000000000000000000000000000E800002032460000000000000000000000000000000000000000000000000000F8
:404840000000000000000000000000000000000000000000000000000000000000000000000000000000000000000000000000000000000000000000000000000000000038
:4048800000000000000000000000000000000000000000000000000000000000000000000000000000000000000000000000000000000000000000000000000000000000F8
:4048C00000000000000000000000000000000000000000000000000000000000000000000000000000000000000000000000000000000000000000000000000000000000B8
:404900000000000000000000000000000000000000000000000000000000000000000000000000000000000000000000000000000000000000000000000000000000000077
:0200000490303A
:02000000608915
:0200000490402A
:200000000000000000000000000000000000000000000000000000000000000000000000E0
:0200000490501A
:0C000000000204C81193110104DF721CFF
:0200000490600A
:0100000001FE
:00000001FF