:400000000010002011000000610F0000610F000008B500F0BFFFC04638B5174C23688025ED022B432360302001F0F4F9134A144B1A601022134B1A601032134B1A60103204
:40004000124B1A6082221206114B1A602560114A114B1A60114A124B1A60124A124B1A600920124901F07CF9092001F04FF900220F4B1A6038BDC04600010B4006000080ED
:4000800004010B401C020240340202403C02024008010B4002000080000002403801008040000240DF2E008080000240251600000C020B4038B572B60122404B1A700024F1
:4000C00010E03F4863001A195200821891881B195B001A5AC31858880004104300F0BCFF0134E4B2012CECD9002412E0344DA3001A195200AA189189D08900040843131CFF
:40010000128A598A09041143802200F0ABFF0134E4B2002CEAD02A49081C1830383100F081FFA0221201274B1A800122264B1A70264A274B1A60EE221202264B1A60264A60
:40014000264B1A6080229204254B1A60254A264B1A6099231B04254A1360254A1360254A13600F22244B1A60093A244B1A60244B1978043A0A431A70224802783C218A432E
:4001800028390A430270197816220A431A7021221D4B1A601D4A1E4B1A6080221D4B1A60F1231D4A13601D4A1360D82212011C4B1A60FFF731FF00F069FF38BD1C700F4088
:4001C0000C40000000600F4002600F4003003000000001400C0001400404390000500F4004500F400200000408500F4010500F4020500F4030500F402000004000800F40F6
:4002000000700F4001700F4000000440B61DDB00080004401801044000020440180204400803044010B5064C2378002B07D1054B002B02D0044800E000BF0123237010BD40
:400240005001002000000000343E000008B5084B002B03D00748084900E000BF07480368002B00D108BD064B002BFBD09847F9E700000000343E000054010020C8000020FE
:400280000000000008B504480449054A00F068FD00F02AF8FCE7C046383E00004C3E0000643E000010B500F017FA00F07DFA00F0BDF800F0DFF900F04BF900F0B7F8094CE5
:4002C000208000F071FAE08000F006FA608000F06BFAE08000F0CEF9208100F039F9A08010BDC046DC03002010B5FFF7DBFF322001F06EF8184B1B78062B0ED1174B1A886A
:400300005888000410439A88D988090411431A8900F0DCFB104B00221A70114C0020205600F0BAFD002323700E4B00229A560B4B00215B5E9A4207DB00F006FEFA208000FA
:4003400001F046F800F006FE034A137801331370054801F03DF810BDCC000020DC0300205C040020B003002060EA000010B5294B1C78312C09D8002000F07EFF6400264B96
:40038000E052244A137801331370224B5C78312C09D8032000F070FF6400204BE0521D4A5378013353701B4B9C78072C0DD8022000F062FF011C022000F074FF6400184BC2
:4003C000E052144A937801339370124BDC78072C0DD8012000F050FF011C022000F062FF6400104BE0520B4AD3780133D370094B1C79072C0DD8042000F03EFF011C0220D9
:4004000000F050FF6400084BE052024A13790133137110BD6C01002060040020E8030020B8030020C80300204C04002038B53A4B1B78322B6CD1394B1888041C01230EE0F0
:400440005A003649525A15B201B28D4203DB21B2A94202DB02E0101C00E0141C0133312BEEDD24B200B2201A2D4C6043FA21890001F036FC80B202B22A4B9A4215DD101CC2
:4004800002F094FF0022284B02F082F8274A284B02F0BCFC274A284B01F052FD0022274B02F0B4FC041C0D1C14E000B202F07EFF00221D4B02F06CF8214A224B02F0A6FC24
:4004C000214A224B01F03CFD00221C4B02F09EFC041C0D1C201C291C0022002301F008FD002808D1201C291C0022144B01F014FD002803D104E00024002501E000240F4D51
:40050000201C291C02F01CFF034B00221A70D880014B0620185E38BD6C01002060040020260300005C04000000408F407DCEDDAE97A6CCBF98C0ADBB79AAE23F000059401A
:40054000D8BB3FDEAB56F1BFC39E76F86BB2F83F38B53A4B5B78322B6CD1394B1888041C01230EE05A003649525A15B201B28D4203DB21B2A94202DB02E0101C00E0141C5D
:400580000133312BEEDD24B200B2201A2D4C6043FA21890001F0A4FB80B202B22A4B9A4215DD101C02F002FF0022284B01F0F0FF274A284B02F02AFC274A284B01F0C0FC84
:4005C0000022274B02F022FC041C0D1C14E000B202F0ECFE00221D4B01F0DAFF214A224B02F014FC214A224B01F0AAFC00221C4B02F00CFC041C0D1C201C291C002200235D
:4006000001F076FC002808D1201C291C0022144B01F082FC002803D104E00024002501E000240F4D201C291C02F08AFE034B00225A701881014B0820185E38BD6C01002021
:40064000E8030020260300005C04000000408F407DCEDDAE97A6CCBF98C0ADBB79AAE23F00005940D8BB3FDEAB56F1BFC39E76F86BB2F83F08B5134B9B78082B08D00020BF
:400680001EE050001049415ACB189BB2013201E000220023072AF4DD18B2C3100B4A981802F084FE0A4A0B4B02F0B0FB02F048FE031C0021034A917080B21B0400D5002004
:4006C00000B208BD6C010020B80300208EF9FFFF79E9263108AC8C3F284BDB78082B08D0002048E050002649415ACB189BB2013201E001220023072AF4DD1BB2DB10214A3C
:40070000944663449AB220498B421EDC13B21F498B421CDC1E498B421BDC3C398B421ADC1C498B4219DC1C498B4218DC1B498B4217DC3C398B4216DC19498B4215DC1A1E6A
:40074000184B9A4213DD0A2012E0642010E05A200EE050200CE046200AE03C2008E0322006E0282004E01E2002E0142000E005200022024BDA7000B27047C0466C010020F0
:40078000C8030020B2070000E40C0000A80C00006C0C0000F40B0000B80B00007C0B0000040B0000C80A0000344B1B79082B08D0002061E050003249415ACB189BB2013207
:4007C00001E000220023072AF4DD1BB2DB109AB2002B2DDD13B2E42B2CDD2A498B422BDD7631FF318B4229DD27498B4228DD27498B4227DD26498B4226DD26498B4225DDC9
:4008000025498B4224DD25498B4223DD24498B4223DD24498B4223DD23498B4223DD23498B4223DD1A1E224B9A4221DD002020E000201EE001201CE005201AE00A2018E040
:40084000322016E0642014E0962012E0C82010E0FA200EE0962040000BE0C820400008E0FA20400005E09620800002E0114800E011480022014B1A7100B270476C01002067
:400880004C040020D302000069080000E70900009C0A0000060B00004C0B00007E0B0000C30B0000F10B0000110C0000320C0000E40C0000EE020000E703000038B5144BC0
:4008C0001B78002B22D101F007F8051C00241AE000F098FF002807D00A2805D00D2803D00C4B1B78FF2B08D10A4A1378D31800221A710132064B1A7008E0064AD118087177
:400900000133137001346B1CA342E1DC38BDC046C40400207801002008B5FFF7CFFF08BD10B5114B1B78002B1CD0041CFFF7C6FF002307E00D4AD2181179E154002111718D
:400940000133DBB2094A12789342F3D3A21800231370064A1370044A1370201C02F0E6FDC0B200E0002010BDC40400207801002070B5051C02F0DAFDC6B2002408E02B5D4E
:40098000834204D10134E4B2B44201D305E0002400F066FF0028F2D100E0012070BDC04670B584B0051C0E1CFFF7BAFF1D4B1A6802921A7902AB1A71002306E002AAD15C0D
:4009C000EA5C914228D10133DBB2032BF6D9002403E001AA13550134E4B2631DEB5C3A2BF7D101A80023035502F03AFDC1B2002914D00634E4B2002304E01A19AA5CF2542B
:400A00000133DBB28B42F8D3FF2318402418361900233370081C02E0002000E0002004B070BDC046743E000070B5C4B0041C201C02A9FFF7B5FF0028F9D002AB5C780023F4
:400A400005E09A1C02A98A5C6946CA540133022BF7DD002306E0DA1CD91D02A8415C684681540133022BF6DD00236A469371144B1C70002309E06A46D15C43AAD154DA1CA2
:400A80006946895C42AAD1540133022BF3DD43A80023C37042ADEB7002F0E2FC061CC4B2281C02F0DDFCC3B20A3C5A2C01D8054A1670C82B01D8044B187044B070BDC046A5
:400AC000CD000020B00300205C04002010B5DCB005900691079283B21AB2632A07DD874A12781BB218A8864902F0FEFC16E099B20A1C0A3A92B2592A07D8804A12781BB219
:400B000018A8804902F0F0FC08E0092906D87B4A12781BB218A87C4902F0E6FC05AB9B881AB2632A07DD754A12781BB214A8774902F0DAFC16E099B20A1C0A3A92B2592A05
:400B400007D86E4A12781BB214A8714902F0CCFC08E0092906D8694A12781BB214A86D4902F0C2FC05ABDB881AB2632A07DD634A12781BB210A8684902F0B6FC16E099B291
:400B80000A1C0A3A92B2592A07D85C4A12781BB210A8624902F0A8FC08E0092906D8574A12781BB210A85E4902F09EFC05AB5B881AB2632A07DD514A12781BB20CA859493C
:400BC00002F092FC16E099B20A1C0A3A92B2592A07D84A4A12781BB20CA8534902F084FC08E0092906D8454A12781BB20CA84F4902F07AFC05AB1B891AB2632A07DD3F4ACB
:400C000012781BB208A84A4902F06EFC16E099B20A1C0A3A92B2592A07D8384A12781BB208A8444902F060FC08E0092906D8334A12781BB208A8404902F056FC10AB009372
:400C400008AB01930CAB02931CA83C4918AA14AB02F04AFC1CA802F069FC0404240C3CA83749221C02F040FC322000F0B1FB3CA800F094FE642000F0ABFB3248FFF778FE68
:400C800000282AD09620400000F0A2FB3CA82E492E4A2F4B02F028FC322000F099FB3CA800F07CFEFA20800000F092FB2948FFF75FFE0028FAD13CA82149221C02F014FCAC
:400CC000322000F085FB3CA800F068FE642000F07FFB1CA800F062FE02E01CA800F05EFE1D480430FFF7A0FEFA20C00000F070FB1A4800F053FE5CB010BDC046CD00002033
:400D00007C3E0000843E00008C3E0000943E00009C3E0000A43E0000AC3E0000B43E0000BC3E0000C43E0000CC3E0000D43E0000DC3E0000E43E0000EC3E0000F43E000053
:400D4000003F0000103F0000183F0000643E0000B8220000343F000078020020383F0000F0B5C1B0071C0E1C151C62B600F06AFA00F078FA3D4800F0C9FC3D4800F0B8FEC7
:400D800000F030FD3B4800F009FEFA246400201C00F01EFB384800F001FE384800F018FB374800F0FBFD201C00F012FB684635493A1C331C02F098FB322000F009FB6846F9
:400DC00000F0ECFD304800F003FB002418E02F48FFF7CEFD002803D0642000F0F9FA11E0684628493A1C331C02F07EFB322000F0EFFA684600F0D2FD234800F0E9FA0134D3
:400E0000022CE4DD642000F0E3FA684620492A1C204B02F069FB322000F0DAFA684600F0BDFDFA20800000F0D3FA002419E01748FFF79EFD002803D0642000F0C9FA12E05E
:400E4000684613492A1C134B02F04EFB322000F0BFFA684600F0A2FDFA20800000F0B8FA0134022CE3DD41B0F0BDC0466D03000019090000383F0000483F0000B80B0000FB
:400E8000543F0000643F000088130000343F0000183F0000B822000010B5041C294B1B88002B02D10122274B1A80002C47DA002445E0244B00229B5E012B08D1012000F05E
:400EC0002FFE0A2000F084FA002000F029FE1D4B00229B5E022B08D1012000F02DFE0A2000F076FA002000F027FE164B00229B5E032B08D1012000F02BFE0A2000F068FA39
:400F0000002000F025FE0F4B00229B5E042B08D1012000F029FE0A2000F05AFA002000F023FE084B1B881AB2042A03D1033A054B1A8002E00133034A1380013C24B2002C0A
:400F4000B7D110BDB203002008B5012000F018FE08BDC04608B5002000F012FE08BDC046FEE7C04608B5031C084A1068C318084A9A1A802A02DC054A136005E002F076FAED
:400F80000C2303600120404208BDC046D0000020F006002070B50F4E0F4D13E029686B68AC68002202E001C901C30432A242FAD1E868002202E0002102C304328242FAD16C
:400FC0001035013E002EE9D102F056FAFFF75AF9FEE7C046010000009445000008B500230AE0032B03D89A000A49505800E00A4899000A4A885001332F2BF2D9FFF75AF835
:401000000022074B1A608022D205116801230B43136008BD00000000610F000000000020C0000020F0B50025002711E0BB00C658F3B2FF22964308E06A008A181478A4191F
:40104000527822700135013BDBB2002BF4D10137072FEBD9F0BDC04608B50A1C002102F03AFA08BD08B502F02DFA08BD064B1B68002803D080221206134301E05B005B0838
:40108000014A13607047C04680031A4008B5F123034A1360034A13600120FFF7E7FF08BD00031A4040031A4010B50E20032100F069F90E203F4900F053F91F223E4B1A602C
:4010C0003E4B1B68002B01DA3D4900E03D493E4A13680B4313603D4A3D4B1A603D4A3E4B1A6000233D4A13603D4A3E490A603E490A603E4A13603E4A136001223D4B1A607A
:4011000001323D4B1A603D4A11683D4B0B40C02189040B431360002449E03A49A2005058DC239B0103400919097D0B4336498C4662441360C30708D52C490868802252029E
:40114000131CA3401B0C03430B60A3002D4A9B589B0708D52649086880225202131CA3401B0C03430B60A300264A9B589A0502D58020C00001E080204001DB0506D4430897
:401180005B429BB262002149535203E0630000211E4A99521E4B58431E4B9C4660441E4900F09EFD00B2A2001C4BD0500134042CB3D910BD0113000020001A4080031A4031
:4011C000E02E1010E02E001000001A408D00008004001A400000FF0718001A401C001A400200020010001A4014001A4028021A4038021A4018021A40000F1A4030001A4095
:40120000FFFFFFDF6C43000080001A40C80400201027000072060000E40C0000D404002008B5074B1B68002B08DB054A1368802109060B4313600A2000F0E2F808BDC0462C
:4012400000001A4008B5064B1B78002B04D1FFF72BFF0122024B1A70FFF7E2FF08BDC0467C030020034A1368802149020B4313607047C04604001A4010B5041E042C02D996
:40128000002000F06BF8042C07D8A400044B9C46644420680004000C00E0002000B210BD80011A4038B5041C0D1C042802D9002000F054F863000F4A995A691A09B20E4861
:4012C000021C4A43002906DDA3000C495B58D80FC018431006E0A30008495B58D80FC3185B105B42D018A400044BE15800F0F8FC00B238BDC804002010270000D404002069
:40130000014B1A681A60704710021A401F2318401E3B8340181C014B1860704700E100E01F2318401E3B8340181C014B1860704780E100E01F2318401E3B8340181C014B40
:401340001860704700E200E01F2318401E3B8340181C014B1860704780E200E001BE704738B5041C0D1C1F2802D90020FFF7F6FFA400034B9C4664442068256038BDC04678
:401380004000002070B5041C0E1E032E02D90020FFF7E4FF1F2C02D90020FFF7DFFF03252540ED00063500F001FCA408A400074B9C46644423680322AA409343AE40351CC0
:4013C0001D43256000F0F6FB70BDC04600E400E010B5041C06E0084B186800F0DDFB074B9C46644480231B029C42F4D8024B5868604300F0D1FB10BDD40000200080FFFFD9
:4014000008B5034B1B7A584300F0C6FB08BDC046D4000020F0B557464E46C0B483B0041C00F0C4FB0190E71E2D2F74D83F4B1B78DBB2A34208D33E4B1B78DBB29A463D4BFC
:401440001B78DBB2994631E03B4B1B78DBB2A34208D33A4B1B78DBB29A46394B1B78DBB2994623E0374B1B78DBB2A34208D3364B1B78DBB29A46354B1B78DBB2994615E094
:40148000334B1B78DBB2A34208D3324B1B78DBB29A46314B1B78DBB2994607E02F4B1B78DBB29A462E4B1B78DBB299462D4BDE5D2F2E09D92A2C07D919222B4B1A60052085
:4014C00000F06AFB192503E0274B1D683F231D40AE4206D2234BDA5D234B1A60052000F05BFB1F4B9C4664442378DBB21F4A13601F4B52461A601F4B4A461A600520FFF7FD
:401500007FFFAE420AD9174BDA5D174B1A60052000F042FB02E00020FFF720FF019800F049FB03B00CBC91469A46F0BDC0F1FF0FC1F1FF0FC2F1FF0FC3F1FF0FC4F1FF0F0B
:40154000C5F1FF0FC6F1FF0FC7F1FF0FC8F1FF0FC9F1FF0FCAF1FF0FCBF1FF0FCCF1FF0FCDF1FF0F884300002CFF0B4028FF0B401CFF0B4020FF0B40034B1868C0231B0212
:40158000184000D00120704700010B4008B500F00DFB044A1368C02109020B43136000F009FB08BD00010B4010B500F0FFFA08490A68084B1A408024E40122430A600A68C7
:4015C00013408022120213430B6000F0F3FA10BD00010B40FF3FFFFF70B5061C00F0E6FA041CFFF7C9FF002803D0FFF7DDFF012500E000250848331C0340084A1068084905
:401600000840184310601368012D01D1FFF7BEFF201C00F0CFFA70BD0404040010020B40FBFBFBFF10B5244B1B685B0715D5234B1B685B070ED5224B9969042001401F4C76
:4016400022688A4322609A6982439A61DB68002B00D098470420FFF7BFFF174B1B685B0518D5164B1B685B0510D5154B99698022D2001140114802688A4302609969114A08
:401680000A409A611B69002B00D098478020C000FFF7A2FF084B1B685B030CD5074B1B685B0304D5064B5B69002B00D098478020C002FFF791FF10BD10020B40E40000206A
:4016C00080030020FFFBFFFF014BD8647047C0460000002010B5041C00F068FA044A13689B009B08A4071C43146000F063FA10BD00E400E00822014B1A60704700E100E0E8
:401700000822014B1A60704780E100E010B5041CFFF7F6FF201CFFF7D7FF0120FFF7DAFFFFF7E8FF10BDC04608B500201049FFF717FE00200321FFF725FE00220D4B1A70A7
:4017400076320D4B1A70563A0C4B1A7002200C49FFF706FE02200321FFF714FE0E22094B1A708132084B1A708D3A084B1A7008BDC51900009C03002083000F4080000F406A
:40178000511A000022000F4032000F4081000F4038B500F00BFA051C0F4A117820230B4313700E4A137810242343DBB213700020FFF7ACFD0A4B1A781443E4B21C70022035
:4017C000FFF7C2FD0220FFF7A1FD00F09FF9281C00F0F0F938BDC04693000F4090000F4091000F4008B5064B5B78002B04D1FFF79BFF0122024B5A70FFF7CAFF08BDC04608
:401800009C03002010B50020FFF78AFD114A9378DBB2D178C9B21279002A01D18B4210D00D4AD45CE4B20133DBB2FF2B00D10023084A93701379002B06D00022054B1A71C1
:4018400002E0064B1C78E4B20020FFF75FFD201C10BDC0469C030020E804002040000F4010B50020FFF75CFD174A9378DBB2D178C9B21279002A01D18B4210D0134AD45C7E
:40188000E4B20133DBB2FF2B00D100230E4A93701379002B12D000220B4B1A710EE00C4B1B78DBB29A0606D50A4A1478E4B21E221A4202D102E0002400E000240020FFF7D7
:4018C00025FD201C10BDC0469C030020E804002060000F4040000F4010B50020FFF720FD124A9378D278DBB2934205D10F4B1B79002B14D0FF2413E00C4A9378D278DBB282
:40190000934205D2094AD37894781C1BE4B207E0064AD37894781C1B013CE4B200E000240020FFF7F3FC201C10BDC0469C03002010B5164BD9799A79D2B2914205D2531EEB
:40194000CB1A5C426341DBB204E08B1AFE3B5C426341DBB2002BECD18A4206D10C4B1B785B0702D40B4B18700EE0FF2900D10021094B58540131054BD971054B1B789B073E
:4019800002D50220FFF7D6FC10BDC0469C03002061000F4041000F40E805002038B5084B5B78002B05D109E0FFF7C2FF0134A4B201E0051C0024285D0028F5D138BDC046B4
:4019C0009C0300201A4B1B78DBB21E221A4204D018481A4001780A4302702022134024D0154A1178C9B2154A1278D2B214488154144A1278002A02D00121134A11700F497B
:401A00000A780132D2B20A700A78D2B2FF2A02D100210A4A1170094A12780C490978D2B28A4202D10121074A1170002BCAD1704760000F409C03002040000F409F030020F5
:401A4000E8040020A0030020A10300209E03002013E0104B1B78DBB2FF2B02D100220D4B1A700C4A1378DBB20B49CB5CDBB20B490B7013780133DBB21370064B1B78DBB21E
:401A8000074A1278934203D0064B1B785B07E0D57047C046A2030020E805002041000F40A303002061000F40014B58647047C0460000002010B5041C00F078F8044A116822
:401AC000044B0B40A4031C43146000F073F810BD00E400E0FF3FFFFF0222014B1A60704700E100E00222014B1A60704780E100E010B5041CFFF7F6FF201CFFF7D5FF002070
:401B0000FFF7D8FFFFF7E8FF10BDC046034A1368802109060B4313607047C0464000024004490A68FB231A408000F73B18401043086070470000044004490A68BF231A40BE
:401B400080017F3B18401043086070470000044004490A68F7231A40C000EF3B184010430860704700000440044A11687F230B40C001C0B2184310607047C046000004403E
:401B800004490A68FD231A404000FB3B1840104308607047000004400230800804D0C0460138FDD1C046C046C0467047EFF3108072B6704780F310887047C046C046C046DF
:401BC000002243088B4274D303098B425FD3030A8B4244D3030B8B4228D3030C8B420DD3FF22090212BA030C8B4202D31212090265D0030B8B4219D300E0090AC30B8B4274
:401C000001D3CB03C01A5241830B8B4201D38B03C01A5241430B8B4201D34B03C01A5241030B8B4201D30B03C01A5241C30A8B4201D3CB02C01A5241830A8B4201D38B0234
:401C4000C01A5241430A8B4201D34B02C01A5241030A8B4201D30B02C01A5241CDD2C3098B4201D3CB01C01A524183098B4201D38B01C01A524143098B4201D34B01C01AA9
:401C8000524103098B4201D30B01C01A5241C3088B4201D3CB00C01A524183088B4201D38B00C01A524143088B4201D34B00C01A5241411A00D20146524110467047FFE705
:401CC00001B5002000F0FCF802BDC0460029F7D003B5FFF775FF0EBC4243891A1847C04603460B437FD4002243088B4274D303098B425FD3030A8B4244D3030B8B4228D3BF
:401D0000030C8B420DD3FF22090212BA030C8B4202D31212090265D0030B8B4219D300E0090AC30B8B4201D3CB03C01A5241830B8B4201D38B03C01A5241430B8B4201D35D
:401D40004B03C01A5241030B8B4201D30B03C01A5241C30A8B4201D3CB02C01A5241830A8B4201D38B02C01A5241430A8B4201D34B02C01A5241030A8B4201D30B02C01A71
:401D80005241CDD2C3098B4201D3CB01C01A524183098B4201D38B01C01A524143098B4201D34B01C01A524103098B4201D30B01C01A5241C3088B4201D3CB00C01A5241B5
:401DC00083088B4201D38B00C01A524143088B4201D34B00C01A5241411A00D201465241104670475DE0CA0F00D04942031000D34042534000229C4603098B422DD3030AB1
:401E00008B4212D3FC22890112BA030A8B420CD3890192118B4208D3890192118B4204D389013AD0921100E08909C3098B4201D3CB01C01A524183098B4201D38B01C01A3B
:401E4000524143098B4201D34B01C01A524103098B4201D30B01C01A5241C3088B4201D3CB00C01A524183088B4201D38B00C01A5241D9D243088B4201D34B00C01A5241EC
:401E8000411A00D20146634652415B10104601D34042002B00D54942704763465B1000D3404201B5002000F00BF802BD0029F8D003B5FFF715FF0EBC4243891A1847C0461E
:401EC0007047C0468446101C62468C46191C634600E0C0461FB500F033FF002801D40021C8421FBD10B500F077FE4042013010BD10B500F025FF002801DB002010BD012062
:401F000010BDC04610B500F01BFF002801DD002010BD012010BDC04610B500F0A1FE002801DC002010BD012010BDC04610B500F097FE002801DA002010BD012010BDC046B0
:401F4000F0B5454657464E4694464C000A03C90FE0B488460E1C1903470FC500480A6146490F01436046520A1743C0005A00640D520DDB0F8446984500D1A7E0A01A00288C
:401F800000DC01E1002A3DD163460B4300D0D4E06B0700D188E00F232B40042B00D183E02A1DAA42AD4180236D427F191B043B404646151C002B00D17CE0CC4B01349C4221
:401FC00000D1FDE03A1CCA4BED081A405007640552020543120B640D002112030B0D1B056405120B1A436308C24CF60714401C43640064083443281C211C1CBC90469946C0
:40200000A246F0BDB94B9C42C2D080231B041943382800DDECE01F2800DD21E120220E1C6346121A9640C340334366469640321C561EB24113430A1CC240EB1A9D42B6412A
:402040001D1CBA1A7642971B3B0200D497E07A02560A002E00D1B6E0301C01F0E3F9031C083B1F2B00DDB7E09E40371C28262A1C361AF240161C9D403E439C4200DDB2E093
:402080001C1B621C1F2A00DDD8E01F23291C1C1B331CA540A340D1406C1EA541D64019430D43371C002473E780231B043B40464600D082E78D4BED0878070543FA089C422E
:4020C00032D012036405120B640D85E7A31A002B00DC94E0002A3CD0844A944200D157E7802212041143382B00DC05E163461943481E81410022C8B24019A8429B41051C0B
:40210000D2195B42D7183B0239D5784B01349C4200D14CE10120764A6B083A4028401843D5070543570833E72B1C134348D080231B031A431203120B4EE70138002878D1F7
:402140006346EE1AB5429B417A1A5B42D71A351C7AE7021C0A4300D11AE7013B002B00D0F2E04019A8429B41CA195B42D718051CC9E7131C334300D118E1171C351C4646E3
:402180006B0700D007E795E700287AD1621C5205520D012A00DCFBE06246AA1A9542B6419146781A7242861A320200D493E06246551BAC458041CF1B40423E1A984648E7DD
:4021C0000022002508E7281C01F02CF92030031C083B1F2B00DC47E7283885402E1C00259C4200DC4CE7424AE41A1640371CCFE6634619434B1E99410022CBB21DE7002BCA
:4022000000D0F2E0601C43055B0D012B00DCA4E0364B984200D121E163465C19AC429B41CF195B42FA186408D50725435708041CAEE62E4B9C4200D0EAE6A9E6211C331CC2
:402240001F39CB40191C202A00D182E03F231C1BA64035436E1EB54100270D4300248EE7031C0E1C203BDE40202874D040231B1A99400B1C62461343591E8B410022334301
:40228000DBE6002C50D0194CA24200D1A8E08024240440422743382800DDD9E01F2800DD39E120243E1C241AA640B0462E1CA146C640444626434C46A5406C1EA541C740B3
:4022C00035436046451BCF1BAC45894149427F1A141C9846B8E64B464D46334300D0B8E60026002700240025E4E6C046FF070000FFFF7FFFFFFF0F801F2B5BDC2022081C87
:40230000D21A9040814660469246D8404A4610438146524660469040021C501E8241484610430A1CDA40E7E63C1C2C4358D0C043002851D16046451BAC458041CF1B40422F
:402340003F1A141C98467FE68F4A944200D0CAE61EE600267DE700238CE73B1C2B43002C00D0BDE0002B00D1F5E063460B4300D10EE663465B19AB428041CA1940421718F4
:402380003A0200D4FCE0814A1D1C17400134FFE53A1C2A43002C51D1002A00D085E062460A4303D00F1C65469846F1E50026002700257FE6181C0A1C2038C240202B00D154
:4023C000A7E04020C01A8140081C63461843411E8841104300228FE66B4CA24200D05AE70F1C6546141C9846D2E5002C3AD1381C284371D0DB43002B18D0634882426BD0C8
:40240000382B00DD9DE01F2B00DDA7E020203C1CC01A8440A1462C1C8246DC404846044350468540681E8541DF402543654465459B417F185B42FF18141C64E6002A19D1DD
:4024400062460A4377D00F1C654698464E4C9FE53D436F1EBD410027EDB232E7041C0027002527E64848824236D0802000045B420743C5E762460A4349D08024ED08780734
:40248000FA0824032843224209D0CE08264206D162464F07381CD20810439846321CD200470F1743C500384C72E562460A4300D16EE56246AE1AB5429241781A5242821A54
:4024C000100200D455E66246551BAC458041CA1B4042171A98465BE50F1C6546141C57E5002B34D063460B4311D08024ED087807FA08240328432242D1D0CB082342CED16A
:4025000062464F07381CD20810431A1CC7E71E4C3EE5002059E7041C3E1C203CE640341C20282BD04026301A87403D436F1EBD4100272543C5E680270026FF03124C0025AE
:40254000B8E53D436F1EBD410027EDB26EE70F1C65460D4C1CE50F1C654619E51C1C381C203CE040041C202B0CD04020C31A9F403D436F1EBD410027254357E70027D4E76F
:402580001D1CFCE50027F3E7FF070000FFFF7FFFF0B55F4656464D464446F0B40F0387B098464D003B0BCC0F061C924681469B466D0D01946BD0664B9D4235D080275B4679
:4025C0007F031F43F3009946624BFF00400F9C4607430023BB46002665440093424617035000D20F53463F0B400D904600D172E0574A904267D080235B031F435346554A37
:402600005B0FFF001F43944653460021DB0060444246624092462D1A0E430F2E00D9A1E04D48B600805987465B461E4300D076E000239B469946023308260093CEE7994605
:402640004346BB4601930091009B022B6BD1019B9A46002153460122002789461A403C4B00213F030C0D24053F0B27433B4C1B0527401F437F00D2077F0817434846391C92
:4026800007B03CBC90469946A246AB46F0BD03433ED05B46002B00D19CE1584600F0C2FE2823311C1B1A021C5F46D940083A97400B1C96403B439B46B1460023284D0026A1
:4026C0002D1A00938AE7524603213A43A0D10027002302219CE752463A4315D0002F00D185E1381C00F09EFE021C28215046891A131CC8405146083B99409F400B1C0743DB
:4027000017480021801A83E70027002301217FE700239B4699460133042600935EE703230C2600935AE7032B00D13CE2012B00D0BFE11A1C019B1A400021002300278946DF
:402740008EE700238027994600223F03004B87E7FF07000001FCFFFFB8430000FFFF0F800DFCFFFFBB4500D951E100D14CE14A46039200225C469046013D180E3F023843A6
:402780001B020193030C994603041B0C4946061C201C1F1C0093FFF713FA021C7A4302904946201C171CFFF791FA039B09041B0C19438F420CD9029B8919013B8E4200D99A
:4027C00052E18F4200D84FE1029B8919023B0293CC1B201C4946FFF7F3F9009F834647434946201CFFF772FA039A0B041404240C23439F420DD95A469B19013A9E4200D9A0
:4028000030E19F4200D82DE10222524294469B19E344029ADB1B17045A463A439346019C170C220C101C04925A4611042204120C141C090C7C4305924A4341434743611858
:40284000100C09188C4203D980204002844667440C0C12040804120C3C198118A34200D2E5E000D1DFE01F1B43465C1AA04592415242BF1AB74200D10EE1381C4946FFF7D8
:402880009FF9009B029043434946381C9846FFF71DFA230C0F041F43B8450CD9029BBF19013BBE4200D9FBE0B84500D8F8E0029BBF19023B02934346FF1A4946381CFFF7A5
:4028C0007FF9009B039043434946381C9846FFF7FDF924040904240C214388450CD9039B8919013B8E4200D9DCE0884500D8D9E0039B8919023B03934346C91A029B039A8C
:402900001B04059C1A43100C13049146221C049F1B0C5A4344437B437843E318170CDB199C4203D980246402A44660441C0C12041B04120C00199B18814200D296E000D144
:40294000FCE04A4601231A4391469B4BEB18002B00DC99E04A4652070AD00F2249460A40042A05D00431494592418946524293445A46D20106D55A46904B1A4080239346EB
:40298000DB00EB188E4A934200DD62E64A465946D208490711435A4689465702514601225B053F0B5B0D0A405AE680205A460003024208D0074206D107433F0399463F0B68
:4029C0004246804B4CE65F4607433F033F0B221C7C4B45E600F026FD031C2030272800DC5EE6083B9E400023B346994665E6504600F018FD021C2032272A00DC75E657461F
:402A00000838874000237BE6994500D2AFE65A46594654084A46C8075208024303924A46D2079046A9E60027884500D31CE7019F5A46BC46E044B845BF417F42BF19FF18ED
:402A4000013ABE4206D2BC425FD800D19FE03F1B934609E7B742FAD1019B4345F3D9371B934601E79346D4E60293B1E64A468919013A8E4218D99146814200D061E7019A9A
:402A80009A4200D05DE760E74F4F7F1B382F13DD012253461A404FE601235B42994654E7029308E7039327E788423CD874D0914647E7019B9A4648E71F2F44DC434B4A46A4
:402AC0009C465B466544FA40AB4013434A46AA40151C6A1E95415A46FA402B43171C5A0709D00F221A40042A05D01A1D9A429B415B42FF18131C3A023ED5534601220021E5
:402B00001A40002701238946AAE502235B429C46019AE3449446E04490459B415B429B19DF193F1BA0E6019F4A467C00BC42BF417F42BF19023AC91901949CE7002B95D14A
:402B4000002201929BE75A46214B5B1BDA40202F27D0204B9C465B466544AB4049460B43591E8B411343072200271A4007D00F2200271A40042AB8D17A077F023F0BDB082B
:402B800013439946012253461A40002368E54145BBD89346002767E6019C9C42C3D391466DE70023DAE780275B463F031F433F033F0B019A034B53E5FF030000FFFFFFFE3E
:402BC000FE070000FF07000002FCFFFF1E040000E2FBFFFF3E040000F0B55F464D4644465646F0B41F035C00DB0F99461B4B0E034D00C90F8446360B6D0D8B4690463F0B8F
:402C0000640D9D420CD0154B9C4210D00123A54214D0181C3CBC90469946A246AB46F0BD311C01230143F4D10C4B9C42EED13A430123002AEDD10123A542EAD1BE42E8D17E
:402C4000C445E6D1CB4506D0002DE2D13043031C581E8341DDE70023DBE7C046FF070000F0B5574645464E46E0B40F034E00C90F8A4632491D035C0084463F0B760D9046EC
:402C80002D0B640DDB0F8E420FD08C4239D0002E10D13843414241418946002C27D12A4325D1002000290ED108E0391C01432ED1B44226D0002C0BD09A450DD0534659428B
:402CC00001231943081C1CBC90469946A246F0BD2A43F3D09A45F1D1A642EFDC1ADA504641424841012341421943081CEBE74A46002AE1D058425841012241421143081C3F
:402D0000E1E7291C114302D1002EC2D0D4E702204042D8E7AF42D1D809D00020AF42D2D2504641424841012340421843CBE7C445C4D80020C445F3D3C5E7C046FF070000B8
:402D4000F0B55F464D46444656468046F0B4061C0803000B84462C484C001F035D00C90F640D8B4691463F0B6D0DDB0F844212D0854225D0002C14D161460E437042464160
:402D8000002D35D0002E21D058425841012143420B43181C0EE06146022031430AD1A5420ED0002D12D13A4310D15B46594201231943081C3CBC90469946A246AB46F0BD1A
:402DC000391C02201143F5D1002CD5D09B45ECD1AC42EADC05DBBC45E7D80FD00020BC45E8D2584641424841414201200843E1E73A43C7D10020002EDCD1D6E7C845D4D8DF
:402E00000020C845EDD3D5E7FF070000F0B55F4656464D464446F0B4051C061C080387B099464F00030BCC0F92469B467F0D019467D06C4B9F4236D080205B464003184312
:402E4000C0006B0F1843684B83469C4600239846EE00674400934B4649461D03C90F5B0052462D0B5B0D894600D16EE05D498B4264D080205C4940038C4600210543ED0042
:402E8000500F0543D20063444846FF187B1C9A46009B604002900B430F2B00D9ACE053489B00C3589F465B461D4300D082E00823009300239B46023300269846CBE7029B69
:402EC00001934346022B59D1012400250026019B1C40444B00212D030A0D12052D0B1543434A1B0515401D436D00E4076D082543301C291C07B03CBC90469946A246AB46F3
:402F0000F0BD2B434ED05B46002B00D185E1584600F088FA021C2823291C9B1A161C5846D940083EB0400B1CB54003439B462E1C0023304F0093BF1A98468CE751462943D4
:402F40002ED10025002202219EE75146294323D0002D00D154E1281C00F064FA031C28215046C91A1A1CC8405146083A914095400A1C05431F480021C31A85E7032B00D1CC
:402F8000C2E1012B00D06DE14446019B00251C40E4B2002300269DE700250022012173E7032171E70423009300239B4601330026984650E70C230093093B98464BE78025F3
:402FC00000242D030026074B84E74B46AB46161C0193884675E7029BAB46161C019388466FE7C046FF07000001FCFFFFF8430000FFFF0F800DFCFFFF330C3604360C9C463D
:40300000331C140C1204120C53439846634653439946634663430193331C41466343090C4B445B18994505D9802040028146019949440191190C039141460904090C1B0446
:403040005B1804932B0C9846331C2D04290C4B43604600934346654658435E43009B4D431B0C9946AE194E448446B54203D980235B029946CC44350C2B1C0398634484469B
:403080000593009B36041B041B0CF3189C446046039058460504060C280C84465043351C81466046654344434846000C8346724314195C44A24203D98022520293465D44ED
:4030C000220CAD184A461204120C24044046A41862464A437143464360460096464670438046100C84468844E044414505D9802149028C4600996144009101980399844636
:40310000614499429B415B4299460598434684461204120C1B049B1863449C46AB4683429B4140460A19CC44A2428941E344CC45B6415C46000C8046494276425B42641840
:40314000334398448C428941AB459B4149425B4219430D1C009B4544EE187602E50D2E43B346049B56021E43731E9E415B46D20D324366021643DB010AD5012333407608A0
:403180001E435B46DB071E435B465B089B465746634BFB18002B5ADD720709D00F223240042A05D0321DB242B6417642B344161C5A46D20106D55A465A4B1A4080239346A9
:4031C000DB00FB18584A934234DD0124029B00251C400026554B7DE680205B460003034208D0054206D105432D032D0B4C46161C4E4B6FE65D4605432D032D0B4B4B69E6D4
:40320000504600F00FF9031C2033272B00DCA6E65546083885400022ACE6281C00F002F9021C2032272A00DC75E6083885400026AB467DE65A46F608520716435A460124C5
:403240005502029A5B052D0B5B0D144042E6384DED1B382D0ADD0124029B00251C400026002337E6019B5746029391E71F2D25DC304B321C9C466744BE405B46BB40371C87
:40328000EA407E1EB74113433B431E1C5B46EB401D1C730709D00F233340042B05D0331DB342B6417642AD191E1C2B0220D50124029B00251C40002601230BE65A461E4BA4
:4032C000DB1BDA40131C202D1CD01C4A94465A466744BA40171C3E43721E96411E4307230025334007D00F2300253340042BD6D16B076D022D0B0124F6081E43029B1C4086
:403300000023E7E50027E6E780255B4601242D031D43019B2D0323401C1C2D0B034BD9E5FF030000FFFFFFFEFE070000FF07000002FCFFFF1E040000E2FBFFFF3E040000C1
:403340000B0330B5134C1A0B4B00051C5B0DC90F0020A34210DD104883420EDC80200F4C40030243E41A1F2C0ADD0D48C31ADA40131C48424340581830BD0A4BC818FBE782
:40338000281CE040084CA44663449A40131C0343EFE7C046FE0300001D0400003304000013040000FFFFFF7FEDFBFFFF38B5041E16D0C50F00D04442201C00F033F8174BEF
:4033C0001B1A0A2821DC021C211C153291400A1C0B21081AC4405B052403240B5B0D03E000250023002400220021101C24030A0D1205240B14430A4A1B0514401C4364003C
:40340000ED0764082C43211C38BD0B3884405B052403240B5B0D0022E6E7C0461E040000FFFF0F801C2101231B04984201D3000C10391B0A984201D3000A08391B09984223
:4034400001D30009043902A2105C40187047C0460403020201010101000000000000000008B500210A2200F0F9F808BD014B18687047C046480100200E4B70B500251E1C7F
:403480000D4CE41AA410A54204D0AB00F35898470135F8E701F06CF8084B00251E1C084CE41AA410A54204D0AB00F35898470135F8E770BD7C4500007C4500007C4500003A
:4034C00084450000002310B5934203D0CC5CC4540133F9E710BD031C8218934202D019700133FAE7704700000EB410B59DB002A9029008610B4882248860486101204042F6
:403500001FABC881084804CBA400006801938C8100F012F90023029A13701DB010BC08BC03B01847FFFFFF7F480100200023C25C0133002AFBD1581E70470000F0B51E1CA4
:40354000444B87B01B68059002930B1C039101921C78029A5D1C121950780822104001D02B1CF5E72D2C04D19D1C5C780123009304E000902B2C01D15C789D1C002E02D0E4
:40358000102E0AD160E0302C5CD120222B789343582B52D110266C780235009F311C7B1E9F412D4BFF18381CFEF790FB381C0491311CFEF705FB0022071C131C0299091953
:4035C0004978480701D5303C07E00320084017D03721012800D02031641AB44210DA511C0BD0BB4207D802D1049A944203DC73430122E31801E0012252422C780135DDE7EC
:40360000181C511C0BD10098059A431E9841124BC01822231360019B002B0AD117E00099002900D05842019B002B10D0039B002A00D06B1E019A136009E03024002EACD12C
:403640000826AAE70A26A8E7302CA6D19DE707B0F0BDC0464C010020FFFFFF7F38B5051C0C1C131C034A291C1068221CFFF766FF38BDC04648010020F0B58E6885B0071CC3
:403680000C1C03920193B34245D390238A89DB001A423DD003250969236801985B1A029363695D43EB0F5D19029B6D1001331B189D4200D21D1C381C53050FD5291C00F0CE
:4036C0001DFB061E13D0029A2169FFF7FBFEA289184B134080221343A38111E02A1C00F065FB061E0CD1381C216900F0C1FA0C23402201203B60A38940421343A38117E01C
:40370000029B2661F61826606561019EED1AA560019BB34200D2019E321C2068039900F092FA0020A3689B1BA36023689E19266005B0F0BD7FFBFFFFF0B59FB002900593CC
:403740008B890E1C171C1B0610D50B69002B0DD1402100F0D3FA30603061002804D10C23029A01381360D0E040237361002306AD6B6120336B761033AB763C1C2378002B63
:4037800003D1E31B049312D003E0252BF9D00134F4E7049B0298311C3A1CFFF76DFF431C00D1ACE06A69049B944663446B612378002B00D1A3E00122002352426A6002A990
:4037C0005432521801342B60EB60AB601370AB654F4F2178381C052200F02AFA002808D0C01B01278740381C2B68013418432860EEE72B68DA0604D55322202102A81218F6
:4038000011701A0704D553222B2102A81218117022782A2A01D0099B0EE0059A111D12680591002A01DB099204E05242EA60022213432B60013409E02278303A092A04D830
:403840000A214B4301349B18F6E7099323782E2B18D163782A2B09D1059B02341A1D1B680592002B0DDA01235B420AE0002301342278303A092A04D80A214B4301349B1857
:40388000F6E70793234F2178381C032200F0D0F9002807D0C01B40278740381C2B6801341843286021781C480622671C297600F0BFF9002812D0194B002B06D10722059B25
:4038C000073393430833059314E005AB00930298291C321C124B00E000BF07E005AB00930298291C321C0E4B00F08AF80390039B013304D06B69039A9B186B613DE7B389DA
:403900000B985B0601D5012040421FB0F0BDC0463B45000041450000454500000000000079360000F7B5171C01930A698B6800900C1C934200DA131C221C3B604332127802
:40394000002A01D001333B6023689B0602D53B6802333B60062523681D401ED0231C43331B785A1E9341226892061CD53020E1184031C870211C5A1C45310978A218403297
:403980000233D1700FE0221C0123009801991932089EB047431C0ED00135E3683A689B1A9D42F0DBDAE7221C009801994332089DA847431C02D10120404220E006232068A7
:4039C000E1683A6803400025042B03D18D1AEB43DB171D40A3682269934201DD9B1AED180027AF420ADA221C0123009801991A32089EB047431CDED00137F2E70020FEBDD8
:403A0000F0B58BB006920A1C43320793059004920A7E0C1C109B6E2A00D1A8E011D8632A22D009D8002A00D1B2E0582A00D0C2E045310A707C4A4FE0642A1DD0692A1BD0BA
:403A4000B9E0732A00D1A7E009D86F2A29D0702A00D0B0E0202209680A43226037E0752A1FD0782A33D0A6E00E1C1A684236111D196013683370A1E021681A68080606D49C
:403A8000490604D5111D19600023D55E02E0111D19601568002D3BDA2D23049A6D42137036E021681A68080606D4490604D51568111D1960ADB202E0111D196015685A4B1A
:403AC000227E03930A276F2A1DD108271BE0221C782145321170554A19680392081D226818600D68100602D4500600D5ADB2D30702D520231A4322601027002D03D12023CA
:403B000022689A432260231C002243331A7002E00A27454B03936368A360002B03DB0422216891432160002D02D1049E002B0ED0049E281C391CFEF7C9F8039B013E5B5CF7
:403B4000281C3370391CFEF73BF8051EF1D1082F09D12368DB0706D563682269934202DC3023013E3370049B9B1B23612BE009681A68080607D4490605D5111D196013685A
:403B8000A28A1A8004E0111D1960136862691A600023049E236116E01A68111D196016680021301C626800F043F8002801D0801B6060636803E0261C4236327001232361A6
:403BC0000023049A1370079B05980093211C069B09AAFFF7A7FE431C02D10120404221E0236905980699321C079DA847431CF4D023689B0705D4099BE068984212DA181CF5
:403C000010E00025E368099A9B1A9D42F3DA221C0123059806991932079EB047431CDCD00135EFE70BB0F0BD4C4500005D450000C9B28218904204D003788B4202D00130E3
:403C4000F8E70020704710B5814208D28B18984205D29B1A013A09D3995C8154FAE70023934203D0CC5CC4540133F9E710BD000030B500293ED004390B68002B00DAC918C3
:403C80001D4A1368141C002B02D14B60116031E099420DD208680A189A4203D11368C3180B6053684B60216024E08A4203D8131C5A68002AF9D11D685C198C420BD109687E
:403CC000691858181960904214D110685268091819605A600EE08C4202D90C23036009E008680C18944203D114685268001908604A60596030BDC046AC030020032370B5A6
:403D0000CC1C9C430834051C0C2C01D20C2405E0002C03DA0C2300202B6042E08C42F9D3204A1368101C191C002913D00A68121B0DD40B2A02D90A608B181FE08B4202D112
:403D40005A6802601BE04A685A600B1C17E00B1C4968E9E7144E3368002B03D1281C00F04BF83060281C211C00F046F8031C421CD0D00322C61C964386420AD11C60181CF0
:403D800007210B301A1D8843821A0AD05142995007E0311A281C00F02FF8431CBAD0331CECE770BDAC030020A8030020F8B5061C0C1C151C002904D1111CFFF79FFF041C46
:403DC00018E0002A03D1FFF753FF2C1C12E000F025F8A8420ED2301C291CFFF78FFF071E07D0211C2A1CFFF76DFB301C211CFFF73FFF3C1C201CF8BD38B50023064C051CF9
:403E0000081C2360FDF7AEF8431C03D12368002B00D02B6038BDC046E80600200B1F1A68101F002A04DA891804390B68D018043870470000000000004D6F6D20557365204F
:403E400054686973204F6E65000000004C61696D6F6E6173697374686562657374313233343500003139322E3136382E312E3131370000002B495044000000004D256325D9
:403E8000640000004D256330256400004D256330302564005725632564000000572563302564000057256330302564004C256325640000004C256330256400004C2563309C
:403EC00030256400422563256400000042256330256400004225633030256400542563256400000054256330256400005425633030256400257325732573257325730000C9
:403F000041542B43495053454E443D25640D0A006C696E6B0000000041542B43495053544152543D22544350222C222573222C25640D0A004F4B000041542B434950434C05
:403F40004F53450D0A00000041542B5253540D0A0000000041542B43574D4F44453D330D0A00000041542B43574A41503D222573222C222573220D0A000000004747000072
:403F8000576F726B732E2E2E000000005072696E7420616C6C0000004D6F6973743A256420526F746174653A2564204375724D6F6973743A25642043757257617465723A3A
:403FC000256420437572426174746572793A25642043757254656D703A2564204375724C696768743A25640D0A0000005072696E742073656E736F72000000005570646140
:4040000074652073656E736F7200000080300F40800300400F40000400300F40EC4200008000000003000F403B300F404A310F4069320F4050330F400B400F4005410F40EA
:4040400002600F408038810F83768110849285148625884889098A258B10911C93029403954096FC970398E3990C9A1C9B119C259EDAA01FA2E0A4E3A520A61CA910AB0C63
:40408000ACE0AE1CB2FFB31FB520B740BE04BF50C063C102C50BC6E0C7C0C829C9FFCAFFCBFFCEF0CF44D00CD401D604D804D904DA04DB04DC10DD11DF01E6C0EA40EB0212
:4040C0000008018804200508084009010A180B0A0C440D080E040F041128120214801581170418011A181B101E2021A12208254026042708288429042C202E082F043140FC
:404100003220338436063721382039803B053E103F0A400143284514472049444A084F28522054205501570259015C405D205F0A6002612062016602780279028E01C06570
:40414000C2EFC4B7CA67CCEECEEFD06ED22CD6F1D88DE640003D02C00308040D06F007A308CD09E10A300B160C550EA8115C1201138315E11602170E18A81A541CC01E3050
:4041800024CD26302B1C2F8030033180336034FC351A370F39083A083BA03F054002454049FF4A0F4BFF4C404D204EF04F055008580459045A045C115D015F01604061A864
:4041C0006240632082F3841C851086E3880F89088AF08C418D4090C39140931895A7960C97189882993C9B829F04A0F3A20CA303A408A53CA781A804A9BFACFFAD04B0C0C4
:40420000B120B22CB360B40FB51FB61CB780B988BA28BB20BF01D602D713D804D904DB04DC11DD10DF01018202640580076409280A400D600E6012801354150819051A08C5
:404240001BA01C081D201E401F0921082231232124402510271929862A042B082E102F023180321637093A803B143F2A47104F02550457045A0269896A046B447280731499
:404280008A808B688D088E029210944095819604970399809A409D019F05A180A210A312A404A51CA7A9A810A9A1AA02AE08AF02B140B248C0FFC2FEC42FCA3FCCCFCEEED4
:4042C000D020D601EE200A402F8066806F9071108F10C210CA80D680DA80DC60A910AA40B280E820EE20100A1101000000000002000480080000001000048008030004009B
:404300000004080813000C0200004001000C000020000501130404080A0014000001300C0F02C010080020000000401126030500010CE00009FFFFFF62A0F0410C0000009D
:40434000180004000404040411110001000000000000400200103010001010120000000000000000000000000000000000000000000000000000000000000000000000002A
:404380000007040605000000030405060708090A0B0C0E0F101112131415161718191B1C1D1E1F2021222325262728292A2B2E2F30313233343500006427000052260000F4
:4043C000382700003E2600003827000042270000382700003E2600005226000052260000422700003E260000482600004826000048260000AA290000F82F0000D62F000069
:40440000D62F0000CA2F0000BE2E0000BE2E0000BE2F0000CA2F0000BE2E0000BE2F0000BE2E0000CA2F0000C22E0000C22E0000C22E0000D8310000430000202020202046
:4044400020202020282828282820202020202020202020202020202020202088101010101010101010101010101010040404040404040404041010101010101041414141A0
:4044800041410101010101010101010101010101010101010101101010101010424242424242020202020202020202020202020202020202020210101010200000000000F2
:4044C00000000000000000000000000000000000000000000000000000000000000000000000000000000000000000000000000000000000000000000000000000000000BC
:404500000000000000000000000000000000000000000000000000000000000000000000000000000000000000000000000000000000000000000000000000232D302B20B0
:4045400000686C4C0065666745464700303132333435363738394142434445460030313233343536373839616263646566000000F8B5C046F8BC08BC9E4670474D020000FE
:40458000DD0F0000F8B5C046F8BC08BC9E46704725020000A8450000C800002088000000A00500000000000000000000062D0000F00600200000C05D80BB0000300000004F
:4045C000006CDC02040404000000000000000000000000000000000000000000000000000000000000000000384400000000000000000000000000000000000000000000E9
:4046000000000000000000000000000000000000000000000000000000000000000000000000000000000000E80000203A44000000000000000000000000000000000000F4
:40464000000000000000000000000000000000000000000000000000000000000000000000000000000000000000000000000000000000000000000000000000000000003A
:4046800000000000000000000000000000000000000000000000000000000000000000000000000000000000000000000000000000000000000000000000000000000000FA
:4046C00000000000000000000000000000000000000000000000000000000000000000000000000000000000000000000000000000000000000000000000000000000000BA
:404700000000000000000000000000000000000000000000000000000000000000000000000000000000000000000000000000000000000000000000000000000000000079
:0200000490303A
:02000000A83224
:0200000490402A
:200000000000000000000000000000000000000000000000000000000000000000000000E0
:0200000490501A
:0C000000000204C81193110104DEB9C510
:0200000490600A
:0100000001FE
:00000001FF