:400000000010002011000000910F0000910F000008B500F0D7FFC04638B5154C23688025ED022B432360302001F00CFA1022114B1A601032104B1A601032104B1A60822237
:4000400012060F4B1A6025600E4A0F4B1A600F4A0F4B1A600F4A104B1A6009200F4901F097F9092001F06AF900220D4B1A6038BD00010B401C020240340202403C0202407C
:4000800008010B4002000080000002403801008040000240DF2E008080000240551600000C020B4038B572B60122404B1A70002410E03F4863001A195200821891881B1923
:4000C0005B001A5AC31858880004104300F0DCFF0134E4B2022CECD9002412E0344DA3001A195200AA18918AD08A00040843131C128B598B09041143802200F0CBFF0134AF
:40010000E4B2002CEAD02A49081C2030403100F0A1FFA0221201274B1A800122264B1A70264A274B1A60EE221202264B1A60264A264B1A6080229204254B1A600222254BE0
:400140001A6099231B04244A1360244A1360244A13600F22234B1A60093A234B1A60234B1978043A0A431A70214802783C218A4328390A430270197816220A431A7021221F
:400180001C4B1A601C4A1D4B1A6080221C4B1A60F1231C4A13601C4A13601C4A1C4B1A60FFF73AFF00F08AFF38BDC0461C700F409859000000600F4002600F400300300084
:4001C000000001400C0001400404390000500F4004500F4008500F4010500F4020500F4030500F402000004000800F4000700F4001700F400000044036101B00080004406B
:40020000180104400002044018020440B66D00000803044010B5064C2378002B07D1054B002B02D0044800E000BF0123237010BD58010020000000000058000008B5084BF9
:40024000002B03D00748084900E000BF07480368002B00D108BD064B002BFBD09847F9E700000000005800005C010020C80000200000000008B562B6024801F06BFA00F09E
:4002800003F808BD0D03000010B584B000F0F2FF01F000F814481549154A00F0E3FD01AC201C00F0A3FA01986168A26800F0BCFC0304104A10701B0E0F4A1370000C507086
:4002C0000021625E934207DB00F0C4FAFA20800001F096F800F0C4FA074B587800F000FE064801F08DF8DAE7085800000C58000018580000CC000020740100207017000020
:40030000014B002018567047CC00002010B5294B1C78312C09D8002000F0C6FF6400264BE052244A137801331370224B5C78312C09D8032000F0B8FF6400204BE0521D4AF8
:400340005378013353701B4B9C78072C0DD8022000F0AAFF011C022000F0BCFF6400184BE052144A937801339370124BDC78072C0DD8012000F098FF011C022000F0AAFFA2
:400380006400104BE0520B4AD3780133D370094B1C79072C0DD8042000F086FF011C022000F098FF6400084BE052024A13790133137110BD7601002050040020DC03002085
:4003C000BC030020CC0300204004002038B53A4B1B78322B6CD1394B1888041C01230EE05A003649525A15B201B28D4203DB21B2A94202DB02E0101C00E0141C0133312BE1
:40040000EEDD24B200B2201A2D4C6043FA21890002F0D2FD80B202B22A4B9A4215DD101C04F0AAFC0022284B03F01EFA274A284B03F058FE274A284B02F0EEFE0022274B9C
:4004400003F050FE041C0D1C14E000B204F094FC00221D4B03F008FA214A224B03F042FE214A224B02F0D8FE00221C4B03F03AFE041C0D1C201C291C0022002302F0A4FE47
:40048000002808D1201C291C0022144B02F0B0FE002803D104E00024002501E000240F4D201C291C04F032FC034B00221A70D880014B0620185E38BD760100205004002032
:4004C00026030000A504000000408F40DEB06D516683B4BF19E25817B7D1C83F000059407BDAE1AFC99A02C0C3F5285C8FC2074038B53A4B5B78322B6CD1394B1888041CE0
:4005000001230EE05A003649525A15B201B28D4203DB21B2A94202DB02E0101C00E0141C0133312BEEDD24B200B2201A2D4C6043FA21890002F040FD80B202B22A4B9A4201
:4005400015DD101C04F018FC0022284B03F08CF9274A284B03F0C6FD274A284B02F05CFE0022274B03F0BEFD041C0D1C14E000B204F002FC00221D4B03F076F9214A224B97
:4005800003F0B0FD214A224B02F046FE00221C4B03F0A8FD041C0D1C201C291C0022002302F012FE002808D1201C291C0022144B02F01EFE002803D104E00024002501E040
:4005C00000240F4D201C291C04F0A0FB034B00225A701881014B0820185E38BD76010020DC030020260300005C04000000408F407DCEDDAE97A6CCBF98C0ADBB79AAE23FE9
:4006000000005940D8BB3FDEAB56F1BFC39E76F86BB2F83F08B5134B9B78082B08D000201EE050001049415ACB189BB2013201E000220023072AF4DD18B2C3100B4A9818D5
:4006400004F09AFB0A4A0B4B03F04CFD04F05EFB031C0021034A917080B21B0400D5002000B208BD76010020BC0300208EF9FFFF79E9263108AC8C3F284BDB78082B08D06F
:40068000002048E050002649415ACB189BB2013201E001220023072AF4DD1BB2DB10214A944663449AB220498B421EDC13B21F498B421CDC1E498B421BDC3C398B421ADC97
:4006C0001C498B4219DC1C498B4218DC1B498B4217DC3C398B4216DC19498B4215DC1A1E184B9A4213DD0A2012E0642010E05A200EE050200CE046200AE03C2008E0322094
:4007000006E0282004E01E2002E0142000E005200022024BDA7000B27047C04676010020CC030020B2070000E40C0000A80C00006C0C0000F40B0000B80B00007C0B000082
:40074000040B0000C80A000038B51E4B1B79082B08D0002033E059001B4A8A5A101880B2013301E000230020072BF4DD00B2C01004F002FB041C0D1C00201449221C2B1C5B
:4007800003F04AFF021C0B1C201C291C03F06CF80F4A104B01F02CFA0F4A104B03F0A2FC00220F4B03F060F804F0B0FA80B202B20C4B9A4200DD0C480022024B1A7100B275
:4007C00038BDC046760100204004002000C8A940C74B37894160F33FFA7E6ABC74BA814000002440E6030000E703000010B5041C174B00221A705A709A70DA701A71FA2033
:40080000400000F0FDFD124B5B78322B0FD0104B1B78322B0BD00E4B9B78082B07D00C4BDB78082B03D00A4B1B79082BEBD1FFF7CDFD2080FFF720FF6080FFF785FFE080CF
:40084000FFF7E8FE2081FFF753FEA080201C10BD7601002008B5012000F04EFF08BDC04608B5002000F048FF08BDC04638B5144B1B78002B22D101F053F8051C00241AE0B7
:4008800000F0E4FF002807D00A2805D00D2803D00C4B1B78FF2B08D10A4A1378D31800221A710132064B1A7008E0064AD11808710133137001346B1CA342E1DC38BDC0463B
:4008C000B40400208001002008B5FFF7CFFF08BD10B5114B1B78002B1CD0041CFFF7C6FF002307E00D4AD2181179E154002111710133DBB2094A12789342F3D3A2180023D0
:400900001370064A1370044A1370201C04F0F4FAC0B200E0002010BDB40400208001002070B5051C04F0E8FAC6B2002408E02B5D834204D10134E4B2B44201D305E000245A
:4009400000F0B2FF0028F2D100E0012070BDC04600B5C1B0021C0B1C68460B4904F0AAFA684601F03FF8094800F04AFD0848FFF7D7FF002804D0642000F042FD012000E088
:40098000002041B000BDC04628580000881300004058000000B5C1B0021C68460B490C4B04F088FA684601F01DF8FA20800000F027FD0848FFF7B4FF002804D0642000F0D2
:4009C0001FFD012000E0002041B000BD44580000B82200004058000010B5C0B0041C04F08BFA0204120C68461B4904F063FA684600F0F8FF642000F003FD1848FFF790FFBB
:400A000000281ED09620400000F0FAFC1448FFF7C1FF002811D01348FFF782FF0028FAD1684600F0DFFF642000F0EAFC201C00F0D9FF01220C4BDA700CE000220A4BDA7099
:400A400008E0642000F0DCFC201C00F0CBFF0122054BDA7040B010BD605800007058000018580000405800008002002070B584B0051C0E1CFFF72CFF1D4B1A6802921A79D2
:400A800002AB1A71002306E002AAD15CEA5C914228D10133DBB2032BF6D9002403E001AA13550134E4B2631DEB5C3A2BF7D101A80023035504F0BAF9C1B2002914D00634EE
:400AC000E4B2002304E01A19AA5CF2540133DBB28B42F8D3FF2318402418361900233370081C02E0002000E0002004B070BDC0467858000070B584B0002303E0C15C01AAB2
:400B0000D1540133022BF9DD002304E0C218D2786946CA540133022BF8DD01A80023C3706A46D37004F082F9C4B202AE7470684604F07CF9C5B2B5700A3C5A2C05D9002241
:400B400002AB5A700C4800F04DFFC82D05D9002202AB9A70094800F045FF02A90888030A1B02FF2202401A438878030404481040184304B070BDC04680580000B45800004F
:400B8000FFFF00FF10B5C4B0041C254BDB785BB2012B2DD1201C03A9FFF768FF0028F9D003AB5C78002305E09A1C03A9895C01AAD1540133022BF7DD002306E0DA1CD91DE4
:400BC00003A8405C01A988540133022BF6DD002201AB9A71181CFFF78DFF030A6A465370303C147043AB12881A80000C98700BE0FFF786FB6B46187000236A46537043ABA0
:400C000012881A8000229A7043AB5A781202187802439878030403481040184344B010BD80020020FFFF00FF10B5BEB005900691079284B223B2632B08DDFFF761FB021C58
:400C400023B219A8734904F035F918E0A2B2131C0A3B9BB2592B08D8FFF752FB021C23B219A86D4904F026F909E0092A07D8FFF747FB021C23B219A8684904F01BF905AB7F
:400C80009C8822B2632A08DDFFF73AFB021C23B215A8634904F00EF918E0A3B21A1C0A3A92B2592A08D8FFF72BFB021C23B215A85C4904F0FFF809E0092B07D8FFF720FB71
:400CC000021C23B215A8584904F0F4F805ABDC8822B2632A08DDFFF713FB021C23B211A8524904F0E7F818E0A3B21A1C0A3A92B2592A08D8FFF704FB021C23B211A84C49A7
:400D000004F0D8F809E0092B07D8FFF7F9FA021C23B211A8474904F0CDF805AB5C8822B2632A08DDFFF7ECFA021C23B20DA8424904F0C0F818E0A3B21A1C0A3A92B2592AF2
:400D400008D8FFF7DDFA021C23B20DA83B4904F0B1F809E0092B07D8FFF7D2FA021C23B20DA8374904F0A6F805AB1C8923B2632B08DDFFF7C5FA021C23B209A8314904F021
:400D800099F818E0A2B2131C0A3B9BB2592B08D8FFF7B6FA021C23B209A82B4904F08AF809E0092A07D8FFF7ABFA021C23B209A8264904F07FF811AB009309AB01930DAB9A
:400DC00002931DA8224919AA15AB04F073F81DA8FFF702FE1F480430FFF7D4FE08AC2070030A6370000CA0701B4800F009FB1B4800F0F8FD642000F003FB2088030A1B020B
:400E0000FF2202401A43A07803041548104018433EB010BDE8580000F0580000F8580000005900000859000010590000185900002059000028590000305900003859000090
:400E4000405900004859000050590000585900006059000080020020C40900006C590000FFFF00FFF8B5061C0D1C171C174800F063FE00F0DBFC164800F0B4FDFA246400D1
:400E8000201C00F0BDFA134800F0ACFD124800F0B7FA124800F0A6FD201C00F0B1FA002406E0301C291CFFF753FD002802D10134022CF6DD642000F0A3FA381CFFF76AFDC8
:400EC000FA20400000F09CFAF8BDC046C90800006C5900007C590000B80B00008859000010B5041C294B1B88002B02D10122274B1A80002C47DA002445E0244B00229B5EFF
:400F0000012B08D1012000F02FFE0A2000F078FA002000F029FE1D4B00229B5E022B08D1012000F02DFE0A2000F06AFA002000F027FE164B00229B5E032B08D1012000F09F
:400F40002BFE0A2000F05CFA002000F025FE0F4B00229B5E042B08D1012000F029FE0A2000F04EFA002000F023FE084B1B881AB2042A03D1033A054B1A8002E00133034A0F
:400F80001380013C24B2002CB7D110BDB8030020FEE7C04608B5031C084A1068C318084A9A1A802A02DC054A136005E003F044FF0C2303600120404208BDC046D000002068
:400FC000E006002070B50F4E0F4D13E029686B68AC68002202E001C901C30432A242FAD1E868002202E0002102C304328242FAD11035013E002EE9D103F024FFFFF73AF981
:40100000FEE7C046010000005C5F000008B500230AE0032B03D89A000A49505800E00A4899000A4A885001332F2BF2D9FFF73AF80022074B1A608022D205116801230B43D7
:40104000136008BD00000000910F000000000020C0000020F0B50025002711E0BB00C658F3B2FF22964308E06A008A181478A419527822700135013BDBB2002BF4D101377E
:40108000072FEBD9F0BDC04608B50A1C002103F008FF08BD08B503F0FBFE08BD064B1B68002803D080221206134301E05B005B08014A13607047C04680031A4008B5F123AB
:4010C000034A1360034A13600120FFF7E7FF08BD00031A4040031A4010B50E20032100F069F90E203F4900F053F91F223E4B1A603E4B1B68002B01DA3D4900E03D493E4A8F
:4011000013680B4313603D4A3D4B1A603D4A3E4B1A6000233D4A13603D4A3E490A603E490A603E4A13603E4A136001223D4B1A6001323D4B1A603D4A11683D4B0B40C021D6
:4011400089040B431360002449E03A49A2005058DC239B0103400919097D0B4336498C4662441360C30708D52C49086880225202131CA3401B0C03430B60A3002D4A9B5850
:401180009B0708D52649086880225202131CA3401B0C03430B60A300264A9B589A0502D58020C00001E080204001DB0506D443085B429BB262002149535203E0630000218C
:4011C0001E4A99521E4B58431E4B9C4660441E4901F0F2FE00B2A2001C4BD0500134042CB3D910BD3113000020001A4080031A40E02E1010E02E001000001A408D0000807A
:4012000004001A400000FF0718001A401C001A400200020010001A4014001A4028021A4038021A4018021A40000F1A4030001A40FFFFFFDFEC5C000080001A40B80400202D
:401240001027000072060000E40C0000C404002008B5074B1B68002B08DB054A1368802109060B4313600A2000F0E2F808BDC04600001A4008B5064B1B78002B04D1FFF75C
:401280002BFF0122024B1A70FFF7E2FF08BDC04684030020034A1368802149020B4313607047C04604001A4010B5041E042C02D9002000F06BF8042C07D8A400044B9C46E8
:4012C000644420680004000C00E0002000B210BD80011A4038B5041C0D1C042802D9002000F054F863000F4A995A691A09B20E48021C4A43002906DDA3000C495B58D80F2F
:40130000C018431006E0A30008495B58D80FC3185B105B42D018A400044BE15801F04CFE00B238BDB804002010270000C4040020014B1A681A60704710021A401F23184035
:401340001E3B8340181C014B1860704700E100E01F2318401E3B8340181C014B1860704780E100E01F2318401E3B8340181C014B1860704700E200E01F2318401E3B83405E
:40138000181C014B1860704780E200E001BE704738B5041C0D1C1F2802D90020FFF7F6FFA400034B9C4664442068256038BDC0464000002070B5041C0E1E032E02D90020E2
:4013C000FFF7E4FF1F2C02D90020FFF7DFFF03252540ED00063500F001FCA408A400074B9C46644423680322AA409343AE40351C1D43256000F0F6FB70BDC04600E400E0C0
:4014000010B5041C06E0084B186800F0DDFB074B9C46644480231B029C42F4D8024B5868604300F0D1FB10BDD40000200080FFFF08B5034B1B7A584300F0C6FB08BDC0469E
:40144000D4000020F0B557464E46C0B483B0041C00F0C4FB0190E71E2D2F74D83F4B1B78DBB2A34208D33E4B1B78DBB29A463D4B1B78DBB2994631E03B4B1B78DBB2A342D8
:4014800008D33A4B1B78DBB29A46394B1B78DBB2994623E0374B1B78DBB2A34208D3364B1B78DBB29A46354B1B78DBB2994615E0334B1B78DBB2A34208D3324B1B78DBB2F4
:4014C0009A46314B1B78DBB2994607E02F4B1B78DBB29A462E4B1B78DBB299462D4BDE5D2F2E09D92A2C07D919222B4B1A60052000F06AFB192503E0274B1D683F231D4014
:40150000AE4206D2234BDA5D234B1A60052000F05BFB1F4B9C4664442378DBB21F4A13601F4B52461A601F4B4A461A600520FFF77FFFAE420AD9174BDA5D174B1A600520FD
:4015400000F042FB02E00020FFF720FF019800F049FB03B00CBC91469A46F0BDC0F1FF0FC1F1FF0FC2F1FF0FC3F1FF0FC4F1FF0FC5F1FF0FC6F1FF0FC7F1FF0FC8F1FF0FA0
:40158000C9F1FF0FCAF1FF0FCBF1FF0FCCF1FF0FCDF1FF0F085D00002CFF0B4028FF0B401CFF0B4020FF0B40034B1868C0231B02184000D00120704700010B4008B500F055
:4015C0000DFB044A1368C02109020B43136000F009FB08BD00010B4010B500F0FFFA08490A68084B1A408024E40122430A600A6813408022120213430B6000F0F3FA10BD0C
:4016000000010B40FF3FFFFF70B5061C00F0E6FA041CFFF7C9FF002803D0FFF7DDFF012500E000250848331C0340084A106808490840184310601368012D01D1FFF7BEFFF7
:40164000201C00F0CFFA70BD0404040010020B40FBFBFBFF10B5244B1B685B0715D5234B1B685B070ED5224B9969042001401F4C22688A4322609A6982439A61DB68002B6D
:4016800000D098470420FFF7BFFF174B1B685B0518D5164B1B685B0510D5154B99698022D2001140114802688A4302609969114A0A409A611B69002B00D098478020C000CF
:4016C000FFF7A2FF084B1B685B030CD5074B1B685B0304D5064B5B69002B00D098478020C002FFF791FF10BD10020B40E400002088030020FFFBFFFF04490A68FD231A4051
:401700004000FB3B184010430860704700000440014BD8647047C0460000002010B5041C00F05CFA044A13689B009B08A4071C43146000F057FA10BD00E400E00822014BC8
:401740001A60704700E100E00822014B1A60704780E100E010B5041CFFF7F6FF201CFFF7D7FF0120FFF7DAFFFFF7E8FF10BDC04608B500201049FFF70BFE00200321FFF7A8
:4017800019FE00220D4B1A7076320D4B1A70563A0C4B1A7002200C49FFF7FAFD02200321FFF708FE0E22094B1A708132084B1A708D3A084B1A7008BD0D1A0000A403002078
:4017C00080000F4083000F40991A000021000F4031000F4082000F4038B500F0FFF9051C0F4A117820230B4313700E4A137810242343DBB213700020FFF7A0FD0A4B1A78C1
:401800001443E4B21C700220FFF7B6FD0220FFF795FD00F09FF9281C00F0E4F938BDC04690000F4093000F4092000F4008B5064B5B78002B04D1FFF79BFF0122024B5A70D9
:40184000FFF7CAFF08BDC046A403002010B50020FFF77EFD114A9378DBB2D178C9B21279002A01D18B4210D00D4AD45CE4B20133DBB2FF2B00D10023084A93701379002BCE
:4018800006D00022054B1A7102E0064B1C78E4B20020FFF753FD201C10BDC046A4030020D804002043000F4010B50020FFF750FD174A9378DBB2D178C9B21279002A01D1C2
:4018C0008B4210D0134AD45CE4B20133DBB2FF2B00D100230E4A93701379002B12D000220B4B1A710EE00C4B1B78DBB29A0606D50A4A1478E4B21E221A4202D102E0002477
:4019000000E000240020FFF719FD201C10BDC046A4030020D804002063000F4043000F4010B50020FFF714FD124A9378D278DBB2934205D10F4B1B79002B14D0FF2413E079
:401940000C4A9378D278DBB2934205D2094AD37894781C1BE4B207E0064AD37894781C1B013CE4B200E000240020FFF7E7FC201C10BDC046A403002010B5164BD9799A7916
:40198000D2B2914205D2531ECB1A5C426341DBB204E08B1AFE3B5C426341DBB2002BECD18A4206D10C4B1B785B0702D40B4B18700EE0FF2900D10021094B58540131054B2E
:4019C000D971054B1B789B0702D50220FFF7CAFC10BDC046A403002062000F4042000F40D805002038B5084B5B78002B05D109E0FFF7C2FF0134A4B201E0051C0024285DA0
:401A00000028F5D138BDC046A40300201A4B1B78DBB21E221A4204D018481A4001780A4302702022134024D0154A1178C9B2154A1278D2B214488154144A1278002A02D0A1
:401A40000121134A11700F490A780132D2B20A700A78D2B2FF2A02D100210A4A1170094A12780C490978D2B28A4202D10121074A1170002BCAD1704763000F40A4030020A3
:401A800043000F40A7030020D8040020A8030020A9030020A603002013E0104B1B78DBB2FF2B02D100220D4B1A700C4A1378DBB20B49CB5CDBB20B490B7013780133DBB26E
:401AC0001370064B1B78DBB2074A1278934203D0064B1B785B07E0D57047C046AA030020D805002042000F40AB03002062000F40014B58647047C0460000002010B5041C13
:401B000000F06CF8044A1168044B0B40A4031C43146000F067F810BD00E400E0FF3FFFFF0222014B1A60704700E100E00222014B1A60704780E100E010B5041CFFF7F6FF46
:401B4000201CFFF7D5FF0020FFF7D8FFFFF7E8FF10BDC046034A1368802109060B4313607047C0464000024004490A68FD231A404000FB3B1840104308607047000304408A
:401B800004490A68EF231A400001DF3B184010430860704700030440031C04490868FE220240012018401043086070470003044004490A68BF231A4080017F3B184010437D
:401BC00008607047000004400230800804D0C0460138FDD1C046C046C0467047EFF3108072B6704780F310887047C046C046C046F0B546465746C0B48FB01F1C0290039117
:401C0000161C00F0A3F9041C0D1CC84B0094019598461B785BB2013305D0301C391C00F0DFFF002806D1009801990FB00CBC90469A46F0BD0298039900F0D2FF8246002868
:401C400031D1301C391C0022002301F0B7FA0028E9D001230493B64B04AD6B60534600222B62029B039CAB60EC60B24B2E616F61AA61EB6143461B785BB25A1C0ED0022B89
:401C80000CD0281C00F0DAFF002800D180E02B6A002B03D003F0D0F82B6A0360AB69EC6900930194BFE7029803990022002301F085FA002822D0301C391C0022002301F089
:401CC0007DFA041E2CD001230493994B04AD6B6000232B62029B039CAB60EC6000230024AB61EC6143461B782E616F615BB2002BC7D000228F4BAA61EB61CFE7201C291C7D
:401D000000F064FF8246002847D0201C291C0022002301F053FA002866D10094019582E7301C391C00F052FF002800D17BE7301C391C0022002301F047FA002800D172E7AC
:401D4000012304937A4B04AD6B602C62029B039CAB60EC6043461B782E616F61002B75D100230024AB61EC61281C00F067FF002872D02B6A002B91D08CE700200021021CC3
:401D80000B1C01F071FDA861E961022C00D078E703F052F82123036079E70298039900F015FF0028B1D0301C391C00F00FFF0028ABD0291C201C00F013FF04AD002850D107
:401DC000012304935A4B28626B60029B039CAB60EC6043461C782E616F61002CCDD100230024AB61EC614CE70298039900F0EEFE00940195002800D115E7301C391C00F0C0
:401E0000E5FE00940195002800D10CE704230493474B04AD6B6000232B62029B039CAB60EC6000230024AB61EC6143461B782E616F615BB2022B04D0281C00F0FFFE002818
:401E400097D102F0F9FF2223036092E700203A49A861E961022B87D102F0EEFF2123036087E703230493324B2E616F616B6053462B62029B039CAB60EC6043461B785BB23A
:401E8000002B1CD102980399E0222C4B1206AA61EB610022002301F097F9002830D143461B785BB2022B05D0281C00F0C7FE002800D0ECE602F0C0FF22230360E7E60022C7
:401EC000029803991E4BAA61EB610022002301F07BF90028E3D000221A4B301C391C02F001F9061C0F1C00F0B1FE321C3B1C01F065F90028D3D100220F4BAA61EB61CEE71F
:401F00000022104B301C391C02F0ECF8061C0F1C00F09CFE321C3B1C01F050F90028BED1E022094B1206AA61EB61B8E7E8000020385D00000000F03F0000F0FFFFFFEF47ED
:401F40000000F07F0000E03FFFFFEFC7F0B556464D4644465F46F0B41C1C131C67008DB07F0800930194061C0D1C80468946A2463B4331D0614B6C0064089C4228DC25D01C
:401F80009F4225DC5D4B9F4200D176E000239B464B46002B00DA74E0002A2CD1574B9F4200D18AE0564B9F425FD08023DB059A4501D100F0D1FB534B9A451CD14B46002BF5
:401FC00019DB301C291C00F007FD07E000280CD04D4BE01830430AD1002049490DB03CBC90469946A246AB46F0BDA742CADD474800F026FEF2E7301C291C00F0E3FD0B1C69
:402000004146021C00291ED0E90F0139884659464046014366D03E498F4200DC88E03D498F4201DC00F0E0FB3B4B9C4200DC82E35346002B00DC82E338483949021C0B1CB9
:4020400002F050F8CAE7002C04D02D48A90089088142D9D15146002900DABBE34946002900DA6FE3101C191CB8E75346002B01DA00F020FC301C291CB0E7002A00D185E703
:40208000A6E7284B9F422ADC234B9F4200DC83E725493815884201DC00F027FC234B00991B1AD940081C9840904200D074E70123194001335B1A9B466EE7134BE0180643E6
:4020C00000D189E7144B9C4200DC75E35346002B00DA34E3009B019C181C211C7EE702239B4659E7301C291C321C2B1C02F094FA021C0B1C01F0B8FB70E7C0460000F07FCA
:402100000000F03F0000E03F000010C03C5800000000E0410000F043FFFFEF3F9C7500883CE4377EFFFF3F431304000033040000E94900208C4209DC101C191C0022E74B77
:4021400001F0D0FF021C35200C1C4042E44D2115AC4661448A462403E24DE349240B824425438C4200DC3CE3E0498C4201DC00F021FC01218C46DE49E2448C4600240021D3
:402180006544CB009946161C2F1CDA4B301C4B441A685B68291C069607970892099302F03BFA089A099B061C0F1C0698079901F033F8021C0B1C0020CA4901F055FB021C6A
:4021C0000B1C301C391C0A920B9301F08BFF0A1C011C131C0491059200220292039380236D109B051D43802300201B03EB1819190D1C041C02980399221C2B1C01F072FFDC
:40220000021C0B1C301C391C02F006FA089A099B061C0F1C201C291C02F0FEF9021C0B1C0698079902F0F8F9021C0B1C0298039901F058FF021C0B1C301C391C02F0ECF9E3
:402240000A9A0B9B01F04EFF049A059B06900791101C191C01F046FF041C0D1C221C2B1C01F040FFA44A061C0F1C201C291CA34B01F038FFA24AA34B00F0CEFF221C2B1CE7
:4022800001F030FFA04AA14B00F0C6FF221C2B1C01F028FF9E4A9F4B00F0BEFF221C2B1C01F020FF9C4A9D4B00F0B6FF221C2B1C01F018FF9A4A9B4B00F0AEFF021C0B1C16
:4022C000301C391C01F00EFF049A059B041C0D1C0298039900F0A0FF069A079B01F002FF221C2B1C00F098FF029B039C061C0F1C1A1C181C211C231C01F0F4FE0A1C011C1E
:40230000894B08910992111C002200F085FF321C3B1C00F081FF00240D1C02980399221C2B1C01F0DFFE221C2B1C029003910698079901F0D7FE0022069007917A4B201CE7
:40234000291C02F069F9089A099B02F065F9021C0B1C301C391C02F05FF9049A059B01F0C1FE021C0B1C0698079900F055FF061C0F1C02980399321C3B1C00F04DFF0024C1
:40238000E022201C1206694B0D1C01F0ABFE684A06900791674B201C291C01F0A3FE029A039B04900591201C291C02F035F9021C0B1C301C391C02F02FF95F4A5B4B01F066
:4023C00091FE021C0B1C0498059900F025FF5B4B4B441A685B6800F01FFF061C50460F1C02F0CAFC041C0D1C06980799544B4B441A685B6804920593321C3B1C00F00CFFD0
:40240000049A059B00F008FF221C2B1C00F004FF0020221C2B1C0290039102F0FDF8049A059B02F0F9F8069A079B02F0F5F8021C0B1C301C391C02F0EFF8049005915B4671
:402440004246013B134300D0B1E100233D4C06930794009B019C0026181C211C231C321C02F0DAF8029A039B01F03CFE049A059B0D1C271C041C0098019901F033FE021C3F
:402480000B1C201C291C00F0C7FE029A039B00900191301C391C01F025FE041C0D1C009801992B1C221C00F0B7FE274B82468946994200DC58E1254B4B44034300D001E218
:4024C00000980199224A234B00F0A6FE221C061C0F1C2B1C40E0C046FFFF0F000000404301FCFFFF0000F03F8E98030079B60B000000F0FF605D0000EF4E454A287ECA3F00
:4025000065DBC9934A86CD3F01411DA96074D13F4D268F515555D53FFFAB6FDBB66DDB3F033333333333E33F0000084009C7EE3FF5015B14E02F3EBEFD033ADC505D000059
:40254000405D00000000F0BFFFFF8F40000070BFFE822B654715973C5046494602F05CF8021C0B1C301C391C00F042FE4E46002800D0A7E1E74B3615F11880235B039846DA
:402580000B41191CE448494484464F007F0DBC446646E248002230410E1C864340460903090B08434946331CCE0FDD49C91B0841011C704241408946201C291C02F02CF82B
:4025C000041C0D1C009801992B1CB144221C00F023FE4B461B05984600200022D14B061C0F1C01F07FFD221C029003912B1C301C391C02F011F8021C0B1C0098019902F07E
:402600000BF8C94AC94B01F06DFDC94A041C0D1C301C391CC74B01F065FD021C0B1C201C291C00F0F9FD041C0D1C02980399221C2B1C00F0F1FD029A039B061C0F1C01F0AD
:40264000EBFF021C0B1C201C291C01F0E5FF321C009001913B1C301C391C01F043FD041C0D1CB54AB54B01F03DFDB54AB54B01F0D3FF221C2B1C01F035FDB34AB34B00F074
:40268000CBFD221C2B1C01F02DFDB14AB14B01F0C3FF221C2B1C01F025FDAF4AAF4B00F0BBFD221C2B1C01F01DFD021C0B1C301C391C01F0B1FF041C0D1C221C2B1C301CA4
:4026C000391C01F00FFD8023029003910022201C291CDB0501F0A0FF021C0B1C0298039901F0C2F8009A019B041C0D1C301C391C01F0F8FC009A019B00F08EFD021C0B1C8B
:40270000201C291C01F088FF321C3B1C01F084FF0B1C021C9249002001F07EFF43465C182315002B00DC4FE1021C231C0698079901F0D8FC52E45346002B00DA7CE40020B9
:4027400000214BE487498C46594664440C4300D0C4E0101C191CC9E4301C291C321C2B1C01F0C0FCFFF73AFC7F4B4E0076089E4200DC17E17D4B4B4403430CD1221C2B1C07
:4027800001F04AFF021C0B1C0098019900F026FD002800D1EEE606980799754A754B01F0A1FC734A734B01F09DFCFFF717FC00236B4C069307944CE65346002BBFDA009BF7
:4027C000019C80221206181C9446231C6344191CFFF704FC0020624901F046F8021C0B1C3CE400240021CCE463498C42A3DD5C498C4201DDFFF71CFC101C191C0022584B90
:4028000001F00AFFC0225D4BD205041C0D1C01F069FC5B4A061C0F1C201C291C594B01F061FC221C029003912B1C201C291C01F059FC002204900591534B201C291C01F06B
:4028400051FC021C0B1C5148514901F0E5FE221C2B1C01F047FC021C0B1C00204D4901F0DBFE021C0B1C0498059901F03BFC4A4A424B01F037FC021C0B1C0298039901F0E9
:40288000CBFE041C0D1C221C2B1C301C391C00F0C3FC0022101C3B1C321C0290039101F0BBFE021C0B1C201C291C01F0B5FE04900591C4E5321C2B1C0020294900F0D4FF47
:4028C000FFF78CFB06980799344A354B01F00AFC324A334B01F006FCFFF780FB5946101C01296CD0191CFFF779FB002A01D0FFF782FB3A1C091A0A41131C8B40BB4201D000
:40290000FFF750FB012313400222D31A9B46FFF749FBC04602FCFFFF01FCFFFFFFFF0F0013040000432EE63FEF39FAFE422EE63F396CA80C615C20BED0A4BE726937663E6B
:40294000F16BD2C541BDBB3E2CDE25AF6A56113F93BDBE166CC1663F3E5555555555C53F0000F03F000010C0FFCB904000346F3F59F3F8C21F6EA501FEFFEF3F4715F73F2D
:4029800044DF5DF80BAE543E0000D03F555555555555D53F0000E03FFE822B659C7500883CE4377E0B4B9E4200DDE3E500239846994611E680240121E402FFF7E2FB8021C4
:4029C00009065918FFF70AFB4A4600F0E1F9021C0B1CABE60000E03FF0B556464D4644465F46754BF0B40A1C0E1C191C83B0051C041C3140994200D1B7E0002E00DC93E07C
:402A0000311500D1A0E06D4B1203CE188023120B5B031A43F30700D577E0731052009846E30FD318802216210027002564009203A818984202DC85181B1ABF18E00F5B0092
:402A400001391B18640052080029F1D1002201929446802212062020924609E0AB4247D0E10F5B0001385B186400520800281ED0614689189D42F1DA8E18B446CE0FF607BB
:402A8000A94656452ED05B1B8C42AD416D425B1B641A01995B008B469344594601380191E10F4D465B18640052080028E0D1234330D1019B5B0842497A108C466244F90732
:402AC00002D5802109060B4341460E05B1181D1C0E1C281C311C03B03CBC90469946A246AB46F0BD6646002ECDDB6E1CB146CAE7A14208D88E18B446CE0FF607564541D027
:402B000099460023C4E71D1CAAE7E30F5200D218640082E7019B01333AD0019A01239446134063445B08C6E773005B080343D0D00021002E33D1E20A15396405002AFAD000
:402B400080235B031A4226D1802000234003520001330242FBD001252020ED1AC01A4919251CC5409C402A434DE72A1C331C281C311C01F0B7FA2A1C331C00F04DFB051C44
:402B80000E1CA6E76646002EAFDA0023A9467FE7013700238FE7202001250023DFE72A1C331C281C311C01F037FD021C0B1C00F05BFE051C0E1C8CE70000F07F01FCFFFF62
:402BC0000000E03F49004B08191C7047034B48009C4640086044C00F7047C046000010800A1C031C024330B50220002A00D130BD80221206914216D00C4A04208C180C4A4E
:402C00009442F4D90B4C0C199442F0D90A4A4900490803209142EAD9064A00209142E6D158425841E3E7002BE1D0EFE70000F0FFFFFFDF7F0000F07FFFFF0F0000207047E8
:402C4000002001497047C0460000F87FF0B5474680B44B004A4A5B0D9D1882B0071C0C1CCE0F132D39DC002D59DB464F021C2F413B1C0B4003439C46B84667460B1C002F56
:402C800025D043465B081A1C0A4010430027002808D0132D00D16FE099438023DB022B4119430C1C3849F6008E19231C346875683A1C201C291C00F0AFFA0090019100988D
:402CC0000199221C2B1C01F0A7FC021C0B1C101C191C02B004BC9046F0BD332D0BDD0B1C8021021CC9008D42F1D1211C00F094FA021C0B1CEBE7254A9D1801235B42EB401C
:402D00009C460B1C6146021C0142E0D04B080342C8D08027FF052F4198430743C2E74C0064080443021C0B1C002CD0D00903090B01434A4211438022090B12035B0C1140E2
:402D40005B04021C194310480B1CF10041180C684D68201C291C00F05FFA0090019100980199221C2B1C01F057FC4B005B08F6071E43021C331CAAE780273F068CE7C04632
:402D800001FCFFFFFFFF0F00705D0000EDFBFFFFF8B5314F161C3B1C0B40041C0D1C0A1C1B1520D14B005B0803431BD000222B4B01F098F92A4B041C0D1C0A1C9E4222DB0D
:402DC0000F403F153B1C2749363B9B198B4211DD221C2B1C2448254900F056F8224A234B01F080F9F8BD22498B4222D01D499B198B42EDDC002B0BDD1E491B050A401343DF
:402E0000201C191CEEE71C4A1C4B01F06BF9E9E7191C353113DA1A4B9E42D9DC221C2B1C1548164900F030F8134A144B01F05AF9D8E7291C221C2B1C00F0EEF9D2E70D4910
:402E400036330A401B051343201C191C00220D4B01F048F9C6E7C0460000F07F00005043B03CFFFFFE0700009C7500883CE4377EFF070000FFFF0F8059F3F8C21F6EA5012E
:402E800050C300000000903C30B54A00DB0F5208DB071343191C30BD002243088B4274D303098B425FD3030A8B4244D3030B8B4228D3030C8B420DD3FF22090212BA030C50
:402EC0008B4202D31212090265D0030B8B4219D300E0090AC30B8B4201D3CB03C01A5241830B8B4201D38B03C01A5241430B8B4201D34B03C01A5241030B8B4201D30B03D7
:402F0000C01A5241C30A8B4201D3CB02C01A5241830A8B4201D38B02C01A5241430A8B4201D34B02C01A5241030A8B4201D30B02C01A5241CDD2C3098B4201D3CB01C01AD2
:402F4000524183098B4201D38B01C01A524143098B4201D34B01C01A524103098B4201D30B01C01A5241C3088B4201D3CB00C01A524183088B4201D38B00C01A52414308B9
:402F80008B4201D34B00C01A5241411A00D20146524110467047FFE701B5002000F0FCF802BDC0460029F7D003B5FFF775FF0EBC4243891A1847C04603460B437FD40022CA
:402FC00043088B4274D303098B425FD3030A8B4244D3030B8B4228D3030C8B420DD3FF22090212BA030C8B4202D31212090265D0030B8B4219D300E0090AC30B8B4201D3AE
:40300000CB03C01A5241830B8B4201D38B03C01A5241430B8B4201D34B03C01A5241030B8B4201D30B03C01A5241C30A8B4201D3CB02C01A5241830A8B4201D38B02C01A1A
:403040005241430A8B4201D34B02C01A5241030A8B4201D30B02C01A5241CDD2C3098B4201D3CB01C01A524183098B4201D38B01C01A524143098B4201D34B01C01A5241DC
:4030800003098B4201D30B01C01A5241C3088B4201D3CB00C01A524183088B4201D38B00C01A524143088B4201D34B00C01A5241411A00D201465241104670475DE0CA0F54
:4030C00000D04942031000D34042534000229C4603098B422DD3030A8B4212D3FC22890112BA030A8B420CD3890192118B4208D3890192118B4204D389013AD0921100E0F4
:403100008909C3098B4201D3CB01C01A524183098B4201D38B01C01A524143098B4201D34B01C01A524103098B4201D30B01C01A5241C3088B4201D3CB00C01A5241830836
:403140008B4201D38B00C01A5241D9D243088B4201D34B00C01A5241411A00D20146634652415B10104601D34042002B00D54942704763465B1000D3404201B5002000F02F
:403180000BF802BD0029F8D003B5FFF715FF0EBC4243891A1847C0467047C0468446101C62468C46191C634600E0C0461FB500F033FF002801D40021C8421FBD10B500F0A3
:4031C00077FE4042013010BD10B500F025FF002801DB002010BD012010BDC04610B500F01BFF002801DD002010BD012010BDC04610B500F0A1FE002801DC002010BD0120FF
:4032000010BDC04610B500F097FE002801DA002010BD012010BDC046F0B5454657464E4694464C000A03C90FE0B488460E1C1903470FC500480A6146490F01436046520AC7
:403240001743C0005A00640D520DDB0F8446984500D1A7E0A01A002800DC01E1002A3DD163460B4300D0D4E06B0700D188E00F232B40042B00D183E02A1DAA42AD4180235F
:403280006D427F191B043B404646151C002B00D17CE0CC4B01349C4200D1FDE03A1CCA4BED081A405007640552020543120B640D002112030B0D1B056405120B1A436308E0
:4032C000C24CF60714401C43640064083443281C211C1CBC90469946A246F0BDB94B9C42C2D080231B041943382800DDECE01F2800DD21E120220E1C6346121A9640C3404B
:40330000334366469640321C561EB24113430A1CC240EB1A9D42B6411D1CBA1A7642971B3B0200D497E07A02560A002E00D1B6E0301C01F05DFD031C083B1F2B00DDB7E060
:403340009E40371C28262A1C361AF240161C9D403E439C4200DDB2E01C1B621C1F2A00DDD8E01F23291C1C1B331CA540A340D1406C1EA541D64019430D43371C002473E7AD
:4033800080231B043B40464600D082E78D4BED0878070543FA089C4232D012036405120B640D85E7A31A002B00DC94E0002A3CD0844A944200D157E7802212041143382B8D
:4033C00000DC05E163461943481E81410022C8B24019A8429B41051CD2195B42D7183B0239D5784B01349C4200D14CE10120764A6B083A4028401843D5070543570833E73E
:403400002B1C134348D080231B031A431203120B4EE70138002878D16346EE1AB5429B417A1A5B42D71A351C7AE7021C0A4300D11AE7013B002B00D0F2E04019A8429B41EB
:40344000CA195B42D718051CC9E7131C334300D118E1171C351C46466B0700D007E795E700287AD1621C5205520D012A00DCFBE06246AA1A9542B6419146781A7242861A61
:40348000320200D493E06246551BAC458041CF1B40423E1A984648E70022002508E7281C01F0A6FC2030031C083B1F2B00DC47E7283885402E1C00259C4200DC4CE7424AD6
:4034C000E41A1640371CCFE6634619434B1E99410022CBB21DE7002B00D0F2E0601C43055B0D012B00DCA4E0364B984200D121E163465C19AC429B41CF195B42FA186408E7
:40350000D50725435708041CAEE62E4B9C4200D0EAE6A9E6211C331C1F39CB40191C202A00D182E03F231C1BA64035436E1EB54100270D4300248EE7031C0E1C203BDE40C2
:40354000202874D040231B1A99400B1C62461343591E8B4100223343DBE6002C50D0194CA24200D1A8E08024240440422743382800DDD9E01F2800DD39E120243E1C241AD7
:40358000A640B0462E1CA146C640444626434C46A5406C1EA541C74035436046451BCF1BAC45894149427F1A141C9846B8E64B464D46334300D0B8E6002600270024002586
:4035C000E4E6C046FF070000FFFF7FFFFFFF0F801F2B5BDC2022081CD21A9040814660469246D8404A4610438146524660469040021C501E8241484610430A1CDA40E7E6F7
:403600003C1C2C4358D0C043002851D16046451BAC458041CF1B40423F1A141C98467FE68F4A944200D0CAE61EE600267DE700238CE73B1C2B43002C00D0BDE0002B00D1B1
:40364000F5E063460B4300D10EE663465B19AB428041CA19404217183A0200D4FCE0814A1D1C17400134FFE53A1C2A43002C51D1002A00D085E062460A4303D00F1C6546EC
:403680009846F1E50026002700257FE6181C0A1C2038C240202B00D1A7E04020C01A8140081C63461843411E8841104300228FE66B4CA24200D05AE70F1C6546141C984663
:4036C000D2E5002C3AD1381C284371D0DB43002B18D0634882426BD0382B00DD9DE01F2B00DDA7E020203C1CC01A8440A1462C1C8246DC404846044350468540681E8541D1
:40370000DF402543654465459B417F185B42FF18141C64E6002A19D162460A4377D00F1C654698464E4C9FE53D436F1EBD410027EDB232E7041C0027002527E64848824235
:4037400036D0802000045B420743C5E762460A4349D08024ED087807FA0824032843224209D0CE08264206D162464F07381CD20810439846321CD200470F1743C500384C8A
:4037800072E562460A4300D16EE56246AE1AB5429241781A5242821A100200D455E66246551BAC458041CA1B4042171A98465BE50F1C6546141C57E5002B34D063460B4394
:4037C00011D08024ED087807FA08240328432242D1D0CB082342CED162464F07381CD20810431A1CC7E71E4C3EE5002059E7041C3E1C203CE640341C20282BD04026301AD1
:4038000087403D436F1EBD4100272543C5E680270026FF03124C0025B8E53D436F1EBD410027EDB26EE70F1C65460D4C1CE50F1C654619E51C1C381C203CE040041C202BF0
:403840000CD04020C31A9F403D436F1EBD410027254357E70027D4E71D1CFCE50027F3E7FF070000FFFF7FFFF0B55F4656464D464446F0B40F0387B098464D003B0BCC0FBD
:40388000061C924681469B466D0D01946BD0664B9D4235D080275B467F031F43F3009946624BFF00400F9C4607430023BB46002665440093424617035000D20F53463F0B26
:4038C000400D904600D172E0574A904267D080235B031F435346554A5B0FFF001F43944653460021DB0060444246624092462D1A0E430F2E00D9A1E04D48B600805987463D
:403900005B461E4300D076E000239B469946023308260093CEE799464346BB4601930091009B022B6BD1019B9A46002153460122002789461A403C4B00213F030C0D24056A
:403940003F0B27433B4C1B0527401F437F00D2077F0817434846391C07B03CBC90469946A246AB46F0BD03433ED05B46002B00D19CE1584601F03CFA2823311C1B1A021CFF
:403980005F46D940083A97400B1C96403B439B46B1460023284D00262D1A00938AE7524603213A43A0D10027002302219CE752463A4315D0002F00D185E1381C01F018FA83
:4039C000021C28215046891A131CC8405146083B99409F400B1C074317480021801A83E70027002301217FE700239B4699460133042600935EE703230C2600935AE7032B24
:403A000000D13CE2012B00D0BFE11A1C019B1A4000210023002789468EE700238027994600223F03004B87E7FF07000001FCFFFF805D0000FFFF0F800DFCFFFFBB4500D90F
:403A400051E100D14CE14A46039200225C469046013D180E3F0238431B020193030C994603041B0C4946061C201C1F1C0093FFF713FA021C7A4302904946201C171CFFF74B
:403A800091FA039B09041B0C19438F420CD9029B8919013B8E4200D952E18F4200D84FE1029B8919023B0293CC1B201C4946FFF7F3F9009F834647434946201CFFF772FAA3
:403AC000039A0B041404240C23439F420DD95A469B19013A9E4200D930E19F4200D82DE10222524294469B19E344029ADB1B17045A463A439346019C170C220C101C0492C5
:403B00005A4611042204120C141C090C7C4305924A43414347436118100C09188C4203D980204002844667440C0C12040804120C3C198118A34200D2E5E000D1DFE01F1B13
:403B400043465C1AA04592415242BF1AB74200D10EE1381C4946FFF79FF9009B029043434946381C9846FFF71DFA230C0F041F43B8450CD9029BBF19013BBE4200D9FBE08B
:403B8000B84500D8F8E0029BBF19023B02934346FF1A4946381CFFF77FF9009B039043434946381C9846FFF7FDF924040904240C214388450CD9039B8919013B8E4200D91D
:403BC000DCE0884500D8D9E0039B8919023B03934346C91A029B039A1B04059C1A43100C13049146221C049F1B0C5A4344437B437843E318170CDB199C4203D98024640250
:403C0000A44660441C0C12041B04120C00199B18814200D296E000D1FCE04A4601231A4391469B4BEB18002B00DC99E04A4652070AD00F2249460A40042A05D00431494513
:403C400092418946524293445A46D20106D55A46904B1A4080239346DB00EB188E4A934200DD62E64A465946D208490711435A4689465702514601225B053F0B5B0D0A405D
:403C80005AE680205A460003024208D0074206D107433F0399463F0B4246804B4CE65F4607433F033F0B221C7C4B45E601F0A0F8031C2030272800DC5EE6083B9E400023B5
:403CC000B346994665E6504601F092F8021C2032272A00DC75E657460838874000237BE6994500D2AFE65A46594654084A46C8075208024303924A46D2079046A9E6002708
:403D0000884500D31CE7019F5A46BC46E044B845BF417F42BF19FF18013ABE4206D2BC425FD800D19FE03F1B934609E7B742FAD1019B4345F3D9371B934601E79346D4E6B8
:403D40000293B1E64A468919013A8E4218D99146814200D061E7019A9A4200D05DE760E74F4F7F1B382F13DD012253461A404FE601235B42994654E7029308E7039327E788
:403D800088423CD874D0914647E7019B9A4648E71F2F44DC434B4A469C465B466544FA40AB4013434A46AA40151C6A1E95415A46FA402B43171C5A0709D00F221A40042A87
:403DC00005D01A1D9A429B415B42FF18131C3A023ED55346012200211A40002701238946AAE502235B429C46019AE3449446E04490459B415B429B19DF193F1BA0E6019F0F
:403E00004A467C00BC42BF417F42BF19023AC91901949CE7002B95D1002201929BE75A46214B5B1BDA40202F27D0204B9C465B466544AB4049460B43591E8B4113430722DE
:403E400000271A4007D00F2200271A40042AB8D17A077F023F0BDB0813439946012253461A40002368E54145BBD89346002767E6019C9C42C3D391466DE70023DAE780276A
:403E80005B463F031F433F033F0B019A034B53E5FF030000FFFFFFFEFE070000FF07000002FCFFFF1E040000E2FBFFFF3E040000F0B55F464D4644465646F0B41F035C00A8
:403EC000DB0F99461B4B0E034D00C90F8446360B6D0D8B4690463F0B640D9D420CD0154B9C4210D00123A54214D0181C3CBC90469946A246AB46F0BD311C01230143F4D1CD
:403F00000C4B9C42EED13A430123002AEDD10123A542EAD1BE42E8D1C445E6D1CB4506D0002DE2D13043031C581E8341DDE70023DBE7C046FF070000F0B5574645464E461D
:403F4000E0B40F034E00C90F8A4632491D035C0084463F0B760D90462D0B640DDB0F8E420FD08C4239D0002E10D13843414241418946002C27D12A4325D1002000290ED11B
:403F800008E0391C01432ED1B44226D0002C0BD09A450DD05346594201231943081C1CBC90469946A246F0BD2A43F3D09A45F1D1A642EFDC1ADA5046414248410123414217
:403FC0001943081CEBE74A46002AE1D058425841012241421143081CE1E7291C114302D1002EC2D0D4E702204042D8E7AF42D1D809D00020AF42D2D25046414248410123B3
:4040000040421843CBE7C445C4D80020C445F3D3C5E7C046FF070000F0B55F464D46444656468046F0B4061C0803000B84462C484C001F035D00C90F640D8B4691463F0BBC
:404040006D0DDB0F844212D0854225D0002C14D161460E4370424641002D35D0002E21D058425841012143420B43181C0EE06146022031430AD1A5420ED0002D12D13A4331
:4040800010D15B46594201231943081C3CBC90469946A246AB46F0BD391C02201143F5D1002CD5D09B45ECD1AC42EADC05DBBC45E7D80FD00020BC45E8D258464142484155
:4040C000414201200843E1E73A43C7D10020002EDCD1D6E7C845D4D80020C845EDD3D5E7FF070000F0B55F4656464D464446F0B4051C061C080387B099464F00030BCC0F91
:4041000092469B467F0D019467D06C4B9F4236D080205B4640031843C0006B0F1843684B83469C4600239846EE00674400934B4649461D03C90F5B0052462D0B5B0D894657
:4041400000D16EE05D498B4264D080205C4940038C4600210543ED00500F0543D20063444846FF187B1C9A46009B604002900B430F2B00D9ACE053489B00C3589F465B46FC
:404180001D4300D082E00823009300239B46023300269846CBE7029B01934346022B59D1012400250026019B1C40444B00212D030A0D12052D0B1543434A1B0515401D4347
:4041C0006D00E4076D082543301C291C07B03CBC90469946A246AB46F0BD2B434ED05B46002B00D185E1584600F002FE021C2823291C9B1A161C5846D940083EB0400B1C49
:40420000B54003439B462E1C0023304F0093BF1A98468CE7514629432ED10025002202219EE75146294323D0002D00D154E1281C00F0DEFD031C28215046C91A1A1CC84071
:404240005146083A914095400A1C05431F480021C31A85E7032B00D1C2E1012B00D06DE14446019B00251C40E4B2002300269DE700250022012173E7032171E70423009391
:4042800000239B4601330026984650E70C230093093B98464BE7802500242D030026074B84E74B46AB46161C0193884675E7029BAB46161C019388466FE7C046FF070000A3
:4042C00001FCFFFFC05D0000FFFF0F800DFCFFFF330C3604360C9C46331C140C1204120C53439846634653439946634663430193331C41466343090C4B445B18994505D90E
:40430000802040028146019949440191190C039141460904090C1B045B1804932B0C9846331C2D04290C4B43604600934346654658435E43009B4D431B0C9946AE194E4405
:404340008446B54203D980235B029946CC44350C2B1C0398634484460593009B36041B041B0CF3189C446046039058460504060C280C84465043351C81466046654344430F
:404380004846000C8346724314195C44A24203D98022520293465D44220CAD184A461204120C24044046A41862464A437143464360460096464670438046100C8446884462
:4043C000E044414505D9802149028C46009961440091019803998446614499429B415B4299460598434684461204120C1B049B1863449C46AB4683429B4140460A19CC4407
:40440000A2428941E344CC45B6415C46000C8046494276425B426418334398448C428941AB459B4149425B4219430D1C009B4544EE187602E50D2E43B346049B56021E4316
:40444000731E9E415B46D20D324366021643DB010AD50123334076081E435B46DB071E435B465B089B465746634BFB18002B5ADD720709D00F223240042A05D0321DB24221
:40448000B6417642B344161C5A46D20106D55A465A4B1A4080239346DB00FB18584A934234DD0124029B00251C400026554B7DE680205B460003034208D0054206D1054312
:4044C0002D032D0B4C46161C4E4B6FE65D4605432D032D0B4B4B69E6504600F089FC031C2033272B00DCA6E65546083885400022ACE6281C00F07CFC021C2032272A00DC96
:4045000075E6083885400026AB467DE65A46F608520716435A4601245502029A5B052D0B5B0D144042E6384DED1B382D0ADD0124029B00251C400026002337E6019B574662
:40454000029391E71F2D25DC304B321C9C466744BE405B46BB40371CEA407E1EB74113433B431E1C5B46EB401D1C730709D00F233340042B05D0331DB342B6417642AD1917
:404580001E1C2B0220D50124029B00251C40002601230BE65A461E4BDB1BDA40131C202D1CD01C4A94465A466744BA40171C3E43721E96411E4307230025334007D00F23D4
:4045C00000253340042BD6D16B076D022D0B0124F6081E43029B1C400023E7E50027E6E780255B4601242D031D43019B2D0323401C1C2D0B034BD9E5FF030000FFFFFFFE31
:40460000FE070000FF07000002FCFFFF1E040000E2FBFFFF3E040000F0B54D4644465F465646F0B40E1C111C3203520A470F1743C5001A035800DB0F9946520A4B0F83B009
:404640001A43CB000193CF4B7400F60F640DB046400D984200D1E8E00123494659400B1C9E4200D1B1E0261A002E00DC1CE1002842D1131C01990B4300D0E6E06B0700D19D
:404680008EE00F232B40042B00D189E02A1DAA42AD418023012641466D427F191B043B400E40151C002B00D183E0B64B01349C4200D116E13A1CB44BED081A405007640515
:4046C00052020543120B640D002112030B0D1B056405120B1A436308AC4CF60714401C43640064083443281C211C03B03CBC90469946A246AB46F0BDA24B9C42BED0802382
:404700001B041A43382E00DD03E11F2E00DD3FE12020831B9946131C49468B409C46019B6046F34003430198F2408840011C481E81410B43EB1A9D4280411D1CBA1A40424F
:40474000171A3B0200D4A8E07A02560A002E00D1CAE0301C00F04CFB031C083B1F2B00DDCBE02822291C121AD1409E400A1C9D4032439C4200DDC8E01C1B671C1F2F00DDC9
:40478000EDE01F23291C1C1B131CA540A340F9406C1EA541FA4019430D43171C00246DE78023012642461B043B401640002B00D07BE7744BED0878070543FA089C423BD038
:4047C00012036405120B640D7EE7231A9A46002B00DCA5E0002844D06A48844200D14DE78020000402435346382B00DC1CE1019B1A43511E8A41D1B200224919A942804142
:404800000D1CD219404217183B0246D55D4B01349C4200D169E101205B4A6B083A4028401843D5070543570828E7131C01990B4300D111E74B4613E72B1C134351D08023B1
:404840001B031A431203120B3EE7013E002E00D080E0691A8D429B41BA1A5B42D71A0D1C6FE7101C019B184300D107E701235B429C46E2445346002B00D002E1019BD21911
:404880005919A9429B415B42D7180D1CBCE76346034300D128E1071C65466B0700D0F0E6012643461E4084E7002E00D081E0601C4005400D012800DC07E10199681A8446FF
:4048C0006545B641B81A7642861B300200D4A1E08C464D1BAC458941D21B4942561A984634E700220025EFE6281C00F081FA2030031C083B1F2B00DC33E7021C283A95407D
:404900002A1C00259C4200DC36E71F4FE41A1740B4E6019B1A43511E8A41D3B2002209E7002B00D001E1601C43055B0D012B00DCB0E0144B984200D11EE1019BD21959196B
:40494000A9429B415B42D2184908D5070D435708041C93E60B4B9C4200D0D3E68EE6211C131C1F39CB40191C202F00D18EE03F231C1BA24015436A1E954100270D430024E5
:404980008BE7C046FF070000FFFF7FFFFFFF0F80331C101C203BD840202E79D040239B1B9A40131C019A1343591E8B4100220343C0E6002C53D0C74CA04200D1B0E080243E
:4049C00071428946240427434946382900DDCDE01F2900DD59E120243E1C611A8E408A46B04649462E1CCE405146B4468D4064464646494626436C1EA541CF403543019919
:404A0000D71B8C464D1BAC4592415242BF1A041C984696E663466546334300D096E60026002700240025C4E61F2B61DC2020C31A9B46131C59468B4051469946019BCB400E
:404A40009C464B46604603439C465B46019999406346481E814119435346DA40CDE63C1C2C435DD0F1438946002955D10199D21B8C464D1BAC4589414942571A041C984692
:404A80005FE69448844200D0ADE6F7E5002271E7002387E73B1C2B43002C00D0DAE0002B00D113E1131C01990B4300D1E6E54919A9429B41D2195B42D7183B0200D421E1F4
:404AC000854B0D1C1F40041CD8E5381C2843002C40D1002800D083E0101C0199084303D0171C0D1C9846C9E500260027002560E65046131C2038C340181C5346202B00D19D
:404B0000C1E0402351465B1A9A40019911434A1E91410022014370E66E4CA04200D053E7171C019D041C9846A8E5002C28D13C1C2C4300D18AE0DB439A46002B00D082E023
:404B4000019BD2199C4665449D42894149425718041C59E600285BD1101C0199084300D1A4E0171C0D1C98465A4C87E53D436F1EBD410027EDB242E7041C0027002518E6B7
:404B8000544CA04262D0534680245B429A46240427435346382B00DD8EE01F2B00DD9DE02024E31A9B463B1C59468B40514699462B1CCB409C464B46644623439C465B4659
:404BC0009D4063466C1EA541CF401D43019BBF189C4665449D4292415242BF18041C13E6101C0199084300D148E5681A844685428041BE1A4042301A060200D447E68C46BA
:404C00004D1BAC458941D21B4942571A984635E5101C0199084334D080247807ED08FF0824032843274208D0D608264205D1C90852070A43101C371C9846FF00420F1743CF
:404C4000C500244C1AE5234CA042A2D1171C019D041C13E5002B35D0131C01990B4310D080247807ED08FF08240328432742E4D0D3082342E1D1C90852070A43101C1F1C8E
:404C8000DBE7144CFAE400223FE74C463E1C203CE6404946341C202932D04026761AB7403D436F1EBD4100272543A8E680270026FF03084C00257CE53D436F1EBD41002724
:404CC000EDB283E7171C019D024CD7E4171C019DD4E4C046FF070000FFFF7FFF54463B1C203CE3401C1C5346202B0DD0402351465B1A9F403D436F1EBD410027254365E723
:404D00000027CDE70D1CC8E50027F3E70B0330B5134C1A0B4B00051C5B0DC90F0020A34210DD104883420EDC80200F4C40030243E41A1F2C0ADD0D48C31ADA40131C4842ED
:404D40004340581830BD0A4BC818FBE7281CE040084CA44663449A40131C0343EFE7C046FE0300001D0400003304000013040000FFFFFF7FEDFBFFFF38B5041E16D0C50F2D
:404D800000D04442201C00F033F8174B1B1A0A2821DC021C211C153291400A1C0B21081AC4405B052403240B5B0D03E000250023002400220021101C24030A0D1205240B35
:404DC00014430A4A1B0514401C436400ED0764082C43211C38BD0B3884405B052403240B5B0D0022E6E7C0461E040000FFFF0F801C2101231B04984201D3000C10391B0A5F
:404E0000984201D3000A08391B09984201D30009043902A2105C40187047C0460403020201010101000000000000000008B500210A2200F0F9F808BD014B18687047C046F4
:404E40004C0100200E4B70B500251E1C0D4CE41AA410A54204D0AB00F35898470135F8E701F06AF8084B00251E1C084CE41AA410A54204D0AB00F35898470135F8E770BD5B
:404E8000445F0000445F0000445F00004C5F0000002310B5934203D0CC5CC4540133F9E710BD031C8218934202D019700133FAE7704700000EB410B59DB002A9029008617E
:404EC0000B48822488604861012040421FABC881084804CBA400006801938C8100F012F90023029A13701DB010BC08BC03B01847FFFFFF7F4C0100200023C25C0133002A72
:404F0000FBD1581E70470000F0B51E1C444B87B01B68059002930B1C039101921C78029A5D1C121950780822104001D02B1CF5E72D2C04D19D1C5C780123009304E00090E8
:404F40002B2C01D15C789D1C002E02D0102E0AD160E0302C5CD120222B789343582B52D110266C780235009F311C7B1E9F412D4BFF18381CFEF716F8381C0491311CFDF772
:404F80008BFF0022071C131C029909194978480701D5303C07E00320084017D03721012800D02031641AB44210DA511C0BD0BB4207D802D1049A944203DC73430122E3188D
:404FC00001E0012252422C780135DDE7181C511C0BD10098059A431E9841124BC01822231360019B002B0AD117E00099002900D05842019B002B10D0039B002A00D06B1E13
:40500000019A136009E03024002EACD10826AAE70A26A8E7302CA6D19DE707B0F0BDC04650010020FFFFFF7F38B5051C0C1C131C034A291C1068221CFFF766FF38BDC0464B
:405040004C010020F0B58E6885B0071C0C1C03920193B34245D390238A89DB001A423DD003250969236801985B1A029363695D43EB0F5D19029B6D1001331B189D4200D292
:405080001D1C381C53050FD5291C00F01DFB061E13D0029A2169FFF7FBFEA289184B134080221343A38111E02A1C00F065FB061E0CD1381C216900F0C1FA0C2340220120FE
:4050C0003B60A38940421343A38117E0029B2661F61826606561019EED1AA560019BB34200D2019E321C2068039900F092FA0020A3689B1BA36023689E19266005B0F0BDCF
:405100007FFBFFFFF0B59FB0029005938B890E1C171C1B0610D50B69002B0DD1402100F0D3FA30603061002804D10C23029A01381360D0E040237361002306AD6B61203356
:405140006B761033AB763C1C2378002B03D1E31B049312D003E0252BF9D00134F4E7049B0298311C3A1CFFF76DFF431C00D1ACE06A69049B944663446B612378002B00D125
:40518000A3E00122002352426A6002A95432521801342B60EB60AB601370AB654F4F2178381C052200F02AFA002808D0C01B01278740381C2B68013418432860EEE72B688D
:4051C000DA0604D55322202102A8121811701A0704D553222B2102A81218117022782A2A01D0099B0EE0059A111D12680591002A01DB099204E05242EA60022213432B6045
:40520000013409E02278303A092A04D80A214B4301349B18F6E7099323782E2B18D163782A2B09D1059B02341A1D1B680592002B0DDA01235B420AE0002301342278303AFC
:40524000092A04D80A214B4301349B18F6E70793234F2178381C032200F0D0F9002807D0C01B40278740381C2B6801341843286021781C480622671C297600F0BFF90028AC
:4052800012D0194B002B06D10722059B073393430833059314E005AB00930298291C321C124B00E000BF07E005AB00930298291C321C0E4B00F08AF80390039B013304D03F
:4052C0006B69039A9B186B613DE7B3890B985B0601D5012040421FB0F0BDC046035F0000095F00000D5F00000000000045500000F7B5171C01930A698B6800900C1C93422E
:4053000000DA131C221C3B6043321278002A01D001333B6023689B0602D53B6802333B60062523681D401ED0231C43331B785A1E9341226892061CD53020E1184031C870B2
:40534000211C5A1C45310978A21840320233D1700FE0221C0123009801991932089EB047431C0ED00135E3683A689B1A9D42F0DBDAE7221C009801994332089DA847431C1E
:4053800002D10120404220E006232068E1683A6803400025042B03D18D1AEB43DB171D40A3682269934201DD9B1AED180027AF420ADA221C0123009801991A32089EB047D0
:4053C000431CDED00137F2E70020FEBDF0B58BB006920A1C43320793059004920A7E0C1C109B6E2A00D1A8E011D8632A22D009D8002A00D1B2E0582A00D0C2E045310A70D6
:405400007C4A4FE0642A1DD0692A1BD0B9E0732A00D1A7E009D86F2A29D0702A00D0B0E0202209680A43226037E0752A1FD0782A33D0A6E00E1C1A684236111D19601368EB
:405440003370A1E021681A68080606D4490604D5111D19600023D55E02E0111D19601568002D3BDA2D23049A6D42137036E021681A68080606D4490604D51568111D196033
:40548000ADB202E0111D196015685A4B227E03930A276F2A1DD108271BE0221C782145321170554A19680392081D226818600D68100602D4500600D5ADB2D30702D5202340
:4054C0001A4322601027002D03D1202322689A432260231C002243331A7002E00A27454B03936368A360002B03DB0422216891432160002D02D1049E002B0ED0049E281C63
:40550000391CFDF74FFD039B013E5B5C281C3370391CFDF7C1FC051EF1D1082F09D12368DB0706D563682269934202DC3023013E3370049B9B1B23612BE009681A680806F4
:4055400007D4490605D5111D19601368A28A1A8004E0111D1960136862691A600023049E236116E01A68111D196016680021301C626800F043F8002801D0801B606063688D
:4055800003E0261C42363270012323610023049A1370079B05980093211C069B09AAFFF7A7FE431C02D10120404221E0236905980699321C079DA847431CF4D023689B07F3
:4055C00005D4099BE068984212DA181C10E00025E368099A9B1A9D42F3DA221C0123059806991932079EB047431CDCD00135EFE70BB0F0BD145F0000255F0000C9B2821878
:40560000904204D003788B4202D00130F8E70020704710B5814208D28B18984205D29B1A013A09D3995C8154FAE70023934203D0CC5CC4540133F9E710BD000030B500299C
:405640003ED004390B68002B00DAC9181D4A1368141C002B02D14B60116031E099420DD208680A189A4203D11368C3180B6053684B60216024E08A4203D8131C5A68002ADF
:40568000F9D11D685C198C420BD10968691858181960904214D110685268091819605A600EE08C4202D90C23036009E008680C18944203D114685268001908604A605960FA
:4056C00030BDC046B4030020032370B5CC1C9C430834051C0C2C01D20C2405E0002C03DA0C2300202B6042E08C42F9D3204A1368101C191C002913D00A68121B0DD40B2AAB
:4057000002D90A608B181FE08B4202D15A6802601BE04A685A600B1C17E00B1C4968E9E7144E3368002B03D1281C00F04BF83060281C211C00F046F8031C421CD0D003229D
:40574000C61C964386420AD11C60181C07210B301A1D8843821A0AD05142995007E0311A281C00F02FF8431CBAD0331CECE770BDB4030020B0030020F8B5061C0C1C151C2D
:40578000002904D1111CFFF79FFF041C18E0002A03D1FFF753FF2C1C12E000F025F8A8420ED2301C291CFFF78FFF071E07D0211C2A1CFFF76DFB301C211CFFF73FFF3C1CB4
:4057C000201CF8BD38B50023064C051C081C2360FBF7E0FB431C03D12368002B00D02B6038BDC046D80600200B1F1A68101F002A04DA891804390B68D01804387047000075
:405800000000000000000000424232006272796E65626F726B0000003139322E3136382E312E36300000000041542B43574A41503D222573222C222573220D0A000000001B
:405840004F4B000041542B43495053544152543D22544350222C222573222C25640D0A0041542B43495053454E443D25640D0A006C696E6B000000002B49504400000000CF
:4058800056616C7565206F757473696465207065726D697474656420706C616E7420736574206461746120666F72204D6F6973740D0A000056616C7565206F75747369641C
:4058C00065207065726D697474656420706C616E7420736574206461746120666F7220526F746174650D0A004D256425640000004D256430256400004D2564303025640036
:405900005725642564000000572564302564000057256430302564004C256425640000004C256430256400004C25643030256400422564256400000042256430256400001A
:40594000422564303025640054256425640000005425643025640000542564303025640025732573257325732573000041542B434950434C4F53450D0A00000041542B527E
:4059800053540D0A0000000041542B43574D4F44453D330D0A00000000300F40800200330F40000100400F400004000080320F406C5C00008000000003000F406A300F4088
:4059C00036310F4037320F4057330F400C400F400B410F4002600F408076820F8338014002F30482050808FF09100CC30D3C0F8210F3120C130415BF160C184119401B1892
:405A00001F03200F210422F02408280429A72B182C1C2D3C2EE32F8130C0311F321C3360340F3520362C378039883AA03B023F1056025711580459045B045C115D105F01F6
:405A40008025813D82DA83C085CD873088E389CD8A1C8B308C488E2590E0921C940395A896FC97549892990D9A259BF09F01A01FA2E0A302A4E3A555A61CA7A8ADC0AF3085
:405A8000B103B5FCB6FFBB08BE40C004C740C9FFCA0FCBFFCC40CD20CEF0CF05D008D804D904DA04DC10DD01DF01E040E1A8E240E3200006028A060107480A840B100C01C5
:405AC0000D240E601020124013601440150519611A101F8021442214235024042520260A2744280829602A412E442F8030103289341036103744382A3B403D1547014F043C
:405B000055015A2069156A406B0870357320C0DFC27EC43FCADDCC7FCEEFD080D60403080410060C0723081C0A020C10104012031420155C170319611B0E1C091E1024140E
:405B400025612716280C2A112B1C301F331A3420350F3640376039803B283E503F404063410246BC470E481C49FF4AFF4BFF4EF04F44500C54015604580459045A045B0474
:405B80005C115D115F0166C06A406B020240032804080602070809800A100B040C080E82132816101720180819801B291E841F802005210822012729284029042F283001D3
:405BC000312032043340372839943A013D0A3E023F044009421045044720480149044A0A4C0451805408565059015D805E045F116004634267808008830187C089088A4279
:405C00008B508E018F089194921893049602984999019A019B409F01A121A208A401A920AA41AE04C0EEC2B7C466CA63CC6FCECFD06ED22CD6F1D88DE22009080A402F8093
:405C400063026E806F807120C210CA80D640DA80DC60852087018A40A520A640A701AA40AD08E210E610E860100A11010300842493080C10000808100000000100080010A9
:405C8000000840102000850400004002001800000A0094019300040000000000402030180F018006080020000000415025060300010E0C0005FFFFFF62A0F0410C000000D2
:405CC0001800040004040404111100010000000000004002001030100010101200000000000000000000000000000000000000000000000000000000000000000000000091
:405D00000007040605000000030405060708090A0B0C0E0F101112131415161718191B1C1D1E1F2021222325262728292A2B2E2F3031323334350000706F77000000000007
:405D400000000000000000000000004003B8E23F000000000000000006D0CF43EBFD4C3E000000000000F03F000000000000F83F000000000000304300000000000030C3E1
:405D80003C3A00002A390000103A000016390000103A00001A3A0000103A0000163900002A3900002A3900001A3A000016390000203900002039000020390000823C000008
:405DC000D0420000AE420000AE420000A2420000964100009641000096420000A2420000964100009642000096410000A24200009A4100009A4100009A410000B044000074
:405E00004300002020202020202020202828282828202020202020202020202020202020202020881010101010101010101010101010100404040404040404040410101027
:405E40001010101041414141414101010101010101010101010101010101010101011010101010104242424242420202020202020202020202020202020202020202101014
:405E800010102000000000000000000000000000000000000000000000000000000000000000000000000000000000000000000000000000000000000000000000000000A2
:405EC00000000000000000000000000000000000000000000000000000000000000000000000000000000000000000000000000000000000000000000000000000000000A2
:405F0000000000232D302B2000686C4C0065666745464700303132333435363738394142434445460030313233343536373839616263646566000000F8B5C046F8BC08BC43
:405F40009E4670473D0200000D100000F8B5C046F8BC08BC9E46704715020000705F0000C80000209000000088050000000000000000000002000000E00600200000C05D54
:405F800080BB000030000000006CDC0204040400010000000000000000000000000000000000000000000000000000000000000000000000005E00000000000000000000C1
:405FC00000000000000000000000000000000000000000000000000000000000000000000000000000000000000000000000000000000000EC000020025E00000000000035
:406000000000000000000000000000000000000000000000000000000000000000000000000000000000000000000000000000000000000000000000000000000000000060
:406040000000000000000000000000000000000000000000000000000000000000000000000000000000000000000000000000000000000000000000000000000000000020
:4060800000000000000000000000000000000000000000000000000000000000000000000000000000000000000000000000000000000000000000000000000000000000E0
:4060C00000000000000000000000000000000000000000000000000000000000000000000000000000000000000000000000000000000000000000000000000000000000A0
:0200000490303A
:0200000093ADBE
:0200000490402A
:200000000000000000000000000000000000000000000000000000000000000000000000E0
:0200000490501A
:0C000000000204C81193110104E7A540A0
:0200000490600A
:0100000001FE
:00000001FF