:400000000010002011000000D10C0000D10C000008B500F077FEC04638B5174C23688025ED022B432360302001F0B0F8134A144B1A601022134B1A601032134B1A601032B8
:40004000124B1A6082221206114B1A602560114A114B1A60114A124B1A60124A124B1A600920124901F038F8092001F00BF800220F4B1A6038BDC04600010B400600008077
:4000800004010B401C020240340202403C02024008010B4002000080000002401900008040000240DF2E0080800002409D1300000C020B4038B572B60122404B1A7000249C
:4000C00010E03F4863001A195200821891881B195B001A5AC31858880004104300F074FE0134E4B2012CECD9002412E0344DA3001A195200AA189189D08900040843131C48
:40010000128A598A09041143802200F063FE0134E4B2002CEAD02A49081C1830383100F039FEA0221201274B1A800122264B1A70264A274B1A60EE221202264B1A60264AF2
:40014000264B1A6080229204254B1A60254A264B1A6099231B04254A1360254A1360254A13600F22244B1A60093A244B1A60244B1978043A0A431A70224802783C218A432E
:4001800028390A430270197816220A431A7021221D4B1A601D4A1E4B1A6080221D4B1A60F9231D4A13601D4A1360D82212011C4B1A60FFF731FF00F021FE38BD1C700F40C9
:4001C0000C3A000000600F4002600F4003003000000001400C0001400404390000500F4004500F400200000408500F4010500F4020500F4030500F402000004000800F40FC
:4002000000700F4001700F400000044036100300080004401801044000020440180204400803044010B5064C2378002B07D1054B002B02D0044800E000BF0123237010BDA5
:4002400050010020000000007837000008B5084B002B03D00748084900E000BF07480368002B00D108BD064B002BFBD09847F9E7000000007837000054010020C800002084
:400280000000000008B562B61A4801F007F900F095FE00F0A3FE18481849194A00F0D2FC00F038F8322000F04FFF164B1B78062B0ED1154B1A885888000410439A88D988B0
:4002C000090411431A8900F0C3FB0E4B00221A700E4B00229A560C4B00215B5E9A4201DB00F004FA074A137801331370084800F02BFFD5E7510300007C3700008837000086
:4003000094370000CC000020D4030020AC03002060EA000010B500F061F900F0C7F900F079F800F02BF900F0A5F800F073F8074C208000F053F9608000F0B8F9E08000F0DA
:400340001DF9208100F096F8A08010BDD403002038B52A4B1C78312C09D8002000F048FE6400274BE052254A137801331370234B5C78312C09D8032000F03AFE6400214B86
:40038000E0521E4A5378013353701C4B9C78072C0DD8022000F02CFE011C022000F03EFE6400194BE052154A937801339370134BDC78072C0DD8012000F01AFE011C0220DA
:4003C00000F02CFE6400114BE0520C4AD3780133D3700A4B1B79072B0ED8084CE578042000F006FE011C022000F018FE6D00084BE85223790133237138BDC0466C010020E4
:4004000058040020E0030020B0030020C00300204404002038B5154B1B78322B22D1144B19880C1C01230EE05A001148125A15B208B2854203DC20B2A84202DC02E0111CC6
:4004400000E0141C0133312BEEDD09B2002000F0E5FD21B2002000F0E1FD0022034B1A70322000E0002000B238BDC0466C0100205804002070B5364B5B78322B65D1354B15
:4004800019880C1C01230EE05A003248125A16B208B2864203DC20B2B04202DC02E0111C00E0141C0133312BEEDD09B2022000F0B5FD061C21B2022000F0B0FD301A80B22D
:4004C00002B2F1239B009A4217DC101C01F09AFC02F066FB204A214B01F0DCFC021C0B1C1F48204901F070FF02F0AEFB051C1E4901F09AFB00281DD11FE003B2F122920098
:4005000093421ADD181C01F07DFC02F049FB174A174B01F0BFFC021C0B1C1648164901F053FF02F091FB051C002101F069FB002803D001E00C4D00E000250022044B5A70DD
:40054000281C01F03FFC80B200E0002000B270BD6C010020E0030020F4FDD478E926D13F0AD7A3703D6A73400000C842A323B9FC87F49B3F52B81E85EB81534008B5134B1F
:400580009B78082B08D000201EE050001049415ACB189BB2013201E000220023072AF4DD18B2C3101D3B181C02F0BEFA094A0A4B01F070FC02F082FA031C0021034A91705C
:4005C00080B21B0400D5002000B208BD6C010020B0030020FED478E92631D03F284BDB78082B08D0002048E050002649415ACB189BB2013201E001220023072AF4DD1BB279
:40060000DB10214A944663449AB220498B421EDC13B21F498B421CDC1E498B421BDC3C398B421ADC1C498B4219DC1C498B4218DC1B498B4217DC3C398B4216DC19498B423E
:4006400015DC1A1E184B9A4213DD0A2012E0642010E05A200EE050200CE046200AE03C2008E0322006E0282004E01E2002E0142000E005200022024BDA7000B27047C04655
:400680006C010020C0030020B2070000E40C0000A80C00006C0C0000F40B0000B80B00007C0B0000040B0000C80A00000D4B1B79082B08D0002013E050000B49415ACB189F
:4006C0009BB2013201E001220023072AF4DD1BB2D817400FC318DB100021024A117198B200B270476C0100204404002008B5012000F0A6FE034800F027FD002000F0A0FE6A
:4007000008BDC0468813000038B5144B1B78002B22D100F0A9FF051C00241AE000F03AFF002807D00A2805D00D2803D00C4B1B78FF2B08D10A4A1378D31800221A710132B1
:40074000064B1A7008E0064AD11808710133137001346B1CA342E1DC38BDC046BC0400207401002008B5FFF7CFFF08BD10B5114B1B78002B1CD0041CFFF7C6FF002307E089
:400780000D4AD2181179E154002111710133DBB2094A12789342F3D3A21800231370064A1370044A1370201C02F062FBC0B200E0002010BDBC0400207401002070B5051CD4
:4007C00002F056FBC6B2002408E02B5D834204D10134E4B2B44201D305E0002400F008FF0028F2D100E0012070BDC04600B5C1B0021C0B1C68460B4902F018FB684600F04C
:4008000095FF094800F0A0FC0848FFF7D7FF002804D0642000F098FC012000E0002041B000BDC046A437000088130000BC37000000B5C1B0021C68460D490E4B02F0F6FA66
:40084000FA20400000F080FC684600F06FFFFA20800000F079FC0848FFF7B0FF002804D0642000F071FC012000E0002041B000BDC0370000B8220000BC37000010B5C0B00D
:40088000041C02F0F5FA0204120C6846164902F0CDFA684600F04AFF642000F055FC1348FFF78CFF002817D09620400000F04CFC0F48FFF7BDFF002814D00E48FFF77EFFAA
:4008C0000028FAD1684600F031FF642000F03CFC201C00F02BFF05E0642000F035FC201C00F024FF40B010BDDC370000EC37000094370000BC37000070B584B0051C0E1C07
:40090000FFF734FF1D4B1A6802921A7902AB1A71002306E002AAD15CEA5C914228D10133DBB2032BF6D9002403E001AA13550134E4B2631DEB5C3A2BF7D101A80023035596
:4009400002F030FAC1B2002914D00634E4B2002304E01A19AA5CF2540133DBB28B42F8D3FF2318402418361900233370081C02E0002000E0002004B070BDC046F437000029
:40098000F0B583B0002303E0C15C01AAD1540133022BF9DD002304E0C218D2786946CA540133022BF8DD01A80023C3706A46D37002F0F8F9051CC4B2684602F0F3F9061CED
:4009C000C7B20A3C5A2C02D8074B1D7002E0074800F0ACFE642F02D8054B1E7002E0054800F0A4FE03B0F0BDAC030020FC370000540400203038000010B5C2B0041C201C4D
:400A000002A9FFF779FF0028F9D002AB5C78002305E09A1C02A98A5C6946CA540133022BF7DD002306E0DA1CD91D02A8415C684681540133022BF6DD00236A469371034BC2
:400A40001C706846FFF79CFF42B010BDCD00002000B5BDB005900691079283B21AB2632A07DD654A12781BB218A8644902F0DEF916E099B20A1C0A3A92B2592A07D85E4A71
:400A800012781BB218A85E4902F0D0F908E0092906D8594A12781BB218A85A4902F0C6F905AB9B881AB2632A07DD534A12781BB214A8554902F0BAF916E099B20A1C0A3A09
:400AC00092B2592A07D84C4A12781BB214A84F4902F0ACF908E0092906D8474A12781BB214A84B4902F0A2F905ABDB881AB2632A07DD414A12781BB210A8464902F096F9C1
:400B000016E099B20A1C0A3A92B2592A07D83A4A12781BB210A8404902F088F908E0092906D8354A12781BB210A83C4902F07EF905AB5B881AB2632A07DD2F4A12781BB2C1
:400B40000CA8374902F072F916E099B20A1C0A3A92B2592A07D8284A12781BB20CA8314902F064F908E0092906D8234A12781BB20CA82D4902F05AF905AB1B891AB2632A75
:400B800007DD1D4A12781BB208A8284902F04EF916E099B20A1C0A3A92B2592A07D8164A12781BB208A8224902F040F908E0092906D8114A12781BB208A81E4902F036F909
:400BC00010AB00930CAB019308AB02931CA81A4918AA14AB02F02AF91CA8FFF74FFE17480430FFF709FFFA20400000F0ADFA144800F09CFD3DB000BDCD00002064380000B6
:400C00006C380000743800007C380000843800008C380000943800009C380000A4380000AC380000B4380000BC380000C4380000CC380000D4380000DC380000740200203A
:400C4000E8380000F8B5071C0D1C161C62B61B4800F016FE00F08EFC194800F067FDFA246400201C00F070FA164800F05FFD164800F06AFA154800F059FD201C00F064FADA
:400C8000002406E0381C291CFFF7B0FD002802D10134022CF6DD642000F056FA002405E0301CFFF7C5FD002802D10134012CF7DDFA20800000F048FAF8BDC04665070000C8
:400CC000E8380000F8380000B80B000004390000FEE7C04608B5031C084A1068C318084A9A1A802A02DC054A136005E002F060F80C2303600120404208BDC046D0000020C9
:400D0000E806002070B50F4E0F4D13E029686B68AC68002202E001C901C30432A242FAD1E868002202E0002102C304328242FAD11035013E002EE9D102F040F8FFF7A2FABE
:400D4000FEE7C04601000000543F000008B500230AE0032B03D89A000A49505800E00A4899000A4A885001332F2BF2D9FFF7A2F90022074B1A608022D205116801230B4359
:400D8000136008BD00000000D10C000000000020C0000020F0B50025002711E0BB00C658F3B2FF22964308E06A008A181478A419527822700135013BDBB2002BF4D1013704
:400DC000072FEBD9F0BDC04608B50A1C002102F024F808BD08B502F017F808BD064B1B68002803D080221206134301E05B005B08014A13607047C04680031A4008B5054A0A
:400E0000054B1A60F922054B1A600120FFF7E6FF08BDC046D920000000031A4040031A4010B50E20032100F069F90E203F4900F053F91F223E4B1A603E4B1B68002B01DA98
:400E40003D4900E03D493E4A13680B4313603D4A3D4B1A603D4A3E4B1A6000233D4A13603D4A3E490A603E490A603E4A13603E4A136001223D4B1A6001323D4B1A603D4A52
:400E800011683D4B0B40C02189040B431360002449E03A49A2005058DC239B0103400919097D0B4336498C4662441360C30708D52C49086880225202131CA3401B0C03435E
:400EC0000B60A3002D4A9B589B0708D52649086880225202131CA3401B0C03430B60A300264A9B589A0502D58020C00001E080204001DB0506D443085B429BB262002149E3
:400F0000535203E0630000211E4A99521E4B58431E4B9C4660441E4900F06EFD00B2A2001C4BD0500134042CB3D910BD7910000020001A4080031A40E02E1010E02E0010D8
:400F400000001A408D00008004001A400000FF0718001A401C001A400200020010001A4014001A4028021A4038021A4018021A40000F1A4030001A40FFFFFFDF6C3D0000DE
:400F800080001A40C00400201027000072060000E40C0000CC04002008B5074B1B68002B08DB054A1368802109060B4313600A2000F0E2F808BDC04600001A4008B5064BE2
:400FC0001B78002B04D1FFF72BFF0122024B1A70FFF7E2FF08BDC04678030020034A1368802149020B4313607047C04604001A4010B5041E042C02D9002000F06BF8042CE2
:4010000007D8A400044B9C46644420680004000C00E0002000B210BD80011A4038B5041C0D1C042802D9002000F054F863000F4A995A691A09B20E48021C4A43002906DDCF
:40104000A3000C495B58D80FC018431006E0A30008495B58D80FC3185B105B42D018A400044BE15800F0C8FC00B238BDC004002010270000CC040020014B1A681A607047E3
:4010800010021A401F2318401E3B8340181C014B1860704700E100E01F2318401E3B8340181C014B1860704780E100E01F2318401E3B8340181C014B1860704700E200E0D1
:4010C0001F2318401E3B8340181C014B1860704780E200E001BE704738B5041C0D1C1F2802D90020FFF7F6FFA400034B9C4664442068256038BDC0464000002070B5041C47
:401100000E1E032E02D90020FFF7E4FF1F2C02D90020FFF7DFFF03252540ED00063500F0D1FBA408A400074B9C46644423680322AA409343AE40351C1D43256000F0C6FB82
:4011400070BDC04600E400E010B5041C06E0084B186800F0ADFB074B9C46644480231B029C42F4D8024B5868604300F0A1FB10BDD40000200080FFFF08B5034B1B7A584346
:4011800000F096FB08BDC046D4000020F0B557464E46C0B483B0041C00F094FB0190E71E2D2F74D83F4B1B78DBB2A34208D33E4B1B78DBB29A463D4B1B78DBB2994631E00A
:4011C0003B4B1B78DBB2A34208D33A4B1B78DBB29A46394B1B78DBB2994623E0374B1B78DBB2A34208D3364B1B78DBB29A46354B1B78DBB2994615E0334B1B78DBB2A342A4
:4012000008D3324B1B78DBB29A46314B1B78DBB2994607E02F4B1B78DBB29A462E4B1B78DBB299462D4BDE5D2F2E09D92A2C07D919222B4B1A60052000F03AFB192503E044
:40124000274B1D683F231D40AE4206D2234BDA5D234B1A60052000F02BFB1F4B9C4664442378DBB21F4A13601F4B52461A601F4B4A461A600520FFF77FFFAE420AD9174B72
:40128000DA5D174B1A60052000F012FB02E00020FFF720FF019800F019FB03B00CBC91469A46F0BDC0F1FF0FC1F1FF0FC2F1FF0FC3F1FF0FC4F1FF0FC5F1FF0FC6F1FF0F18
:4012C000C7F1FF0FC8F1FF0FC9F1FF0FCAF1FF0FCBF1FF0FCCF1FF0FCDF1FF0F883D00002CFF0B4028FF0B401CFF0B4020FF0B40034B1868C0231B02184000D00120704724
:4013000000010B4008B500F0DDFA044A1368C02109020B43136000F0D9FA08BD00010B4010B500F0CFFA08490A68084B1A408024E40122430A600A6813408022120213437C
:401340000B6000F0C3FA10BD00010B40FF3FFFFF70B5061C00F0B6FA041CFFF7C9FF002803D0FFF7DDFF012500E000250848331C0340084A106808490840184310601368B8
:40138000012D01D1FFF7BEFF201C00F09FFA70BD0404040010020B40FBFBFBFF10B5244B1B685B0715D5234B1B685B070ED5224B9969042001401F4C22688A4322609A69DB
:4013C00082439A61DB68002B00D098470420FFF7BFFF174B1B685B0518D5164B1B685B0510D5154B99698022D2001140114802688A4302609969114A0A409A611B69002B73
:4014000000D098478020C000FFF7A2FF084B1B685B030CD5074B1B685B0304D5064B5B69002B00D098478020C002FFF791FF10BD10020B40E40000207C030020FFFBFFFF49
:4014400004490A68FD231A404000FB3B184010430860704700000440014BD8647047C0460000002010B5041C00F02CFA044A13689B009B08A4071C43146000F027FA10BDEC
:4014800000E400E00822014B1A60704700E100E00822014B1A60704780E100E010B5041CFFF7F6FF201CFFF7D7FF0020FFF7DAFFFFF7E8FF10BDC04608B500201049FFF775
:4014C0000BFE00200321FFF719FE00220D4B1A7076320D4B1A70563A0C4B1A7002200C49FFF7FAFD02200321FFF708FE0E22094B1A708132084B1A708D3A084B1A7008BDE6
:40150000551700009803002083000F4080000F40E117000022000F4032000F4081000F4038B500F0CFF9051C0F4A117820230B4313700E4A137810242343DBB213700020C0
:40154000FFF7A0FD0A4B1A781443E4B21C700220FFF7B6FD0220FFF795FD00F09FF9281C00F0B4F938BDC04693000F4090000F4091000F4008B5064B5B78002B04D1FFF727
:401580009BFF0122024B5A70FFF7CAFF08BDC0469803002010B50020FFF77EFD114A9378DBB2D178C9B21279002A01D18B4210D00D4AD45CE4B20133DBB2FF2B00D10023D5
:4015C000084A93701379002B06D00022054B1A7102E0064B1C78E4B20020FFF753FD201C10BDC04698030020E004002040000F4010B50020FFF750FD174A9378DBB2D17882
:40160000C9B21279002A01D18B4210D0134AD45CE4B20133DBB2FF2B00D100230E4A93701379002B12D000220B4B1A710EE00C4B1B78DBB29A0606D50A4A1478E4B21E226C
:401640001A4202D102E0002400E000240020FFF719FD201C10BDC04698030020E004002060000F4040000F4010B50020FFF714FD124A9378D278DBB2934205D10F4B1B7936
:40168000002B14D0FF2413E00C4A9378D278DBB2934205D2094AD37894781C1BE4B207E0064AD37894781C1B013CE4B200E000240020FFF7E7FC201C10BDC046980300204B
:4016C00010B5164BD9799A79D2B2914205D2531ECB1A5C426341DBB204E08B1AFE3B5C426341DBB2002BECD18A4206D10C4B1B785B0702D40B4B18700EE0FF2900D10021E8
:40170000094B58540131054BD971054B1B789B0702D50220FFF7CAFC10BDC0469803002061000F4041000F40E005002038B5084B5B78002B05D109E0FFF7C2FF0134A4B291
:4017400001E0051C0024285D0028F5D138BDC046980300201A4B1B78DBB21E221A4204D018481A4001780A4302702022134024D0154A1178C9B2154A1278D2B214488154A9
:40178000144A1278002A02D00121134A11700F490A780132D2B20A700A78D2B2FF2A02D100210A4A1170094A12780C490978D2B28A4202D10121074A1170002BCAD17047FB
:4017C00060000F409803002040000F409B030020E00400209C0300209D0300209A03002013E0104B1B78DBB2FF2B02D100220D4B1A700C4A1378DBB20B49CB5CDBB20B49B9
:401800000B7013780133DBB21370064B1B78DBB2074A1278934203D0064B1B785B07E0D57047C0469E030020E005002041000F409F03002061000F40014B58647047C04625
:401840000000002010B5041C00F03CF8044A1168044B0B40A4031C43146000F037F810BD00E400E0FF3FFFFF0222014B1A60704700E100E00222014B1A60704780E100E034
:4018800010B5041CFFF7F6FF201CFFF7D5FF0120FFF7D8FFFFF7E8FF10BDC046034A1368802109060B4313607047C046400002400230800804D0C0460138FDD1C046C04695
:4018C000C0467047EFF3108072B6704780F310887047C046C046C046002243088B4274D303098B425FD3030A8B4244D3030B8B4228D3030C8B420DD3FF22090212BA030CF0
:401900008B4202D31212090265D0030B8B4219D300E0090AC30B8B4201D3CB03C01A5241830B8B4201D38B03C01A5241430B8B4201D34B03C01A5241030B8B4201D30B03AC
:40194000C01A5241C30A8B4201D3CB02C01A5241830A8B4201D38B02C01A5241430A8B4201D34B02C01A5241030A8B4201D30B02C01A5241CDD2C3098B4201D3CB01C01AA8
:40198000524183098B4201D38B01C01A524143098B4201D34B01C01A524103098B4201D30B01C01A5241C3088B4201D3CB00C01A524183088B4201D38B00C01A524143088F
:4019C0008B4201D34B00C01A5241411A00D20146524110467047FFE701B5002000F0FCF802BDC0460029F7D003B5FFF775FF0EBC4243891A1847C04603460B437FD40022A0
:401A000043088B4274D303098B425FD3030A8B4244D3030B8B4228D3030C8B420DD3FF22090212BA030C8B4202D31212090265D0030B8B4219D300E0090AC30B8B4201D383
:401A4000CB03C01A5241830B8B4201D38B03C01A5241430B8B4201D34B03C01A5241030B8B4201D30B03C01A5241C30A8B4201D3CB02C01A5241830A8B4201D38B02C01AF0
:401A80005241430A8B4201D34B02C01A5241030A8B4201D30B02C01A5241CDD2C3098B4201D3CB01C01A524183098B4201D38B01C01A524143098B4201D34B01C01A5241B2
:401AC00003098B4201D30B01C01A5241C3088B4201D3CB00C01A524183088B4201D38B00C01A524143088B4201D34B00C01A5241411A00D201465241104670475DE0CA0F2A
:401B000000D04942031000D34042534000229C4603098B422DD3030A8B4212D3FC22890112BA030A8B420CD3890192118B4208D3890192118B4204D389013AD0921100E0C9
:401B40008909C3098B4201D3CB01C01A524183098B4201D38B01C01A524143098B4201D34B01C01A524103098B4201D30B01C01A5241C3088B4201D3CB00C01A524183080C
:401B80008B4201D38B00C01A5241D9D243088B4201D34B00C01A5241411A00D20146634652415B10104601D34042002B00D54942704763465B1000D3404201B5002000F005
:401BC0000BF802BD0029F8D003B5FFF715FF0EBC4243891A1847C0467047C0468446081C6146FFE71FB500F0A7F8002801D40021C8421FBD10B500F02BF84042013010BD22
:401C000010B500F099F8002801DB002010BD012010BDC04610B500F08FF8002801DD002010BD012010BDC04610B500F03BF8002801DC002010BD012010BDC04610B500F0D3
:401C400031F8002801DA002010BD012010BDC046430270B542004C005D0AC30F4802120E460A240EC90FFF2A05D0FF2C08D00120A2420BD070BD0120002DFBD1FF2CF6D148
:401C80000120002EF6D10120A242F3D1B542F1D18B4205D0002AEDD1281C431E9841E9E70020E7E7F0B543024D024A0044005E0A240EC30F6D0A120EC90FFF2C0DD0FF2AF3
:401CC00031D0002C0DD177427741002A23D1002D21D10020002F0BD107E0002E28D1FF2A21D0002A05D08B4207D0584201231843F0BD002DF9D08B42F7D19442F5DC04DB5E
:401D0000AE42F2D80020AE42F2D25842434101205B421843ECE7002FE5D048424141012049420843E4E7002D02D1002CCBD0DAE702204042DCE7C0464302F0B542004C00EC
:401D40005E0AC30F4802120E450A240EC90FFF2A0FD0FF2C1AD0002A10D177427741002C29D0002F17D0484241410120494208430BE00220002E08D1FF2C07D0002C0AD172
:401D8000002D08D1584201231843F0BD0220002DFBD1002AE1D08B42F4D1A242F2DC04DBAE42EFD80020AE42EFD25842434101205B421843E9E7002DD3D10020002FE4D1DA
:401DC000E0E7C0464202510A4200C30F120E00207E2A0DDD9D2A0CDC802000040143952A0ADC9620821AD1400A1C58424240D0187047034A9818FBE7963A91400A1CF4E790
:401E0000FFFFFF7F70B5041E39D0C50F00D04442201C00F0A9FF9E23261C1B1A962B07DC082801DD083884406402640AD8B21EE0992B0ADD0522211C121AD1400A1C011CFF
:401E40001B318E40711E8E411643052801DD421F96400F4C3440720704D00F221640042E00D0043462010ED4A401640AD8B26402C005640AED0704432C43201C70BD0025BF
:401E800000200024F3E7024B1C409F231B1AEBE7FFFFFFFBF0B55F4656464D464446F0B4051C061C080387B099464F00030BCC0F92469B467F0D019467D06C4B9F4236D0A8
:401EC00080205B4640031843C0006B0F1843684B83469C4600239846EE00674400934B4649461D03C90F5B0052462D0B5B0D894600D16EE05D498B4264D080205C4940031B
:401F00008C4600210543ED00500F0543D20063444846FF187B1C9A46009B604002900B430F2B00D9ACE053489B00C3589F465B461D4300D082E00823009300239B46023323
:401F400000269846CBE7029B01934346022B59D1012400250026019B1C40444B00212D030A0D12052D0B1543434A1B0515401D436D00E4076D082543301C291C07B03CBCBD
:401F800090469946A246AB46F0BD2B434ED05B46002B00D185E1584600F0E6FE021C2823291C9B1A161C5846D940083EB0400B1CB54003439B462E1C0023304F0093BF1AC8
:401FC00098468CE7514629432ED10025002202219EE75146294323D0002D00D154E1281C00F0C2FE031C28215046C91A1A1CC8405146083A914095400A1C05431F480021EE
:40200000C31A85E7032B00D1C2E1012B00D06DE14446019B00251C40E4B2002300269DE700250022012173E7032171E70423009300239B4601330026984650E70C23009333
:40204000093B98464BE7802500242D030026074B84E74B46AB46161C0193884675E7029BAB46161C019388466FE7C046FF07000001FCFFFFB83D0000FFFF0F800DFCFFFFB6
:40208000330C3604360C9C46331C140C1204120C53439846634653439946634663430193331C41466343090C4B445B18994505D9802040028146019949440191190C039101
:4020C00041460904090C1B045B1804932B0C9846331C2D04290C4B43604600934346654658435E43009B4D431B0C9946AE194E448446B54203D980235B029946CC44350CB6
:402100002B1C0398634484460593009B36041B041B0CF3189C446046039058460504060C280C84465043351C81466046654344434846000C8346724314195C44A24203D999
:402140008022520293465D44220CAD184A461204120C24044046A41862464A437143464360460096464670438046100C84468844E044414505D9802149028C4600996144E5
:402180000091019803998446614499429B415B4299460598434684461204120C1B049B1863449C46AB4683429B4140460A19CC44A2428941E344CC45B6415C46000C80469C
:4021C000494276425B426418334398448C428941AB459B4149425B4219430D1C009B4544EE187602E50D2E43B346049B56021E43731E9E415B46D20D324366021643DB01C8
:402200000AD50123334076081E435B46DB071E435B465B089B465746634BFB18002B5ADD720709D00F223240042A05D0321DB242B6417642B344161C5A46D20106D55A46BF
:402240005A4B1A4080239346DB00FB18584A934234DD0124029B00251C400026554B7DE680205B460003034208D0054206D105432D032D0B4C46161C4E4B6FE65D46054335
:402280002D032D0B4B4B69E6504600F06DFD031C2033272B00DCA6E65546083885400022ACE6281C00F060FD021C2032272A00DC75E6083885400026AB467DE65A46F608BB
:4022C000520716435A4601245502029A5B052D0B5B0D144042E6384DED1B382D0ADD0124029B00251C400026002337E6019B5746029391E71F2D25DC304B321C9C4667448D
:40230000BE405B46BB40371CEA407E1EB74113433B431E1C5B46EB401D1C730709D00F233340042B05D0331DB342B6417642AD191E1C2B0220D50124029B00251C40002664
:4023400001230BE65A461E4BDB1BDA40131C202D1CD01C4A94465A466744BA40171C3E43721E96411E4307230025334007D00F2300253340042BD6D16B076D022D0B01244F
:40238000F6081E43029B1C400023E7E50027E6E780255B4601242D031D43019B2D0323401C1C2D0B034BD9E5FF030000FFFFFFFEFE070000FF07000002FCFFFF1E04000016
:4023C000E2FBFFFF3E040000F0B54D4644465F465646F0B40E1C111C3203520A470F1743C5001A035800DB0F9946520A4B0F83B01A43CB000193CF4B7400F60F640DB046DF
:40240000400D984200D1E8E00123494659400B1C9E4200D1B1E0261A002E00DC1CE1002842D1131C01990B4300D0E6E06B0700D18EE00F232B40042B00D189E02A1DAA420E
:40244000AD418023012641466D427F191B043B400E40151C002B00D183E0B64B01349C4200D116E13A1CB44BED081A405007640552020543120B640D002112030B0D1B0586
:402480006405120B1A436308AC4CF60714401C43640064083443281C211C03B03CBC90469946A246AB46F0BDA24B9C42BED080231B041A43382E00DD03E11F2E00DD3FE18F
:4024C0002020831B9946131C49468B409C46019B6046F34003430198F2408840011C481E81410B43EB1A9D4280411D1CBA1A4042171A3B0200D4A8E07A02560A002E00D1FA
:40250000CAE0301C00F030FC031C083B1F2B00DDCBE02822291C121AD1409E400A1C9D4032439C4200DDC8E01C1B671C1F2F00DDEDE01F23291C1C1B131CA540A340F94030
:402540006C1EA541FA4019430D43171C00246DE78023012642461B043B401640002B00D07BE7744BED0878070543FA089C423BD012036405120B640D7EE7231A9A46002B9C
:4025800000DCA5E0002844D06A48844200D14DE78020000402435346382B00DC1CE1019B1A43511E8A41D1B200224919A94280410D1CD219404217183B0246D55D4B013463
:4025C0009C4200D169E101205B4A6B083A4028401843D5070543570828E7131C01990B4300D111E74B4613E72B1C134351D080231B031A431203120B3EE7013E002E00D0FF
:4026000080E0691A8D429B41BA1A5B42D71A0D1C6FE7101C019B184300D107E701235B429C46E2445346002B00D002E1019BD2195919A9429B415B42D7180D1CBCE7634648
:40264000034300D128E1071C65466B0700D0F0E6012643461E4084E7002E00D081E0601C4005400D012800DC07E10199681A84466545B641B81A7642861B300200D4A1E048
:402680008C464D1BAC458941D21B4942561A984634E700220025EFE6281C00F065FB2030031C083B1F2B00DC33E7021C283A95402A1C00259C4200DC36E71F4FE41A174048
:4026C000B4E6019B1A43511E8A41D3B2002209E7002B00D001E1601C43055B0D012B00DCB0E0144B984200D11EE1019BD2195919A9429B415B42D2184908D5070D435708A9
:40270000041C93E60B4B9C4200D0D3E68EE6211C131C1F39CB40191C202F00D18EE03F231C1BA24015436A1E954100270D4300248BE7C046FF070000FFFF7FFFFFFF0F80EA
:40274000331C101C203BD840202E79D040239B1B9A40131C019A1343591E8B4100220343C0E6002C53D0C74CA04200D1B0E0802471428946240427434946382900DDCDE099
:402780001F2900DD59E120243E1C611A8E408A46B04649462E1CCE405146B4468D4064464646494626436C1EA541CF4035430199D71B8C464D1BAC4592415242BF1A041C8C
:4027C000984696E663466546334300D096E60026002700240025C4E61F2B61DC2020C31A9B46131C59468B4051469946019BCB409C464B46604603439C465B460199994099
:402800006346481E814119435346DA40CDE63C1C2C435DD0F1438946002955D10199D21B8C464D1BAC4589414942571A041C98465FE69448844200D0ADE6F7E5002271E7A9
:40284000002387E73B1C2B43002C00D0DAE0002B00D113E1131C01990B4300D1E6E54919A9429B41D2195B42D7183B0200D421E1854B0D1C1F40041CD8E5381C2843002CD6
:4028800040D1002800D083E0101C0199084303D0171C0D1C9846C9E500260027002560E65046131C2038C340181C5346202B00D1C1E0402351465B1A9A40019911434A1EDF
:4028C00091410022014370E66E4CA04200D053E7171C019D041C9846A8E5002C28D13C1C2C4300D18AE0DB439A46002B00D082E0019BD2199C4665449D4289414942571811
:40290000041C59E600285BD1101C0199084300D1A4E0171C0D1C98465A4C87E53D436F1EBD410027EDB242E7041C0027002518E6544CA04262D0534680245B429A46240438
:4029400027435346382B00DD8EE01F2B00DD9DE02024E31A9B463B1C59468B40514699462B1CCB409C464B46644623439C465B469D4063466C1EA541CF401D43019BBF1879
:402980009C4665449D4292415242BF18041C13E6101C0199084300D148E5681A844685428041BE1A4042301A060200D447E68C464D1BAC458941D21B4942571A984635E5F0
:4029C000101C0199084334D080247807ED08FF0824032843274208D0D608264205D1C90852070A43101C371C9846FF00420F1743C500244C1AE5234CA042A2D1171C019D6D
:402A0000041C13E5002B35D0131C01990B4310D080247807ED08FF08240328432742E4D0D3082342E1D1C90852070A43101C1F1CDBE7144CFAE400223FE74C463E1C203C29
:402A4000E6404946341C202932D04026761AB7403D436F1EBD4100272543A8E680270026FF03084C00257CE53D436F1EBD410027EDB283E7171C019D024CD7E4171C019D62
:402A8000D4E4C046FF070000FFFF7FFF54463B1C203CE3401C1C5346202B0DD0402351465B1A9F403D436F1EBD410027254365E70027CDE70D1CC8E50027F3E70B0330B594
:402AC000134C1A0B4B00051C5B0DC90F0020A34210DD104883420EDC80200F4C40030243E41A1F2C0ADD0D48C31ADA40131C48424340581830BD0A4BC818FBE7281CE0409A
:402B0000084CA44663449A40131C0343EFE7C046FE0300001D0400003304000013040000FFFFFF7FEDFBFFFF38B5041E16D0C50F00D04442201C00F017F9174B1B1A0A288F
:402B400021DC021C211C153291400A1C0B21081AC4405B052403240B5B0D03E000250023002400220021101C24030A0D1205240B14430A4A1B0514401C436400ED076408CB
:402B80002C43211C38BD0B3884405B052403240B5B0D0022E6E7C0461E040000FFFF0F804200120E511C38B5C9B243025D0AC40F012915DDE02189008C466D071B0B62443D
:402BC0000021281C0D0D2D052B431C4D52052B40520813435B00E4075B082343191C38BD002A15D1002D1FD0281C00F0BDF80A281DDC0B232A1C1B1ADA40131C021C15320B
:402C000095400F4A1B03121A52051B0B520DD7E7002D06D080221B0B120313436D07094ACEE7084A0023CBE700220023C8E7031C0B3B9D402B1C0025E3E7C046FFFF0F80AA
:402C400089030000FF07000070B50B034D00440F6D0D5B0A23436C1C6405C90FC200640D012C2ADD3B4C2C19FE2C1ADC002C35DD8001451EA841DB000343520F13435A074A
:402C800004D00F221A40042A00D004338022D2041A4027D00134FF2C03D09B015B0AE4B201E0FF2400235B02E4055B0A23435B00C9075B080B43181C70BD002D06D113431E
:402CC0000ED100245B025B0AE4B2ECE71A43E8D08020DB0080040343FF24D0E717340CDA05230024DB08FF2CECD1002B2DD08022D20313435B025B0AD5E78024164824048D
:402D00002343401B1F280DDC144CA4466544AB401C1C131CAB405D1EAB41C240234313430024ACE71E1C0E4C641BE640341C20280DD00C4884466544AB401D1C2A43531E1F
:402D40009A41131C2343002499E70023ABE70025F4E7C04680FCFFFF9E03000082FCFFFF7E030000A2FCFFFF1C2101231B04984201D3000C10391B0A984201D3000A08392F
:402D80001B09984201D30009043902A2105C40187047C0460403020201010101000000000000000008B500210A2200F0F9F808BD014B18687047C046480100200E4B70B5A7
:402DC00000251E1C0D4CE41AA410A54204D0AB00F35898470135F8E701F0AAF8084B00251E1C084CE41AA410A54204D0AB00F35898470135F8E770BD3C3F00003C3F0000B1
:402E00003C3F0000443F0000002310B5934203D0CC5CC4540133F9E710BD031C8218934202D019700133FAE7704700000EB410B59DB002A9029008610B488224886048612A
:402E4000012040421FABC881084804CBA400006801938C8100F012F90023029A13701DB010BC08BC03B01847FFFFFF7F480100200023C25C0133002AFBD1581E70470000A7
:402E8000F0B51E1C444B87B01B68059002930B1C039101921C78029A5D1C121950780822104001D02B1CF5E72D2C04D19D1C5C780123009304E000902B2C01D15C789D1CCC
:402EC000002E02D0102E0AD160E0302C5CD120222B789343582B52D110266C780235009F311C7B1E9F412D4BFF18381CFEF77AFD381C0491311CFEF7EFFC0022071C131C00
:402F0000029909194978480701D5303C07E00320084017D03721012800D02031641AB44210DA511C0BD0BB4207D802D1049A944203DC73430122E31801E0012252422C78EF
:402F40000135DDE7181C511C0BD10098059A431E9841124BC01822231360019B002B0AD117E00099002900D05842019B002B10D0039B002A00D06B1E019A136009E03024A4
:402F8000002EACD10826AAE70A26A8E7302CA6D19DE707B0F0BDC0464C010020FFFFFF7F38B5051C0C1C131C034A291C1068221CFFF766FF38BDC04648010020F0B58E6837
:402FC00085B0071C0C1C03920193B34245D390238A89DB001A423DD003250969236801985B1A029363695D43EB0F5D19029B6D1001331B189D4200D21D1C381C53050FD572
:40300000291C00F01DFB061E13D0029A2169FFF7FBFEA289184B134080221343A38111E02A1C00F065FB061E0CD1381C216900F0C1FA0C23402201203B60A38940421343C8
:40304000A38117E0029B2661F61826606561019EED1AA560019BB34200D2019E321C2068039900F092FA0020A3689B1BA36023689E19266005B0F0BD7FFBFFFFF0B59FB0A2
:40308000029005938B890E1C171C1B0610D50B69002B0DD1402100F0D3FA30603061002804D10C23029A01381360D0E040237361002306AD6B6120336B761033AB763C1CC6
:4030C0002378002B03D1E31B049312D003E0252BF9D00134F4E7049B0298311C3A1CFFF76DFF431C00D1ACE06A69049B944663446B612378002B00D1A3E001220023524206
:403100006A6002A95432521801342B60EB60AB601370AB654F4F2178381C052200F02AFA002808D0C01B01278740381C2B68013418432860EEE72B68DA0604D5532220211B
:4031400002A8121811701A0704D553222B2102A81218117022782A2A01D0099B0EE0059A111D12680591002A01DB099204E05242EA60022213432B60013409E02278303A32
:40318000092A04D80A214B4301349B18F6E7099323782E2B18D163782A2B09D1059B02341A1D1B680592002B0DDA01235B420AE0002301342278303A092A04D80A214B43F7
:4031C00001349B18F6E70793234F2178381C032200F0D0F9002807D0C01B40278740381C2B6801341843286021781C480622671C297600F0BFF9002812D0194B002B06D1CD
:403200000722059B073393430833059314E005AB00930298291C321C124B00E000BF07E005AB00930298291C321C0E4B00F08AF80390039B013304D06B69039A9B186B6137
:403240003DE7B3890B985B0601D5012040421FB0F0BDC046FB3E0000013F0000053F000000000000BD2F0000F7B5171C01930A698B6800900C1C934200DA131C221C3B60FE
:4032800043321278002A01D001333B6023689B0602D53B6802333B60062523681D401ED0231C43331B785A1E9341226892061CD53020E1184031C870211C5A1C453109788B
:4032C000A21840320233D1700FE0221C0123009801991932089EB047431C0ED00135E3683A689B1A9D42F0DBDAE7221C009801994332089DA847431C02D10120404220E0F3
:4033000006232068E1683A6803400025042B03D18D1AEB43DB171D40A3682269934201DD9B1AED180027AF420ADA221C0123009801991A32089EB047431CDED00137F2E7C8
:403340000020FEBDF0B58BB006920A1C43320793059004920A7E0C1C109B6E2A00D1A8E011D8632A22D009D8002A00D1B2E0582A00D0C2E045310A707C4A4FE0642A1DD024
:40338000692A1BD0B9E0732A00D1A7E009D86F2A29D0702A00D0B0E0202209680A43226037E0752A1FD0782A33D0A6E00E1C1A684236111D196013683370A1E021681A68CD
:4033C000080606D4490604D5111D19600023D55E02E0111D19601568002D3BDA2D23049A6D42137036E021681A68080606D4490604D51568111D1960ADB202E0111D19601B
:4034000015685A4B227E03930A276F2A1DD108271BE0221C782145321170554A19680392081D226818600D68100602D4500600D5ADB2D30702D520231A4322601027002D85
:4034400003D1202322689A432260231C002243331A7002E00A27454B03936368A360002B03DB0422216891432160002D02D1049E002B0ED0049E281C391CFEF7B3FA039BB1
:40348000013E5B5C281C3370391CFEF725FA051EF1D1082F09D12368DB0706D563682269934202DC3023013E3370049B9B1B23612BE009681A68080607D4490605D5111D33
:4034C00019601368A28A1A8004E0111D1960136862691A600023049E236116E01A68111D196016680021301C626800F043F8002801D0801B6060636803E0261C4236327021
:40350000012323610023049A1370079B05980093211C069B09AAFFF7A7FE431C02D10120404221E0236905980699321C079DA847431CF4D023689B0705D4099BE068984233
:4035400012DA181C10E00025E368099A9B1A9D42F3DA221C0123059806991932079EB047431CDCD00135EFE70BB0F0BD0C3F00001D3F0000C9B28218904204D003788B4219
:4035800002D00130F8E70020704710B5814208D28B18984205D29B1A013A09D3995C8154FAE70023934203D0CC5CC4540133F9E710BD000030B500293ED004390B68002B42
:4035C00000DAC9181D4A1368141C002B02D14B60116031E099420DD208680A189A4203D11368C3180B6053684B60216024E08A4203D8131C5A68002AF9D11D685C198C42D7
:403600000BD10968691858181960904214D110685268091819605A600EE08C4202D90C23036009E008680C18944203D114685268001908604A60596030BDC046A80300206E
:40364000032370B5CC1C9C430834051C0C2C01D20C2405E0002C03DA0C2300202B6042E08C42F9D3204A1368101C191C002913D00A68121B0DD40B2A02D90A608B181FE02E
:403680008B4202D15A6802601BE04A685A600B1C17E00B1C4968E9E7144E3368002B03D1281C00F04BF83060281C211C00F046F8031C421CD0D00322C61C964386420AD1C7
:4036C0001C60181C07210B301A1D8843821A0AD05142995007E0311A281C00F02FF8431CBAD0331CECE770BDA8030020A4030020F8B5061C0C1C151C002904D1111CFFF723
:403700009FFF041C18E0002A03D1FFF753FF2C1C12E000F025F8A8420ED2301C291CFFF78FFF071E07D0211C2A1CFFF76DFB301C211CFFF73FFF3C1C201CF8BD38B5002374
:40374000064C051C081C2360FDF7C4FA431C03D12368002B00D02B6038BDC046E00600200B1F1A68101F002A04DA891804390B68D018043870470000000000004C656D6F9C
:403780006E616465000000004553506973424553540000003139322E3136382E34332E313235000041542B43574A41503D222573222C222573220D0A000000004F4B0000B4
:4037C00041542B43495053544152543D22544350222C222573222C25640D0A0041542B43495053454E443D25640D0A006C696E6B000000002B4950440000000056616C7572
:4038000065206F757473696465207065726D697474656420706C616E7420736574206461746120666F72204D6F6973740D0A000056616C7565206F757473696465207065FA
:40384000726D697474656420706C616E7420736574206461746120666F7220526F746174650D0A004D256325640000004D256330256400004D25633030256400572563252F
:4038800064000000572563302564000057256330302564004C256325640000004C256330256400004C256330302564004225632564000000422563302564000042256330CD
:4038C0003025640054256325640000005425633025640000542563303025640025732573257325732573000041542B434950434C4F53450D0A00000041542B5253540D0A5F
:403900000000000041542B43574D4F44453D330D0A00000047470000576F726B732E2E2E000000005072696E7420616C6C0000004D6F6973743A256420526F746174653A55
:403940002564204375724D6F6973743A25642043757257617465723A256420437572426174746572793A25642043757254656D703A25640D0A0000005072696E74207365EE
:403980006E736F72310000005072696E742073656E736F72320000005072696E742073656E736F72330000005570646174652073656E736F72000000526563656976652021
:4039C0006461746100000000546573742050756D7000000050756D70206973207374617274696E670D0A00004261743A25640D0A0000000050756D7020697320646F6E6535
:403A00002070756D70696E670D0A000080300F40800300400F40000400300F40EC3C00008000000003000F403B300F404A310F4069320F4051330F400C400F4003410F4052
:403A400002600F408038810F837685148848890C8A258B11911C930294E39540961C970398E399109A1C9B0C9CE09E1CA01FA2E0A403A510A6FCA892A920AA25AC25AD09E2
:403A8000AEDAAF10B2FFB31FB520B740BE04BF50C063C102C50BC6C0C70EC819C9FFCAFFCBFFCEF0CF44D00CD401D604D804D904DA04DB04DC10DD11DF01E6C0EA40EB0209
:403AC00001A0021004200610072008010A400B0A0C140D400E14112812021449150A1704180119201B021E20212A228825402604270828542E082F0B3140322033843520BC
:403B000036063701382839803B013D203F044001410843204516464049504A204D204F0450045630570859015C425F286080612062406408660167088C808E01C047C2EB3F
:403B4000C4F7CA77CCEECE6FD06ED22CD6F1D88DE210E640003D02C004A8065407A308CD0A300B800C550EA8115C1201138315E11602170E18CD1A301CC01E30240D26F089
:403B8000270829E12B162F1C3003318032FC3360351A370F39083A203BA03F054002470449FF4A0F4BFF4C404D204EF04F055008580459045A045C115D015F01604061A806
:403BC00062406320820C84F38540860C8718880F89088AF08C418D1090C39140941C95A796E397189882993C9B829CFF9F04A2F3A303A408A53CA781A804A9BFAD04B0C0F2
:403C0000B120B22CB360B40FB51FB61CB780B988BA28BB20BF01D602D713D804D904DB04DC11DD10DF01018002400328058407440A600B0A0D400E64106011011220131079
:403C4000150819091A081BA81D141E401F04210422192301244025102719284029982D202E082F0230023294370939083B503D083E203F0447104F0456085A0269826A147D
:403C80006B44702273108A688B408D108F0191019440958A9654970999A09A209D119E089F01A290A302A514A7A0A810A980B002B141B208B308C0FFC2FFC42ECA7FCCCF39
:403CC000CE6ED020D601EE200A402F80668068806F888C808F08C210CA80D680DA80DC60AA40B280E820100A11010000000000020300040113000C100004800800004000F5
:403D0000000400080000800200000801000C000020040508130404080A0014003001000C0F02C010020020000000401123060500010E000C11FFFFFF62A0F0410C00000047
:403D4000180004000404040411110001000000000000400200103010001010120000000000000000000000000000000000000000000000000001000000000000000000002F
:403D80000007040603000000030405060708090A0B0C0E0F101112131415161718191B1C1D1E1F2021222325262728292A2B2E2F3031323334350000802000005E200000E1
:403DC0005E20000052200000461F0000461F00004620000052200000461F000046200000461F0000522000004A1F00004A1F00004A1F0000602200004300002020202020EF
:403E000020202020282828282820202020202020202020202020202020202088101010101010101010101010101010040404040404040404041010101010101041414141E6
:403E40004141010101010101010101010101010101010101010110101010101042424242424202020202020202020202020202020202020202021010101020000000000038
:403E80000000000000000000000000000000000000000000000000000000000000000000000000000000000000000000000000000000000000000000000000000000000002
:403EC0000000000000000000000000000000000000000000000000000000000000000000000000000000000000000000000000000000000000000000000000232D302B20F7
:403F000000686C4C0065666745464700303132333435363738394142434445460030313233343536373839616263646566000000F8B5C046F8BC08BC9E4670474D02000044
:403F40004D0D0000F8B5C046F8BC08BC9E46704725020000683F0000C80000208800000098050000000000000000000006020000E80600200000C05D80BB000030000000A8
:403F8000006CDC02040404000000000000000000000000000000000000000000000000000000000000000000F83D0000000000000000000000000000000000000000000076
:403FC00000000000000000000000000000000000000000000000000000000000000000000000000000000000E8000020FA3D00000000000000000000000000000000000082
:404000000000000000000000000000000000000000000000000000000000000000000000000000000000000000000000000000000000000000000000000000000000000080
:404040000000000000000000000000000000000000000000000000000000000000000000000000000000000000000000000000000000000000000000000000000000000040
:404080000000000000000000000000000000000000000000000000000000000000000000000000000000000000000000000000000000000000000000000000000000000000
:4040C00000000000000000000000000000000000000000000000000000000000000000000000000000000000000000000000000000000000000000000000000000000000C0
:0200000490303A
:020000007395F6
:0200000490402A
:200000000000000000000000000000000000000000000000000000000000000000000000E0
:0200000490501A
:0C000000000204C81193110104DC8528E3
:0200000490600A
:0100000001FE
:00000001FF