:400000000010002011000000CD0D0000CD0D000008B500F0F3FE0000F8B572B60122574B00211A70E0225648920003F09CF8802200240021D200534803F095F85248534925
:40004000802203F087F8201C514AFF25A75820323E1C111C4300AE433D4001334019D318420001328A18934206D0591E09781D7889190D700233F6E70434202CE4D1A022F5
:400080000127444B12011A80434B444A1F70444B02211A60EE22434B12021A60424A434B3C201A608022424B92041A60414A424BF1251A609923414A1B041360404A414E10
:4000C0001360414A13600F22404B1A60404B093A1A60404A13780B433F4913700B788343283803430B70162113781C300B43137021223A4B1A603A4A3A4B1A6080223A4B6E
:400100001A60D822394B12011D60394B1D60394B1A6080223368D2021343336001F02EF8354A364B36491A601022364B09201A60354B20321C60354B1A608222344B120655
:400140001A608023DB023360324A334B1A60334A334B1A60334A344B1A6000F0A7FF092000F0C4FF0022314B381C1A60304B1D60304B1D6000F08AFEF8BDC0461C700F40B7
:4001800080300F4000400F4000300F40683C0000E83C000000600F4002600F4003003000000001400C0001400404390000500F4004500F400200000408500F4010500F406A
:4001C00020500F4000010B4030500F402000004000800F4000700F4001700F4000000440B61DDB0008000440180104400002044018020440080304400600008004010B4013
:40020000411300001C020240340202403C02024008010B4002000080000002403801008040000240DF2E0080800002400C020B4000031A4040031A4010B5064C2378002B40
:4002400007D1054B002B02D0044800E000BF0123237010BD5001002000000000C43A000008B5084B002B03D00748084900E000BF07480368002B00D108BD064B002BFBD06C
:400280009847F9E700000000C43A000054010020C800002000000000054808B50549064A00F0B0FC054801F0ABF800F02BF8FCE7C83A0000D93A0000F03A00007D0300004A
:4002C00010B500F0E1F900F037FA00F0AFF800F0ADF900F02BF900F0A9F8094C208000F02BFAE08000F0D0F9608000F025FAE08000F09CF9208100F019F9A08010BDC046EF
:40030000D003002070B5FFF7DBFF322000F016FF154C164D2378062B0CD168882B88E98800041843AB88090419432A8900F054FB0023237000200E4E305600F0F9FC002350
:40034000002233700B4B9A5600216B5E9A4203DBFA20800000F0F2FE237807480133237000F0ECFE70BDC046CC000020D00300204E040020A803002060EA000038B5254CD2
:400380002578312D08D8002000F05EFE224B6D00E8522378013323706578312D08D8032000F052FE1D4B6D00E852637801336370A578072D0CD8022000F046FE011C022047
:4003C00000F04EFE164B6D00E852A3780133A370E578072D0CD8012000F036FE011C022000F03EFE0F4B6D00E852E3780133E3702579072D0CD8042000F026FE011C022022
:4004000000F02EFE084B6D00E85223790133237138BDC0466C01002050040020DA030020AE030020BE0300203E040020F8B5314C2378322B5BD1304D01212888031C4A002F
:40044000AA5A06B217B2BE4205DC1EB2B74200DA1A1C93B200E0101C01313229EFD1FA2100B21BB21B1A25488900584301F080FA234B00B298420CDD02F0E0FD0022214B94
:4004800001F0CEFE204A214B02F008FB204A214B0BE002F0D3FD00221A4B01F0C1FE1E4A1E4B02F0FBFA1E4A1E4B01F091FB00221D4B02F0F3FA00220023061C0F1C01F008
:4004C0005FFB00280AD1301C391C0022164B01F06BFB002804D00026134F01E0002600270023301C2370391C02F072FDE0800623E05EF8BD6C010020500400202603000014
:400500005C04000000408F407DCEDDAE97A6CCBF98C0ADBB79AAE23FD8BB3FDEAB56F1BFC39E76F86BB2F83F00005940F8B5314C6378322B5BD1304D01212888031C4A0047
:40054000AA5A06B217B2BE4205DC1EB2B74200DA1A1C93B200E0101C01313229EFD1FA2100B21BB21B1A25488900584301F000FA234B00B298420CDD02F060FD0022214B93
:4005800001F04EFE204A214B02F088FA204A214B0BE002F053FD00221A4B01F041FE1E4A1E4B02F07BFA1E4A1E4B01F011FB00221D4B02F073FA00220023061C0F1C01F088
:4005C000DFFA00280AD1301C391C0022164B01F0EBFA002804D00026134F01E0002600270023301C6370391C02F0F2FC20810823E05EF8BD6C010020DA030020260300008A
:400600005C04000000408F407DCEDDAE97A6CCBF98C0ADBB79AAE23FD8BB3FDEAB56F1BFC39E76F86BB2F83F0000594010B5114C0020A378082B1AD1031C0F4A125A0230FB
:40064000D3189BB21028F8D10C4A18B2C310981802F0F4FC0A4A0B4B02F020FA0023A37002F0B6FC03B2DB43DB17184080B200B210BDC0466C010020AE0300208EF9FFFF75
:4006800079E9263108AC8C3F10B5204B0020D9781A1C082937D101231D4C5900615A0133081880B2082BF7D100B21A4BC0101A49C31864208B4224DC18490A388B4220DCEE
:4006C00017490A388B421CDC3C390A388B4218DC14490A388B4214DC13490A388B4210DC12490A388B420CDC3C390A388B4208DC0F490A388B4204DC0E490A388B4200DC25
:4007000005380023D37000B210BDC0466C010020BE030020B2070000E40C0000A80C00006C0C0000F40B0000B80B00007C0B0000040B0000C80A00002B4B002019791A1CC6
:4007400008294ED1031C2949095A0230CB189BB21028F8D100201BB2DB1083423FDD0130E42B3CDD224904308B4238DD7631FF3105308B4233DD1F4928308B422FDD1E4956
:4007800032308B422BDD1D4932308B4227DD1C4932308B4223DD1B4932308B421FDD1A498B4211DD19498B4210DD19498B4210DD18498B420FDD18498B420FDD174900203C
:4007C0008B420CDC16480AE0962000E0C820400005E0FA20FBE79620800000E011480023137100B27047C0466C0100203E040020D302000069080000E70900009C0A00000D
:40080000060B00004C0B00007E0B0000C30B0000F10B0000110C0000320C0000E40C0000E7030000EE02000070B5114D2C78002C1DD100F0CDFE061CA64218DB00F05CFE95
:400840000C4B002806D00A2804D00D2802D01A78FF2A06D100215A1C1B78D15401232B7005E0591C885401321A700134E4E770BDB40400207601002008B5FFF7D5FF08BD9B
:4008800070B500240E4E3378A34216D0051CFFF7CBFF231C0B4A00211078834206D20132D05CE854D1540133DBB2F3E72954281C1170317002F082FCC4B2201C70BDC046CF
:4008C000B40400207601002070B5061C02F076FCC5B2002400F040FE002807D0335D8342F7D10134E4B2AC42F4D3012070BD0000F0B585B002AC0F1C061CFFF7C1FF201C64
:400900001749052202F026FC0023E15CF25C914201D0002021E00133042BF6D1002433195B7901A83A2B03D003550134E4B2F6E70025055502F0DCFBC3B2AB42E9D00634BD
:40094000E4B23219525D7A550135EAB29A42F8D30022C0B23C192254181C05B0F0BDC046FE3A0000F0B5051CC5B004AC281C211CFFF7BEFF0028F8D06778A678E07822796D
:40098000E579217A637A114C27706C46267001AC25706D46A370002368706846AA70EB70E370617002F0A4FB051C201C02F0A0FB2B1C0A3BDBB2C2B25A2B01D8044B1D7099
:4009C000C82A01D8034B187045B0F0BDCD000020A80300204E040020F0B5141C82B213B2DDB0050C8FB20E0CA4B2632B04DD6C4A08A812786B490FE090B2021C0A3A592A44
:400A000004D8674A08A81278674905E0092805D8634A6649127808A802F0AEFB3BB2632B04DD5F4A0CA8127861490FE0BFB23A1C0A3A592A04D85A4A0CA812785D4905E068
:400A4000092F05D8564A5C4912780CA802F094FB33B210AF632B04DD514A381C127857490FE0B6B2321C0A3A592A04D84C4A381C1278534905E0092E05D8381C484A514960
:400A8000127802F079FB2BB2632B04DD444A14A812784D490FE0ADB22A1C0A3A592A04D83F4A14A81278494905E0092D05D83C4A4749127814A802F05FFB23B2632B04DD14
:400AC000374A18A8127843490FE0A4B2221C0A3A592A04D8324A18A812783F4905E0092C05D82F4A3D49127818A802F045FB18AB019314AB3A4908AA029300970CAB3CA8A7
:400B000002F03AFB3CA802F059FB364D84B2291C221C1CA802F030FB322000F00FFB1CA800F0ACFD642000F009FB2F48FFF7CCFE002826D09620400000F000FB2B492C4A06
:400B40002C4B1CA802F018FB322000F0F7FA1CA800F094FDFA20800000F0F0FA2648FFF7B3FE0028FAD1291C221C1CA802F004FB322000F0E3FA1CA800F080FD642000F045
:400B8000DDFA3CA800F07AFD1C48FFF7EBFEFA20C00000F0D3FA1A4800F070FD5DB0F0BDCD000020033B0000093B0000103B0000183B00001E3B0000253B00002D3B000092
:400BC000333B00003A3B0000423B0000483B00004F3B0000573B00005D3B0000643B00006C3B0000773B0000873B00008C3B0000F03A0000B8220000A83B0000760200205E
:400C0000AB3B0000F0B5071CC1B00D1C161C62B600F002FA00F00EFA3B4800F0B7FD00F05DFC3A4800F02AFDFA20400000F086FA374800F023FD374800F080FA364800F085
:400C40001DFDFA20400000F079FA34493A1C2B1C684602F091FA322000F070FA684600F00DFD2F4800F06AFA03242E48FFF72CFE002803D0642000F061FA11E027493A1CFB
:400C80002B1C684602F078FA322000F057FA684600F0F4FC013C224800F050FA002CE4D1642000F04BFA204C321C211C1F4B684602F062FA322000F041FA684600F0DEFCED
:400CC000FA20800000F03AFA03251648FFF7FCFD002803D0642000F031FA12E0211C321C124B684602F048FA322000F027FA684600F0C4FCFA20013D800000F01FFA002D9C
:400D0000E3D141B0F0BDC04679080000AB3B0000B93B0000B80B0000C23B0000D03B000088130000A83B00008C3B0000B822000038B5254C0022A35E002B01D101332380C1
:400D4000C543ED170540002D3CD00023E05E012807D100F037FD0A2000F0F0F9002000F031FD0022A35E022B08D1012000F036FD0A2000F0E3F9002000F030FD0022A35E5F
:400D8000032B08D1012000F035FD0A2000F0D6F9002000F02FFD0022A35E042B08D1012000F034FD0A2000F0C9F9002000F02EFD2388042B01D1033B00E00133013D238061
:400DC0002DB2C0E738BDC046AA030020FEE7000008B5031C0749084A0868C3189A1A802A01DC0B6005E002F089F90C2303600120404208BDD0000020E006002070B510498A
:400E0000104B01394A1C15D000221E685C689D68A018AA4203D0B058A0500432F8E7021CDC68151AA54202D0002520C2F9E710330139E7E702F068F9FFF72EFAFEE7C04605
:400E400001000000D841000008B500239A000B49032B01D80A4989580A4801338150302BF4D1FFF7D9F80022074B01211A608022D20513680B43136008BDC046CD0D0000A7
:400E80000000000000000020C0000020054A1368002803D0802109060B4301E05B005B081360704780031A40F8B50E20032100F005F90E20354900F0F9F81F22344B1A6015
:400EC000344B1B68002B01DB334900E033490024334A344E1368344F0B431360334A344B1A60344A344B1A60344B354A1C60354B1360354A13600122344B34603C601A6097
:400F0000334B92181A60334A334B11680B40C02189040B431360314BDC22181CA500E9581430205C92010A4002432D48281802600122114203D0A24031680A4332605A593E
:400F4000920704D50122A24039680A433A605B5980209A0501D4400100E0C00021496200DB0503D443085B429BB200E000238B521D4B1E4958431E4B0134C01800F0F8FC6D
:400F80001C4B5851052CC6D1F8BDC046A110000020001A4080031A40E02E0010E02E101000001A4028021A4038021A408D00008004001A400000FF0718001A401C001A407F
:400FC00010001A400200020014001A4018021A40000F1A4030001A40FFFFFFDFB03F000080001A40B804002010270000E40C000072060000C404002008B5064B1A68002AEC
:4010000007DB80211A6809060A431A600A2000F0ABF808BD00001A4010B5054C2378002B03D1FFF741FF01232370FFF7E5FF10BD750300208021034A490213680B431360A8
:401040007047C04604001A400023042804D8034B8000C01803689BB218B2704780011A4038B50C4B4200D35A0B4D8000C91A0B4C2A5809B24C43D30F002902DD9B185B10D7
:4010800002E09A18521053422958E01800F070FC00B238BDB8040020C404002010270000014B1A681A60704710021A40024B8000C3181868196070474000002038B5041CFE
:4010C0000D1C00F0BBFBA308074A9B009B180322144094400634A240A540196891432943196000F0AFFB38BD00E400E01F2318401E3B8340181C014B1860704700E100E0D6
:401100001F2318401E3B8340181C014B1860704780E100E01F2318401E3B8340181C014B1860704700E200E01F2318401E3B8340181C014B1860704780E200E010B5041C56
:401140008022074B1202944205D9186800F06CFB044BE418F4E75868604300F065FB10BDD40000200080FFFF08B5034B1B7A584300F05AFB08BDC046D4000020F0B5051CBF
:4011800087B000F05BFBEB1E049003932D2B5BD8304B1B789D4204D82F4B1C782F4BE4B21EE02F4B1B789D4204D82E4B1C782E4BE4B215E02D4B1B789D4204D82C4B1C7865
:4011C0002C4BE4B20CE02C4B1B789D4204D82B4B1C782B4BE4B203E02A4B1C782A4BE4B21B78039ADBB20193284B294F9A5C059302922F2A04D92A2D02D919263E6008E099
:401200003F233E681E40029BB34205D2204B029A1A60052000F008FB1B4B1E4AED182B780520DBB213601C4B019A1C601B4B1A60FFF79AFF029BB34206D9059B039A0520EB
:401240009B5C3B6000F0F0FA049800F0FBFA07B0F0BDC046C0F1FF0FC1F1FF0FC2F1FF0FC3F1FF0FC4F1FF0FC5F1FF0FC6F1FF0FC7F1FF0FC8F1FF0FC9F1FF0FCAF1FF0FAB
:40128000CBF1FF0FCCF1FF0FCDF1FF0FCC3F00002CFF0B4028FF0B401CFF0B4020FF0B4008B500F0CBFAC021034A090213680B43136000F0C7FA08BD00010B4010B58024F8
:4012C00000F0BCFA0749084B0A68E4011A4022430A600A6813408022120213430B6000F0B1FA10BD00010B40FF3FFFFF70B5051C00F0A4FA0E4B041C1A68C0231B021340D7
:4013000011D10C480C490540281C0E680B4A3240104308600A68012B01D1FFF7C1FF201C00F090FA70BDFFF7C9FF0123E9E7C04600010B400404040010020B40FBFBFBFF3B
:40134000042238B5224C2368134213D021490B6813420CD0204B9D6908681540A8430860996991439961DB68002B00D098470420FFF7BCFF80232268DB001A4215D0154929
:401380000A681A420DD0144A956908682B40984308609169114B0B4093611369002B00D098478020C000FFF7A1FF80232268DB021A420CD0074A12681A4204D0064B5B69D5
:4013C000002B00D098478020C002FFF78FFF38BD10020B40E400002078030020FFFBFFFF10B5041C00F02AFA044AA40713689B009B082343136000F025FA10BD00E400E020
:4014000010B50824044B1C60044BD8640120FFF7E7FF034B1C6010BD80E100E00000002000E100E008B511490020FFF73FFE00200321FFF743FE00220D4B0E491A700E4B16
:4014400076321A700D4B563A1A700220FFF72EFE02200321FFF732FE0E22094B1A70094B81321A70084B8D3A1A7008BDA1160000940300201D17000083000F4080000F40CD
:4014800022000F4032000F4081000F4038B500F0D5F920211025041C0D4A002013780B4313700C4A13782B431370FFF71FFE0A4A022013782B431370FFF736FE0220FFF73D
:4014C00015FE00F075F9201C00F0BCF938BDC04693000F4090000F4091000F4010B5054C6378002B03D1FFF79DFF01236370FFF7CDFF10BD9403002010B50020FFF700FE66
:40150000124A9378D0781479DBB2C0B2111C002C01D1834211D00E4AD45C0133DBB21A1CFF3A501E8241524213408B700B79E4B2002B05D000230B7102E0064B1C78E4B2BE
:401540000020FFF7D3FD201C10BDC04694030020D804002040000F4010B50020FFF7D0FD174A9378D0781479DBB2E4B2C0B2111C002C01D1834211D0124AD45C0133DBB298
:401580001A1CFF3A501E8241524213408B700B79E4B2002B0FD000230B710CE00A4B1B78DBB29A0607D5094A11781E2213405C4263415C420C400020FFF798FD201C10BDBA
:4015C00094030020D804002060000F4040000F4010B50020FFF794FD0D4A9178D378994204D11479631E9C4164420BE09178D378994203D2D37894781C1B03E0D4789378EB
:40160000013CE41AE4B20020FFF770FD201C10BD9403002038B5154CE279A179C9B28A4202D24B1ED31A01E0531AFE3B5D426B41DBB2002BF1D10E4D914205D12B785B070D
:4016400002D40C4B18700FE0131CFF3B591E8B415B421A40084B985402200132E2712B78034201D0FFF756FD38BDC0469403002061000F4041000F40D705002038B500243B
:40168000064B051C5B78A34207D0285D002804D00134FFF7BFFFA4B2F7E738BD940300201E22164B1B78DBB21A4003D0144801780A4302709B061FD5124B13481978134B21
:4016C000C9B21A78D2B2815411490A78002A02D00120104A10701A780132D2B21A701A78FF2A01D100221A701A780B4B1B789A42D6D101230B70D3E77047C04660000F40E2
:401700009403002040000F40D8040020970300209803002099030020960300200D4B0E491A780978914214D00C4A117804220A400FD11978FF2900D11A701A780849D2B25A
:401740008A5C0849D2B20A701A780132D2B21A70E4E770479A0300209B03002061000F40D705002041000F4010B5041C00F066F80449054A0B68A403134023430B6000F02B
:4017800061F810BD00E400E0FF3FFFFF10B50224044B1C60044B58640020FFF7E5FF034B1C6010BD80E100E00000002000E100E08021034A090613680B4313607047C04699
:4017C000400002400423044980000A689A43D2B2034013430B607047000004404023044980010A689A43D2B2034013430B6070470000044008230449C0000A689A43D2B293
:40180000034013430B607047000004407F23044AC00111680B401843C0B210607047C04600000440000000000230800804D0C0460138FDD1C046C046C0467047EFF3108020
:4018400072B6704780F310887047C046C046C046002243088B4274D303098B425FD3030A8B4244D3030B8B4228D3030C8B420DD3FF22090212BA030C8B4202D312120902CE
:4018800065D0030B8B4219D300E0090AC30B8B4201D3CB03C01A5241830B8B4201D38B03C01A5241430B8B4201D34B03C01A5241030B8B4201D30B03C01A5241C30A8B42F7
:4018C00001D3CB02C01A5241830A8B4201D38B02C01A5241430A8B4201D34B02C01A5241030A8B4201D30B02C01A5241CDD2C3098B4201D3CB01C01A524183098B4201D370
:401900008B01C01A524143098B4201D34B01C01A524103098B4201D30B01C01A5241C3088B4201D3CB00C01A524183088B4201D38B00C01A524143088B4201D34B00C01A09
:401940005241411A00D20146524110467047FFE701B5002000F0FCF802BDC0460029F7D003B5FFF775FF0EBC4243891A1847C04603460B437FD4002243088B4274D303097B
:401980008B425FD3030A8B4244D3030B8B4228D3030C8B420DD3FF22090212BA030C8B4202D31212090265D0030B8B4219D300E0090AC30B8B4201D3CB03C01A5241830BA6
:4019C0008B4201D38B03C01A5241430B8B4201D34B03C01A5241030B8B4201D30B03C01A5241C30A8B4201D3CB02C01A5241830A8B4201D38B02C01A5241430A8B4201D3B9
:401A00004B02C01A5241030A8B4201D30B02C01A5241CDD2C3098B4201D3CB01C01A524183098B4201D38B01C01A524143098B4201D34B01C01A524103098B4201D30B01FA
:401A4000C01A5241C3088B4201D3CB00C01A524183088B4201D38B00C01A524143088B4201D34B00C01A5241411A00D201465241104670475DE0CA0F00D04942031000D322
:401A80004042534000229C4603098B422DD3030A8B4212D3FC22890112BA030A8B420CD3890192118B4208D3890192118B4204D389013AD0921100E08909C3098B4201D38C
:401AC000CB01C01A524183098B4201D38B01C01A524143098B4201D34B01C01A524103098B4201D30B01C01A5241C3088B4201D3CB00C01A524183088B4201D38B00C01A86
:401B00005241D9D243088B4201D34B00C01A5241411A00D20146634652415B10104601D34042002B00D54942704763465B1000D3404201B5002000F00BF802BD0029F8D0D8
:401B400003B5FFF715FF0EBC4243891A1847C0467047C0468446101C62468C46191C634600E0C0461FB500F033FF002801D40021C8421FBD10B500F077FE4042013010BDB7
:401B800010B500F025FF002801DB002010BD012010BDC04610B500F01BFF002801DD002010BD012010BDC04610B500F0A1FE002801DC002010BD012010BDC04610B500F0C2
:401BC00097FE002801DA002010BD012010BDC046F0B5454657464E4694464C000A03C90FE0B488460E1C1903470FC500480A6146490F01436046520A1743C0005A00640DC1
:401C0000520DDB0F8446984500D1A7E0A01A002800DC01E1002A3DD163460B4300D0D4E06B0700D188E00F232B40042B00D183E02A1DAA42AD4180236D427F191B043B40B9
:401C40004646151C002B00D17CE0CC4B01349C4200D1FDE03A1CCA4BED081A405007640552020543120B640D002112030B0D1B056405120B1A436308C24CF60714401C4359
:401C8000640064083443281C211C1CBC90469946A246F0BDB94B9C42C2D080231B041943382800DDECE01F2800DD21E120220E1C6346121A9640C340334366469640321C19
:401CC000561EB24113430A1CC240EB1A9D42B6411D1CBA1A7642971B3B0200D497E07A02560A002E00D1B6E0301C01F0E3F9031C083B1F2B00DDB7E09E40371C28262A1CB6
:401D0000361AF240161C9D403E439C4200DDB2E01C1B621C1F2A00DDD8E01F23291C1C1B331CA540A340D1406C1EA541D64019430D43371C002473E780231B043B404646FF
:401D400000D082E78D4BED0878070543FA089C4232D012036405120B640D85E7A31A002B00DC94E0002A3CD0844A944200D157E7802212041143382B00DC05E163461943E5
:401D8000481E81410022C8B24019A8429B41051CD2195B42D7183B0239D5784B01349C4200D14CE10120764A6B083A4028401843D5070543570833E72B1C134348D0802303
:401DC0001B031A431203120B4EE70138002878D16346EE1AB5429B417A1A5B42D71A351C7AE7021C0A4300D11AE7013B002B00D0F2E04019A8429B41CA195B42D718051C0A
:401E0000C9E7131C334300D118E1171C351C46466B0700D007E795E700287AD1621C5205520D012A00DCFBE06246AA1A9542B6419146781A7242861A320200D493E0624624
:401E4000551BAC458041CF1B40423E1A984648E70022002508E7281C01F02CF92030031C083B1F2B00DC47E7283885402E1C00259C4200DC4CE7424AE41A1640371CCFE670
:401E8000634619434B1E99410022CBB21DE7002B00D0F2E0601C43055B0D012B00DCA4E0364B984200D121E163465C19AC429B41CF195B42FA186408D50725435708041CD6
:401EC000AEE62E4B9C4200D0EAE6A9E6211C331C1F39CB40191C202A00D182E03F231C1BA64035436E1EB54100270D4300248EE7031C0E1C203BDE40202874D040231B1AB8
:401F000099400B1C62461343591E8B4100223343DBE6002C50D0194CA24200D1A8E08024240440422743382800DDD9E01F2800DD39E120243E1C241AA640B0462E1CA14644
:401F4000C640444626434C46A5406C1EA541C74035436046451BCF1BAC45894149427F1A141C9846B8E64B464D46334300D0B8E60026002700240025E4E6C046FF07000013
:401F8000FFFF7FFFFFFF0F801F2B5BDC2022081CD21A9040814660469246D8404A4610438146524660469040021C501E8241484610430A1CDA40E7E63C1C2C4358D0C04331
:401FC000002851D16046451BAC458041CF1B40423F1A141C98467FE68F4A944200D0CAE61EE600267DE700238CE73B1C2B43002C00D0BDE0002B00D1F5E063460B4300D15D
:402000000EE663465B19AB428041CA19404217183A0200D4FCE0814A1D1C17400134FFE53A1C2A43002C51D1002A00D085E062460A4303D00F1C65469846F1E500260027DE
:4020400000257FE6181C0A1C2038C240202B00D1A7E04020C01A8140081C63461843411E8841104300228FE66B4CA24200D05AE70F1C6546141C9846D2E5002C3AD1381C78
:40208000284371D0DB43002B18D0634882426BD0382B00DD9DE01F2B00DDA7E020203C1CC01A8440A1462C1C8246DC404846044350468540681E8541DF402543654465458F
:4020C0009B417F185B42FF18141C64E6002A19D162460A4377D00F1C654698464E4C9FE53D436F1EBD410027EDB232E7041C0027002527E64848824236D0802000045B421F
:402100000743C5E762460A4349D08024ED087807FA0824032843224209D0CE08264206D162464F07381CD20810439846321CD200470F1743C500384C72E562460A4300D10A
:402140006EE56246AE1AB5429241781A5242821A100200D455E66246551BAC458041CA1B4042171A98465BE50F1C6546141C57E5002B34D063460B4311D08024ED0878070E
:40218000FA08240328432242D1D0CB082342CED162464F07381CD20810431A1CC7E71E4C3EE5002059E7041C3E1C203CE640341C20282BD04026301A87403D436F1EBD414E
:4021C00000272543C5E680270026FF03124C0025B8E53D436F1EBD410027EDB26EE70F1C65460D4C1CE50F1C654619E51C1C381C203CE040041C202B0CD04020C31A9F4021
:402200003D436F1EBD410027254357E70027D4E71D1CFCE50027F3E7FF070000FFFF7FFFF0B55F4656464D464446F0B40F0387B098464D003B0BCC0F061C924681469B4669
:402240006D0D01946BD0664B9D4235D080275B467F031F43F3009946624BFF00400F9C4607430023BB46002665440093424617035000D20F53463F0B400D904600D172E0D8
:40228000574A904267D080235B031F435346554A5B0FFF001F43944653460021DB0060444246624092462D1A0E430F2E00D9A1E04D48B600805987465B461E4300D076E0B1
:4022C00000239B469946023308260093CEE799464346BB4601930091009B022B6BD1019B9A46002153460122002789461A403C4B00213F030C0D24053F0B27433B4C1B058E
:4023000027401F437F00D2077F0817434846391C07B03CBC90469946A246AB46F0BD03433ED05B46002B00D19CE1584600F0C2FE2823311C1B1A021C5F46D940083A974050
:402340000B1C96403B439B46B1460023284D00262D1A00938AE7524603213A43A0D10027002302219CE752463A4315D0002F00D185E1381C00F09EFE021C28215046891A87
:40238000131CC8405146083B99409F400B1C074317480021801A83E70027002301217FE700239B4699460133042600935EE703230C2600935AE7032B00D13CE2012B00D02F
:4023C000BFE11A1C019B1A4000210023002789468EE700238027994600223F03004B87E7FF07000001FCFFFFFC3F0000FFFF0F800DFCFFFFBB4500D951E100D14CE14A4633
:40240000039200225C469046013D180E3F0238431B020193030C994603041B0C4946061C201C1F1C0093FFF713FA021C7A4302904946201C171CFFF791FA039B09041B0C04
:4024400019438F420CD9029B8919013B8E4200D952E18F4200D84FE1029B8919023B0293CC1B201C4946FFF7F3F9009F834647434946201CFFF772FA039A0B041404240C62
:4024800023439F420DD95A469B19013A9E4200D930E19F4200D82DE10222524294469B19E344029ADB1B17045A463A439346019C170C220C101C04925A4611042204120C16
:4024C000141C090C7C4305924A43414347436118100C09188C4203D980204002844667440C0C12040804120C3C198118A34200D2E5E000D1DFE01F1B43465C1AA0459241AC
:402500005242BF1AB74200D10EE1381C4946FFF79FF9009B029043434946381C9846FFF71DFA230C0F041F43B8450CD9029BBF19013BBE4200D9FBE0B84500D8F8E0029B4E
:40254000BF19023B02934346FF1A4946381CFFF77FF9009B039043434946381C9846FFF7FDF924040904240C214388450CD9039B8919013B8E4200D9DCE0884500D8D9E0A3
:40258000039B8919023B03934346C91A029B039A1B04059C1A43100C13049146221C049F1B0C5A4344437B437843E318170CDB199C4203D980246402A44660441C0C1204F4
:4025C0001B04120C00199B18814200D296E000D1FCE04A4601231A4391469B4BEB18002B00DC99E04A4652070AD00F2249460A40042A05D004314945924189465242934429
:402600005A46D20106D55A46904B1A4080239346DB00EB188E4A934200DD62E64A465946D208490711435A4689465702514601225B053F0B5B0D0A405AE680205A4600033D
:40264000024208D0074206D107433F0399463F0B4246804B4CE65F4607433F033F0B221C7C4B45E600F026FD031C2030272800DC5EE6083B9E400023B346994665E650464B
:4026800000F018FD021C2032272A00DC75E657460838874000237BE6994500D2AFE65A46594654084A46C8075208024303924A46D2079046A9E60027884500D31CE7019F4A
:4026C0005A46BC46E044B845BF417F42BF19FF18013ABE4206D2BC425FD800D19FE03F1B934609E7B742FAD1019B4345F3D9371B934601E79346D4E60293B1E64A468919F4
:40270000013A8E4218D99146814200D061E7019A9A4200D05DE760E74F4F7F1B382F13DD012253461A404FE601235B42994654E7029308E7039327E788423CD874D0914643
:4027400047E7019B9A4648E71F2F44DC434B4A469C465B466544FA40AB4013434A46AA40151C6A1E95415A46FA402B43171C5A0709D00F221A40042A05D01A1D9A429B4112
:402780005B42FF18131C3A023ED55346012200211A40002701238946AAE502235B429C46019AE3449446E04490459B415B429B19DF193F1BA0E6019F4A467C00BC42BF411F
:4027C0007F42BF19023AC91901949CE7002B95D1002201929BE75A46214B5B1BDA40202F27D0204B9C465B466544AB4049460B43591E8B411343072200271A4007D00F22B6
:4028000000271A40042AB8D17A077F023F0BDB0813439946012253461A40002368E54145BBD89346002767E6019C9C42C3D391466DE70023DAE780275B463F031F433F03C2
:402840003F0B019A034B53E5FF030000FFFFFFFEFE070000FF07000002FCFFFF1E040000E2FBFFFF3E040000F0B55F464D4644465646F0B41F035C00DB0F99461B4B0E0345
:402880004D00C90F8446360B6D0D8B4690463F0B640D9D420CD0154B9C4210D00123A54214D0181C3CBC90469946A246AB46F0BD311C01230143F4D10C4B9C42EED13A43F2
:4028C0000123002AEDD10123A542EAD1BE42E8D1C445E6D1CB4506D0002DE2D13043031C581E8341DDE70023DBE7C046FF070000F0B5574645464E46E0B40F034E00C90F19
:402900008A4632491D035C0084463F0B760D90462D0B640DDB0F8E420FD08C4239D0002E10D13843414241418946002C27D12A4325D1002000290ED108E0391C01432ED1BD
:40294000B44226D0002C0BD09A450DD05346594201231943081C1CBC90469946A246F0BD2A43F3D09A45F1D1A642EFDC1ADA504641424841012341421943081CEBE74A460B
:40298000002AE1D058425841012241421143081CE1E7291C114302D1002EC2D0D4E702204042D8E7AF42D1D809D00020AF42D2D2504641424841012340421843CBE7C44553
:4029C000C4D80020C445F3D3C5E7C046FF070000F0B55F464D46444656468046F0B4061C0803000B84462C484C001F035D00C90F640D8B4691463F0B6D0DDB0F844212D09F
:402A0000854225D0002C14D161460E4370424641002D35D0002E21D058425841012143420B43181C0EE06146022031430AD1A5420ED0002D12D13A4310D15B465942012352
:402A40001943081C3CBC90469946A246AB46F0BD391C02201143F5D1002CD5D09B45ECD1AC42EADC05DBBC45E7D80FD00020BC45E8D2584641424841414201200843E1E735
:402A80003A43C7D10020002EDCD1D6E7C845D4D80020C845EDD3D5E7FF070000F0B55F4656464D464446F0B4051C061C080387B099464F00030BCC0F92469B467F0D0194C4
:402AC00067D06C4B9F4236D080205B4640031843C0006B0F1843684B83469C4600239846EE00674400934B4649461D03C90F5B0052462D0B5B0D894600D16EE05D498B42F6
:402B000064D080205C4940038C4600210543ED00500F0543D20063444846FF187B1C9A46009B604002900B430F2B00D9ACE053489B00C3589F465B461D4300D082E0082327
:402B4000009300239B46023300269846CBE7029B01934346022B59D1012400250026019B1C40444B00212D030A0D12052D0B1543434A1B0515401D436D00E4076D08254325
:402B8000301C291C07B03CBC90469946A246AB46F0BD2B434ED05B46002B00D185E1584600F088FA021C2823291C9B1A161C5846D940083EB0400B1CB54003439B462E1CEC
:402BC0000023304F0093BF1A98468CE7514629432ED10025002202219EE75146294323D0002D00D154E1281C00F064FA031C28215046C91A1A1CC8405146083A914095402C
:402C00000A1C05431F480021C31A85E7032B00D1C2E1012B00D06DE14446019B00251C40E4B2002300269DE700250022012173E7032171E70423009300239B460133002608
:402C4000984650E70C230093093B98464BE7802500242D030026074B84E74B46AB46161C0193884675E7029BAB46161C019388466FE7C046FF07000001FCFFFF3C400000E0
:402C8000FFFF0F800DFCFFFF330C3604360C9C46331C140C1204120C53439846634653439946634663430193331C41466343090C4B445B18994505D9802040028146019939
:402CC00049440191190C039141460904090C1B045B1804932B0C9846331C2D04290C4B43604600934346654658435E43009B4D431B0C9946AE194E448446B54203D980235F
:402D00005B029946CC44350C2B1C0398634484460593009B36041B041B0CF3189C446046039058460504060C280C84465043351C81466046654344434846000C834672438D
:402D400014195C44A24203D98022520293465D44220CAD184A461204120C24044046A41862464A437143464360460096464670438046100C84468844E044414505D98021A7
:402D800049028C46009961440091019803998446614499429B415B4299460598434684461204120C1B049B1863449C46AB4683429B4140460A19CC44A2428941E344CC45A0
:402DC000B6415C46000C8046494276425B426418334398448C428941AB459B4149425B4219430D1C009B4544EE187602E50D2E43B346049B56021E43731E9E415B46D20D63
:402E0000324366021643DB010AD50123334076081E435B46DB071E435B465B089B465746634BFB18002B5ADD720709D00F223240042A05D0321DB242B6417642B344161C8F
:402E40005A46D20106D55A465A4B1A4080239346DB00FB18584A934234DD0124029B00251C400026554B7DE680205B460003034208D0054206D105432D032D0B4C46161C14
:402E80004E4B6FE65D4605432D032D0B4B4B69E6504600F00FF9031C2033272B00DCA6E65546083885400022ACE6281C00F002F9021C2032272A00DC75E60838854000268C
:402EC000AB467DE65A46F608520716435A4601245502029A5B052D0B5B0D144042E6384DED1B382D0ADD0124029B00251C400026002337E6019B5746029391E71F2D25DCE5
:402F0000304B321C9C466744BE405B46BB40371CEA407E1EB74113433B431E1C5B46EB401D1C730709D00F233340042B05D0331DB342B6417642AD191E1C2B0220D5012446
:402F4000029B00251C40002601230BE65A461E4BDB1BDA40131C202D1CD01C4A94465A466744BA40171C3E43721E96411E4307230025334007D00F2300253340042BD6D13D
:402F80006B076D022D0B0124F6081E43029B1C400023E7E50027E6E780255B4601242D031D43019B2D0323401C1C2D0B034BD9E5FF030000FFFFFFFEFE070000FF070000EA
:402FC00002FCFFFF1E040000E2FBFFFF3E0400000B0330B5134C1A0B4B00051C5B0DC90F0020A34210DD104883420EDC80200F4C40030243E41A1F2C0ADD0D48C31ADA407B
:40300000131C48424340581830BD0A4BC818FBE7281CE040084CA44663449A40131C0343EFE7C046FE0300001D0400003304000013040000FFFFFF7FEDFBFFFF38B5041E8B
:4030400016D0C50F00D04442201C00F033F8174B1B1A0A2821DC021C211C153291400A1C0B21081AC4405B052403240B5B0D03E000250023002400220021101C24030A0D1E
:403080001205240B14430A4A1B0514401C436400ED0764082C43211C38BD0B3884405B052403240B5B0D0022E6E7C0461E040000FFFF0F801C2101231B04984201D3000CE4
:4030C00010391B0A984201D3000A08391B09984201D30009043902A2105C40187047C0460403020201010101000000000000000008B500210A2200F0F9F808BD014B1868A1
:403100007047C046480100200E4B70B500251E1C0D4CE41AA410A54204D0AB00F35898470135F8E701F046F8084B00251E1C084CE41AA410A54204D0AB00F358984701352F
:40314000F8E770BDC0410000C0410000C0410000C8410000002310B5934203D0CC5CC4540133F9E710BD031C8218934202D019700133FAE7704700000EB410B59DB002A952
:40318000029008610B48822488604861012040421FABC881084804CBA400006801938C8100F012F90023029A13701DB010BC08BC03B01847FFFFFF7F480100200023C25C36
:4031C0000133002AFBD1581E70470000F0B51E1C444B87B01B68059002930B1C039101921C78029A5D1C121950780822104001D02B1CF5E72D2C04D19D1C5C78012300935C
:4032000004E000902B2C01D15C789D1C002E02D0102E0AD160E0302C5CD120222B789343582B52D110266C780235009F311C7B1E9F412D4BFF18381CFEF790FB381C04911F
:40324000311CFEF705FB0022071C131C029909194978480701D5303C07E00320084017D03721012800D02031641AB44210DA511C0BD0BB4207D802D1049A944203DC734350
:403280000122E31801E0012252422C780135DDE7181C511C0BD10098059A431E9841124BC01822231360019B002B0AD117E00099002900D05842019B002B10D0039B002AAB
:4032C00000D06B1E019A136009E03024002EACD10826AAE70A26A8E7302CA6D19DE707B0F0BDC0464C010020FFFFFF7F38B5051C0C1C131C034A291C1068221CFFF766FF4F
:4033000038BDC04648010020F0B58E6885B0071C0C1C03920193B34245D390238A89DB001A423DD003250969236801985B1A029363695D43EB0F5D19029B6D1001331B18A9
:403340009D4200D21D1C381C53050FD5291C00F01DFB061E13D0029A2169FFF7FBFEA289184B134080221343A38111E02A1C00F065FB061E0CD1381C216900F0C1FA0C232D
:40338000402201203B60A38940421343A38117E0029B2661F61826606561019EED1AA560019BB34200D2019E321C2068039900F092FA0020A3689B1BA36023689E1926600B
:4033C00005B0F0BD7FFBFFFFF0B59FB0029005938B890E1C171C1B0610D50B69002B0DD1402100F0D3FA30603061002804D10C23029A01381360D0E040237361002306AD71
:403400006B6120336B761033AB763C1C2378002B03D1E31B049312D003E0252BF9D00134F4E7049B0298311C3A1CFFF76DFF431C00D1ACE06A69049B944663446B6123785F
:40344000002B00D1A3E00122002352426A6002A95432521801342B60EB60AB601370AB654F4F2178381C052200F02AFA002808D0C01B01278740381C2B6801341843286056
:40348000EEE72B68DA0604D55322202102A8121811701A0704D553222B2102A81218117022782A2A01D0099B0EE0059A111D12680591002A01DB099204E05242EA6002221B
:4034C00013432B60013409E02278303A092A04D80A214B4301349B18F6E7099323782E2B18D163782A2B09D1059B02341A1D1B680592002B0DDA01235B420AE0002301347D
:403500002278303A092A04D80A214B4301349B18F6E70793234F2178381C032200F0D0F9002807D0C01B40278740381C2B6801341843286021781C480622671C297600F0E5
:40354000BFF9002812D0194B002B06D10722059B073393430833059314E005AB00930298291C321C124B00E000BF07E005AB00930298291C321C0E4B00F08AF80390039BC4
:40358000013304D06B69039A9B186B613DE7B3890B985B0601D5012040421FB0F0BDC0467F41000085410000894100000000000009330000F7B5171C01930A698B680090BF
:4035C0000C1C934200DA131C221C3B6043321278002A01D001333B6023689B0602D53B6802333B60062523681D401ED0231C43331B785A1E9341226892061CD53020E118BC
:403600004031C870211C5A1C45310978A21840320233D1700FE0221C0123009801991932089EB047431C0ED00135E3683A689B1A9D42F0DBDAE7221C009801994332089D20
:40364000A847431C02D10120404220E006232068E1683A6803400025042B03D18D1AEB43DB171D40A3682269934201DD9B1AED180027AF420ADA221C0123009801991A327C
:40368000089EB047431CDED00137F2E70020FEBDF0B58BB006920A1C43320793059004920A7E0C1C109B6E2A00D1A8E011D8632A22D009D8002A00D1B2E0582A00D0C2E086
:4036C00045310A707C4A4FE0642A1DD0692A1BD0B9E0732A00D1A7E009D86F2A29D0702A00D0B0E0202209680A43226037E0752A1FD0782A33D0A6E00E1C1A684236111D4D
:40370000196013683370A1E021681A68080606D4490604D5111D19600023D55E02E0111D19601568002D3BDA2D23049A6D42137036E021681A68080606D4490604D5156843
:40374000111D1960ADB202E0111D196015685A4B227E03930A276F2A1DD108271BE0221C782145321170554A19680392081D226818600D68100602D4500600D5ADB2D30710
:4037800002D520231A4322601027002D03D1202322689A432260231C002243331A7002E00A27454B03936368A360002B03DB0422216891432160002D02D1049E002B0ED08C
:4037C000049E281C391CFEF7C9F8039B013E5B5C281C3370391CFEF73BF8051EF1D1082F09D12368DB0706D563682269934202DC3023013E3370049B9B1B23612BE009680F
:403800001A68080607D4490605D5111D19601368A28A1A8004E0111D1960136862691A600023049E236116E01A68111D196016680021301C626800F043F8002801D0801BE5
:403840006060636803E0261C42363270012323610023049A1370079B05980093211C069B09AAFFF7A7FE431C02D10120404221E0236905980699321C079DA847431CF4D0F2
:4038800023689B0705D4099BE068984212DA181C10E00025E368099A9B1A9D42F3DA221C0123059806991932079EB047431CDCD00135EFE70BB0F0BD90410000A141000001
:4038C000C9B28218904204D003788B4202D00130F8E70020704710B5814208D28B18984205D29B1A013A09D3995C8154FAE70023934203D0CC5CC4540133F9E710BD0000F3
:4039000030B500293ED004390B68002B00DAC9181D4A1368141C002B02D14B60116031E099420DD208680A189A4203D11368C3180B6053684B60216024E08A4203D8131C1A
:403940005A68002AF9D11D685C198C420BD10968691858181960904214D110685268091819605A600EE08C4202D90C23036009E008680C18944203D11468526800190860CE
:403980004A60596030BDC046A4030020032370B5CC1C9C430834051C0C2C01D20C2405E0002C03DA0C2300202B6042E08C42F9D3204A1368101C191C002913D00A68121BCB
:4039C0000DD40B2A02D90A608B181FE08B4202D15A6802601BE04A685A600B1C17E00B1C4968E9E7144E3368002B03D1281C00F04BF83060281C211C00F046F8031C421CAA
:403A0000D0D00322C61C964386420AD11C60181C07210B301A1D8843821A0AD05142995007E0311A281C00F02FF8431CBAD0331CECE770BDA4030020A0030020F8B5061C3E
:403A40000C1C151C002904D1111CFFF79FFF041C18E0002A03D1FFF753FF2C1C12E000F025F8A8420ED2301C291CFFF78FFF071E07D0211C2A1CFFF76DFB301C211CFFF74E
:403A80003FFF3C1C201CF8BD38B50023064C051C081C2360FDF79CF9431C03D12368002B00D02B6038BDC046D80600200B1F1A68101F002A04DA891804390B68D018043837
:403AC00070470000000000004D6F6D205573652054686973204F6E65004C61696D6F6E61736973746865626573743132333435003139322E3136382E312E313137002B499E
:403B00005044004D25632564004D2563302564004D256330302564005725632564005725633025640057256330302564004C25632564004C2563302564004C25633030253C
:403B40006400422563256400422563302564004225633030256400542563256400542563302564005425633030256400257325732573257325730041542B43495053454E1F
:403B8000443D25640D0A006C696E6B0041542B43495053544152543D22544350222C222573222C25640D0A004F4B0041542B434950434C4F53450D0A0041542B5253540D47
:403BC0000A0041542B43574D4F44453D330D0A0041542B43574A41503D222573222C222573220D0A00474700576F726B732E2E2E005072696E7420616C6C004D6F697374A8
:403C00003A256420526F746174653A2564204375724D6F6973743A25642043757257617465723A256420437572426174746572793A25642043757254656D703A2564204358
:403C400075724C696768743A25640D0A005072696E742073656E736F72005570646174652073656E736F720000000002000480080000001000048008030004000004080862
:403C800013000C0200004001000C000020000501130404080A0014000001300C0F02C010080020000000401126030500010CE00009FFFFFF62A0F0410C000000180004001C
:403CC0000404040411110001000000000000400200103010001010120000000000000000000000000000000003000F403B300F404A310F4069320F4050330F400B400F40A1
:403D000005410F4002600F408038810F83768110849285148625884889098A258B10911C93029403954096FC970398E3990C9A1C9B119C259EDAA01FA2E0A4E3A520A61C81
:403D4000A910AB0CACE0AE1CB2FFB31FB520B740BE04BF50C063C102C50BC6E0C7C0C829C9FFCAFFCBFFCEF0CF44D00CD401D604D804D904DA04DB04DC10DD11DF01E6C0FC
:403D8000EA40EB020008018804200508084009010A180B0A0C440D080E040F041128120214801581170418011A181B101E2021A12208254026042708288429042C202E08CC
:403DC0002F0431403220338436063721382039803B053E103F0A400143284514472049444A084F28522054205501570259015C405D205F0A600261206201660278027902C4
:403E00008E01C065C2EFC4B7CA67CCEECEEFD06ED22CD6F1D88DE640003D02C00308040D06F007A308CD09E10A300B160C550EA8115C1201138315E11602170E18A81A5409
:403E40001CC01E3024CD26302B1C2F8030033180336034FC351A370F39083A083BA03F054002454049FF4A0F4BFF4C404D204EF04F055008580459045A045C115D015F0126
:403E8000604061A86240632082F3841C851086E3880F89088AF08C418D4090C39140931895A7960C97189882993C9B829F04A0F3A20CA303A408A53CA781A804A9BFACFF7F
:403EC000AD04B0C0B120B22CB360B40FB51FB61CB780B988BA28BB20BF01D602D713D804D904DB04DC11DD10DF01018202640580076409280A400D600E6012801354150828
:403F000019051A081BA01C081D201E401F0921082231232124402510271929862A042B082E102F023180321637093A803B143F2A47104F02550457045A0269896A046B4415
:403F4000728073148A808B688D088E029210944095819604970399809A409D019F05A180A210A312A404A51CA7A9A810A9A1AA02AE08AF02B140B248C0FFC2FEC42FCA3FF5
:403F8000CCCFCEEED020D601EE200A402F8066806F9071108F10C210CA80D680DA80DC60A910AA40B280E820EE20100A1101000000000000000000000000000000000000B8
:403FC000000000000007040605000000030405060708090A0B0C0E0F101112131415161718191B1C1D1E1F2021222325262728292A2B2E2F3031323334350000F4230000A4
:40400000E2220000C8230000CE220000C8230000D2230000C8230000CE220000E2220000E2220000D2230000CE220000D8220000D8220000D82200003A260000882C0000F7
:40404000662C0000662C00005A2C00004E2B00004E2B00004E2C00005A2C00004E2B00004E2C00004E2B00005A2C0000522B0000522B0000522B0000682E00004300002042
:4040800020202020202020202828282828202020202020202020202020202020202020881010101010101010101010101010100404040404040404040410101010101010E8
:4040C00041414141414101010101010101010101010101010101010101011010101010104242424242420202020202020202020202020202020202020202101010102000B2
:40410000000000000000000000000000000000000000000000000000000000000000000000000000000000000000000000000000000000000000000000000000000000007F
:40414000000000000000000000000000000000000000000000000000000000000000000000000000000000000000000000000000000000000000000000000000000000231C
:404180002D302B2000686C4C0065666745464700303132333435363738394142434445460030313233343536373839616263646566000000F8B5C046F8BC08BC9E46704769
:4041C00061020000490E0000F8B5C046F8BC08BC9E46704739020000E8410000C8000020880000009005000000000000062D0000E00600200000C05D80BB00003000000015
:40420000006CDC020404040000000000000000000000000000000000000000000000000000000000000000007C40000000000000000000000000000000000000000000006C
:4042400000000000000000000000000000000000000000000000000000000000000000000000000000000000E80000207E4000000000000000000000000000000000000078
:4042800000000000000000000000000000000000000000000000000000000000000000000000000000000000000000000000000000000000000000000000000000000000FE
:4042C00000000000000000000000000000000000000000000000000000000000000000000000000000000000000000000000000000000000000000000000000000000000BE
:40430000000000000000000000000000000000000000000000000000000000000000000000000000000000000000000000000000000000000000000000000000000000007D
:40434000000000000000000000000000000000000000000000000000000000000000000000000000000000000000000000000000000000000000000000000000000000003D
:0200000490303A
:02000000619D00
:0200000490402A
:200000000000000000000000000000000000000000000000000000000000000000000000E0
:0200000490501A
:0C000000000204C81193110104DD7330EC
:0200000490600A
:0100000001FE
:00000001FF